{
  "_format": "hh-sol-artifact-1",
  "contractName": "TestGoose2",
  "sourceName": "contracts/TestContract2.sol",
  "abi": [
    {
      "inputs": [],
      "stateMutability": "nonpayable",
      "type": "constructor"
    },
    {
      "anonymous": false,
      "inputs": [
        {
          "indexed": true,
          "internalType": "address",
          "name": "owner",
          "type": "address"
        },
        {
          "indexed": true,
          "internalType": "address",
          "name": "approved",
          "type": "address"
        },
        {
          "indexed": true,
          "internalType": "uint256",
          "name": "tokenId",
          "type": "uint256"
        }
      ],
      "name": "Approval",
      "type": "event"
    },
    {
      "anonymous": false,
      "inputs": [
        {
          "indexed": true,
          "internalType": "address",
          "name": "owner",
          "type": "address"
        },
        {
          "indexed": true,
          "internalType": "address",
          "name": "operator",
          "type": "address"
        },
        {
          "indexed": false,
          "internalType": "bool",
          "name": "approved",
          "type": "bool"
        }
      ],
      "name": "ApprovalForAll",
      "type": "event"
    },
    {
      "anonymous": false,
      "inputs": [
        {
          "indexed": true,
          "internalType": "address",
          "name": "previousOwner",
          "type": "address"
        },
        {
          "indexed": true,
          "internalType": "address",
          "name": "newOwner",
          "type": "address"
        }
      ],
      "name": "OwnershipTransferred",
      "type": "event"
    },
    {
      "anonymous": false,
      "inputs": [
        {
          "indexed": true,
          "internalType": "address",
          "name": "from",
          "type": "address"
        },
        {
          "indexed": true,
          "internalType": "address",
          "name": "to",
          "type": "address"
        },
        {
          "indexed": true,
          "internalType": "uint256",
          "name": "tokenId",
          "type": "uint256"
        }
      ],
      "name": "Transfer",
      "type": "event"
    },
    {
      "inputs": [
        {
          "internalType": "address",
          "name": "to",
          "type": "address"
        },
        {
          "internalType": "string",
          "name": "uri",
          "type": "string"
        }
      ],
      "name": "PayToMint",
      "outputs": [],
      "stateMutability": "payable",
      "type": "function"
    },
    {
      "inputs": [
        {
          "internalType": "address",
          "name": "to",
          "type": "address"
        },
        {
          "internalType": "uint256",
          "name": "tokenId",
          "type": "uint256"
        }
      ],
      "name": "approve",
      "outputs": [],
      "stateMutability": "nonpayable",
      "type": "function"
    },
    {
      "inputs": [
        {
          "internalType": "address",
          "name": "owner",
          "type": "address"
        }
      ],
      "name": "balanceOf",
      "outputs": [
        {
          "internalType": "uint256",
          "name": "",
          "type": "uint256"
        }
      ],
      "stateMutability": "view",
      "type": "function"
    },
    {
      "inputs": [
        {
          "internalType": "uint256",
          "name": "tokenId",
          "type": "uint256"
        }
      ],
      "name": "getApproved",
      "outputs": [
        {
          "internalType": "address",
          "name": "",
          "type": "address"
        }
      ],
      "stateMutability": "view",
      "type": "function"
    },
    {
      "inputs": [],
      "name": "getBalance",
      "outputs": [
        {
          "internalType": "uint256",
          "name": "",
          "type": "uint256"
        }
      ],
      "stateMutability": "view",
      "type": "function"
    },
    {
      "inputs": [
        {
          "internalType": "address",
          "name": "owner",
          "type": "address"
        },
        {
          "internalType": "address",
          "name": "operator",
          "type": "address"
        }
      ],
      "name": "isApprovedForAll",
      "outputs": [
        {
          "internalType": "bool",
          "name": "",
          "type": "bool"
        }
      ],
      "stateMutability": "view",
      "type": "function"
    },
    {
      "inputs": [],
      "name": "name",
      "outputs": [
        {
          "internalType": "string",
          "name": "",
          "type": "string"
        }
      ],
      "stateMutability": "view",
      "type": "function"
    },
    {
      "inputs": [],
      "name": "owner",
      "outputs": [
        {
          "internalType": "address",
          "name": "",
          "type": "address"
        }
      ],
      "stateMutability": "view",
      "type": "function"
    },
    {
      "inputs": [
        {
          "internalType": "uint256",
          "name": "tokenId",
          "type": "uint256"
        }
      ],
      "name": "ownerOf",
      "outputs": [
        {
          "internalType": "address",
          "name": "",
          "type": "address"
        }
      ],
      "stateMutability": "view",
      "type": "function"
    },
    {
      "inputs": [],
      "name": "renounceOwnership",
      "outputs": [],
      "stateMutability": "nonpayable",
      "type": "function"
    },
    {
      "inputs": [
        {
          "internalType": "address",
          "name": "to",
          "type": "address"
        },
        {
          "internalType": "string",
          "name": "uri",
          "type": "string"
        }
      ],
      "name": "safeMint",
      "outputs": [],
      "stateMutability": "nonpayable",
      "type": "function"
    },
    {
      "inputs": [
        {
          "internalType": "address",
          "name": "from",
          "type": "address"
        },
        {
          "internalType": "address",
          "name": "to",
          "type": "address"
        },
        {
          "internalType": "uint256",
          "name": "tokenId",
          "type": "uint256"
        }
      ],
      "name": "safeTransferFrom",
      "outputs": [],
      "stateMutability": "nonpayable",
      "type": "function"
    },
    {
      "inputs": [
        {
          "internalType": "address",
          "name": "from",
          "type": "address"
        },
        {
          "internalType": "address",
          "name": "to",
          "type": "address"
        },
        {
          "internalType": "uint256",
          "name": "tokenId",
          "type": "uint256"
        },
        {
          "internalType": "bytes",
          "name": "data",
          "type": "bytes"
        }
      ],
      "name": "safeTransferFrom",
      "outputs": [],
      "stateMutability": "nonpayable",
      "type": "function"
    },
    {
      "inputs": [
        {
          "internalType": "address",
          "name": "operator",
          "type": "address"
        },
        {
          "internalType": "bool",
          "name": "approved",
          "type": "bool"
        }
      ],
      "name": "setApprovalForAll",
      "outputs": [],
      "stateMutability": "nonpayable",
      "type": "function"
    },
    {
      "inputs": [
        {
          "internalType": "bytes4",
          "name": "interfaceId",
          "type": "bytes4"
        }
      ],
      "name": "supportsInterface",
      "outputs": [
        {
          "internalType": "bool",
          "name": "",
          "type": "bool"
        }
      ],
      "stateMutability": "view",
      "type": "function"
    },
    {
      "inputs": [],
      "name": "symbol",
      "outputs": [
        {
          "internalType": "string",
          "name": "",
          "type": "string"
        }
      ],
      "stateMutability": "view",
      "type": "function"
    },
    {
      "inputs": [
        {
          "internalType": "uint256",
          "name": "index",
          "type": "uint256"
        }
      ],
      "name": "tokenByIndex",
      "outputs": [
        {
          "internalType": "uint256",
          "name": "",
          "type": "uint256"
        }
      ],
      "stateMutability": "view",
      "type": "function"
    },
    {
      "inputs": [
        {
          "internalType": "address",
          "name": "owner",
          "type": "address"
        },
        {
          "internalType": "uint256",
          "name": "index",
          "type": "uint256"
        }
      ],
      "name": "tokenOfOwnerByIndex",
      "outputs": [
        {
          "internalType": "uint256",
          "name": "",
          "type": "uint256"
        }
      ],
      "stateMutability": "view",
      "type": "function"
    },
    {
      "inputs": [
        {
          "internalType": "uint256",
          "name": "tokenId",
          "type": "uint256"
        }
      ],
      "name": "tokenURI",
      "outputs": [
        {
          "internalType": "string",
          "name": "",
          "type": "string"
        }
      ],
      "stateMutability": "view",
      "type": "function"
    },
    {
      "inputs": [],
      "name": "totalSupply",
      "outputs": [
        {
          "internalType": "uint256",
          "name": "",
          "type": "uint256"
        }
      ],
      "stateMutability": "view",
      "type": "function"
    },
    {
      "inputs": [
        {
          "internalType": "address",
          "name": "from",
          "type": "address"
        },
        {
          "internalType": "address",
          "name": "to",
          "type": "address"
        },
        {
          "internalType": "uint256",
          "name": "tokenId",
          "type": "uint256"
        }
      ],
      "name": "transferFrom",
      "outputs": [],
      "stateMutability": "nonpayable",
      "type": "function"
    },
    {
      "inputs": [
        {
          "internalType": "address",
          "name": "newOwner",
          "type": "address"
        }
      ],
      "name": "transferOwnership",
      "outputs": [],
      "stateMutability": "nonpayable",
      "type": "function"
    },
    {
      "inputs": [],
      "name": "withdrawMoneyTo",
      "outputs": [],
      "stateMutability": "nonpayable",
      "type": "function"
    }
  ],
  "bytecode": "0x60806040526019600c5573655fd8bd962b23585c2f7eb27601f95cbc5eb5db600e60006101000a81548173ffffffffffffffffffffffffffffffffffffffff021916908373ffffffffffffffffffffffffffffffffffffffff1602179055503480156200006b57600080fd5b506040518060400160405280600a81526020017f54657374476f6f736532000000000000000000000000000000000000000000008152506040518060400160405280600381526020017f54475300000000000000000000000000000000000000000000000000000000008152508160009080519060200190620000f092919062000200565b5080600190805190602001906200010992919062000200565b5050506200012c620001206200013260201b60201c565b6200013a60201b60201c565b62000315565b600033905090565b6000600b60009054906101000a900473ffffffffffffffffffffffffffffffffffffffff16905081600b60006101000a81548173ffffffffffffffffffffffffffffffffffffffff021916908373ffffffffffffffffffffffffffffffffffffffff1602179055508173ffffffffffffffffffffffffffffffffffffffff168173ffffffffffffffffffffffffffffffffffffffff167f8be0079c531659141344cd1fd0a4f28419497f9722a3daafe3b4186f6b6457e060405160405180910390a35050565b8280546200020e90620002b0565b90600052602060002090601f0160209004810192826200023257600085556200027e565b82601f106200024d57805160ff19168380011785556200027e565b828001600101855582156200027e579182015b828111156200027d57825182559160200191906001019062000260565b5b5090506200028d919062000291565b5090565b5b80821115620002ac57600081600090555060010162000292565b5090565b60006002820490506001821680620002c957607f821691505b60208210811415620002e057620002df620002e6565b5b50919050565b7f4e487b7100000000000000000000000000000000000000000000000000000000600052602260045260246000fd5b613bf080620003256000396000f3fe6080604052600436106101405760003560e01c80636352211e116100b6578063b88d4fde1161006f578063b88d4fde1461045c578063c87b56dd14610485578063d204c45e146104c2578063db980b5d146104eb578063e985e9c514610507578063f2fde38b1461054457610140565b80636352211e1461034c57806370a0823114610389578063715018a6146103c65780638da5cb5b146103dd57806395d89b4114610408578063a22cb4651461043357610140565b806312065fe01161010857806312065fe01461022a57806318160ddd1461025557806323b872dd146102805780632f745c59146102a957806342842e0e146102e65780634f6ccce71461030f57610140565b806301ffc9a71461014557806306fdde0314610182578063081812fc146101ad578063086f708a146101ea578063095ea7b314610201575b600080fd5b34801561015157600080fd5b5061016c60048036038101906101679190612c59565b61056d565b60405161017991906130c8565b60405180910390f35b34801561018e57600080fd5b5061019761057f565b6040516101a491906130e3565b60405180910390f35b3480156101b957600080fd5b506101d460048036038101906101cf9190612cab565b610611565b6040516101e19190613061565b60405180910390f35b3480156101f657600080fd5b506101ff610657565b005b34801561020d57600080fd5b5061022860048036038101906102239190612c1d565b6106c9565b005b34801561023657600080fd5b5061023f6107e1565b60405161024c9190613365565b60405180910390f35b34801561026157600080fd5b5061026a6107e9565b6040516102779190613365565b60405180910390f35b34801561028c57600080fd5b506102a760048036038101906102a29190612ac3565b6107f6565b005b3480156102b557600080fd5b506102d060048036038101906102cb9190612c1d565b610856565b6040516102dd9190613365565b60405180910390f35b3480156102f257600080fd5b5061030d60048036038101906103089190612ac3565b6108fb565b005b34801561031b57600080fd5b5061033660048036038101906103319190612cab565b61091b565b6040516103439190613365565b60405180910390f35b34801561035857600080fd5b50610373600480360381019061036e9190612cab565b6109b2565b6040516103809190613061565b60405180910390f35b34801561039557600080fd5b506103b060048036038101906103ab9190612a5e565b610a39565b6040516103bd9190613365565b60405180910390f35b3480156103d257600080fd5b506103db610af1565b005b3480156103e957600080fd5b506103f2610b05565b6040516103ff9190613061565b60405180910390f35b34801561041457600080fd5b5061041d610b2f565b60405161042a91906130e3565b60405180910390f35b34801561043f57600080fd5b5061045a60048036038101906104559190612b8d565b610bc1565b005b34801561046857600080fd5b50610483600480360381019061047e9190612b12565b610bd7565b005b34801561049157600080fd5b506104ac60048036038101906104a79190612cab565b610c39565b6040516104b991906130e3565b60405180910390f35b3480156104ce57600080fd5b506104e960048036038101906104e49190612bc9565b610c4b565b005b61050560048036038101906105009190612bc9565b610cc9565b005b34801561051357600080fd5b5061052e60048036038101906105299190612a87565b610d92565b60405161053b91906130c8565b60405180910390f35b34801561055057600080fd5b5061056b60048036038101906105669190612a5e565b610e26565b005b600061057882610eaa565b9050919050565b60606000805461058e9061358a565b80601f01602080910402602001604051908101604052809291908181526020018280546105ba9061358a565b80156106075780601f106105dc57610100808354040283529160200191610607565b820191906000526020600020905b8154815290600101906020018083116105ea57829003601f168201915b5050505050905090565b600061061c82610f24565b6004600083815260200190815260200160002060009054906101000a900473ffffffffffffffffffffffffffffffffffffffff169050919050565b600e60009054906101000a900473ffffffffffffffffffffffffffffffffffffffff1673ffffffffffffffffffffffffffffffffffffffff166108fc61069b6107e1565b9081150290604051600060405180830381858888f193505050501580156106c6573d6000803e3d6000fd5b50565b60006106d4826109b2565b90508073ffffffffffffffffffffffffffffffffffffffff168373ffffffffffffffffffffffffffffffffffffffff161415610745576040517f08c379a000000000000000000000000000000000000000000000000000000000815260040161073c906132e5565b60405180910390fd5b8073ffffffffffffffffffffffffffffffffffffffff16610764610f6f565b73ffffffffffffffffffffffffffffffffffffffff16148061079357506107928161078d610f6f565b610d92565b5b6107d2576040517f08c379a00000000000000000000000000000000000000000000000000000000081526004016107c990613305565b60405180910390fd5b6107dc8383610f77565b505050565b600047905090565b6000600880549050905090565b610807610801610f6f565b82611030565b610846576040517f08c379a000000000000000000000000000000000000000000000000000000000815260040161083d90613105565b60405180910390fd5b6108518383836110c5565b505050565b600061086183610a39565b82106108a2576040517f08c379a000000000000000000000000000000000000000000000000000000000815260040161089990613125565b60405180910390fd5b600660008473ffffffffffffffffffffffffffffffffffffffff1673ffffffffffffffffffffffffffffffffffffffff168152602001908152602001600020600083815260200190815260200160002054905092915050565b61091683838360405180602001604052806000815250610bd7565b505050565b60006109256107e9565b8210610966576040517f08c379a000000000000000000000000000000000000000000000000000000000815260040161095d90613325565b60405180910390fd5b600882815481106109a0577f4e487b7100000000000000000000000000000000000000000000000000000000600052603260045260246000fd5b90600052602060002001549050919050565b6000806109be836113bf565b9050600073ffffffffffffffffffffffffffffffffffffffff168173ffffffffffffffffffffffffffffffffffffffff161415610a30576040517f08c379a0000000000000000000000000000000000000000000000000000000008152600401610a27906132c5565b60405180910390fd5b80915050919050565b60008073ffffffffffffffffffffffffffffffffffffffff168273ffffffffffffffffffffffffffffffffffffffff161415610aaa576040517f08c379a0000000000000000000000000000000000000000000000000000000008152600401610aa190613245565b60405180910390fd5b600360008373ffffffffffffffffffffffffffffffffffffffff1673ffffffffffffffffffffffffffffffffffffffff168152602001908152602001600020549050919050565b610af96113fc565b610b03600061147a565b565b6000600b60009054906101000a900473ffffffffffffffffffffffffffffffffffffffff16905090565b606060018054610b3e9061358a565b80601f0160208091040260200160405190810160405280929190818152602001828054610b6a9061358a565b8015610bb75780601f10610b8c57610100808354040283529160200191610bb7565b820191906000526020600020905b815481529060010190602001808311610b9a57829003601f168201915b5050505050905090565b610bd3610bcc610f6f565b8383611540565b5050565b610be8610be2610f6f565b83611030565b610c27576040517f08c379a0000000000000000000000000000000000000000000000000000000008152600401610c1e90613105565b60405180910390fd5b610c33848484846116ad565b50505050565b6060610c4482611709565b9050919050565b610c536113fc565b6000610c5f600d61181c565b9050600c54811115610ca6576040517f08c379a0000000000000000000000000000000000000000000000000000000008152600401610c9d90613165565b60405180910390fd5b610cb0600d61182a565b610cba8382611840565b610cc4818361185e565b505050565b6000610cd5600d61181c565b905067016345785d8a0000341015610d22576040517f08c379a0000000000000000000000000000000000000000000000000000000008152600401610d19906131e5565b60405180910390fd5b600c54811115610d67576040517f08c379a0000000000000000000000000000000000000000000000000000000008152600401610d5e90613165565b60405180910390fd5b610d71600d61182a565b610d7b8382611840565b610d85818361185e565b610d8d610657565b505050565b6000600560008473ffffffffffffffffffffffffffffffffffffffff1673ffffffffffffffffffffffffffffffffffffffff16815260200190815260200160002060008373ffffffffffffffffffffffffffffffffffffffff1673ffffffffffffffffffffffffffffffffffffffff16815260200190815260200160002060009054906101000a900460ff16905092915050565b610e2e6113fc565b600073ffffffffffffffffffffffffffffffffffffffff168173ffffffffffffffffffffffffffffffffffffffff161415610e9e576040517f08c379a0000000000000000000000000000000000000000000000000000000008152600401610e9590613185565b60405180910390fd5b610ea78161147a565b50565b60007f780e9d63000000000000000000000000000000000000000000000000000000007bffffffffffffffffffffffffffffffffffffffffffffffffffffffff1916827bffffffffffffffffffffffffffffffffffffffffffffffffffffffff19161480610f1d5750610f1c826118d2565b5b9050919050565b610f2d816119b4565b610f6c576040517f08c379a0000000000000000000000000000000000000000000000000000000008152600401610f63906132c5565b60405180910390fd5b50565b600033905090565b816004600083815260200190815260200160002060006101000a81548173ffffffffffffffffffffffffffffffffffffffff021916908373ffffffffffffffffffffffffffffffffffffffff160217905550808273ffffffffffffffffffffffffffffffffffffffff16610fea836109b2565b73ffffffffffffffffffffffffffffffffffffffff167f8c5be1e5ebec7d5bd14f71427d1e84f3dd0314c0f7b2291e5b200ac8c7c3b92560405160405180910390a45050565b60008061103c836109b2565b90508073ffffffffffffffffffffffffffffffffffffffff168473ffffffffffffffffffffffffffffffffffffffff16148061107e575061107d8185610d92565b5b806110bc57508373ffffffffffffffffffffffffffffffffffffffff166110a484610611565b73ffffffffffffffffffffffffffffffffffffffff16145b91505092915050565b8273ffffffffffffffffffffffffffffffffffffffff166110e5826109b2565b73ffffffffffffffffffffffffffffffffffffffff161461113b576040517f08c379a0000000000000000000000000000000000000000000000000000000008152600401611132906131a5565b60405180910390fd5b600073ffffffffffffffffffffffffffffffffffffffff168273ffffffffffffffffffffffffffffffffffffffff1614156111ab576040517f08c379a00000000000000000000000000000000000000000000000000000000081526004016111a290613205565b60405180910390fd5b6111b883838360016119f5565b8273ffffffffffffffffffffffffffffffffffffffff166111d8826109b2565b73ffffffffffffffffffffffffffffffffffffffff161461122e576040517f08c379a0000000000000000000000000000000000000000000000000000000008152600401611225906131a5565b60405180910390fd5b6004600082815260200190815260200160002060006101000a81549073ffffffffffffffffffffffffffffffffffffffff02191690556001600360008573ffffffffffffffffffffffffffffffffffffffff1673ffffffffffffffffffffffffffffffffffffffff168152602001908152602001600020600082825403925050819055506001600360008473ffffffffffffffffffffffffffffffffffffffff1673ffffffffffffffffffffffffffffffffffffffff16815260200190815260200160002060008282540192505081905550816002600083815260200190815260200160002060006101000a81548173ffffffffffffffffffffffffffffffffffffffff021916908373ffffffffffffffffffffffffffffffffffffffff160217905550808273ffffffffffffffffffffffffffffffffffffffff168473ffffffffffffffffffffffffffffffffffffffff167fddf252ad1be2c89b69c2b068fc378daa952ba7f163c4a11628f55a4df523b3ef60405160405180910390a46113ba8383836001611a07565b505050565b60006002600083815260200190815260200160002060009054906101000a900473ffffffffffffffffffffffffffffffffffffffff169050919050565b611404610f6f565b73ffffffffffffffffffffffffffffffffffffffff16611422610b05565b73ffffffffffffffffffffffffffffffffffffffff1614611478576040517f08c379a000000000000000000000000000000000000000000000000000000000815260040161146f906132a5565b60405180910390fd5b565b6000600b60009054906101000a900473ffffffffffffffffffffffffffffffffffffffff16905081600b60006101000a81548173ffffffffffffffffffffffffffffffffffffffff021916908373ffffffffffffffffffffffffffffffffffffffff1602179055508173ffffffffffffffffffffffffffffffffffffffff168173ffffffffffffffffffffffffffffffffffffffff167f8be0079c531659141344cd1fd0a4f28419497f9722a3daafe3b4186f6b6457e060405160405180910390a35050565b8173ffffffffffffffffffffffffffffffffffffffff168373ffffffffffffffffffffffffffffffffffffffff1614156115af576040517f08c379a00000000000000000000000000000000000000000000000000000000081526004016115a690613225565b60405180910390fd5b80600560008573ffffffffffffffffffffffffffffffffffffffff1673ffffffffffffffffffffffffffffffffffffffff16815260200190815260200160002060008473ffffffffffffffffffffffffffffffffffffffff1673ffffffffffffffffffffffffffffffffffffffff16815260200190815260200160002060006101000a81548160ff0219169083151502179055508173ffffffffffffffffffffffffffffffffffffffff168373ffffffffffffffffffffffffffffffffffffffff167f17307eab39ab6107e8899845ad3d59bd9653f200f220920489ca2b5937696c31836040516116a091906130c8565b60405180910390a3505050565b6116b88484846110c5565b6116c484848484611a0d565b611703576040517f08c379a00000000000000000000000000000000000000000000000000000000081526004016116fa90613145565b60405180910390fd5b50505050565b606061171482610f24565b6000600a600084815260200190815260200160002080546117349061358a565b80601f01602080910402602001604051908101604052809291908181526020018280546117609061358a565b80156117ad5780601f10611782576101008083540402835291602001916117ad565b820191906000526020600020905b81548152906001019060200180831161179057829003601f168201915b5050505050905060006117be611ba4565b90506000815114156117d4578192505050611817565b6000825111156118095780826040516020016117f192919061303d565b60405160208183030381529060405292505050611817565b61181284611bbb565b925050505b919050565b600081600001549050919050565b6001816000016000828254019250508190555050565b61185a828260405180602001604052806000815250611c23565b5050565b611867826119b4565b6118a6576040517f08c379a000000000000000000000000000000000000000000000000000000000815260040161189d90613265565b60405180910390fd5b80600a600084815260200190815260200160002090805190602001906118cd929190612882565b505050565b60007f80ac58cd000000000000000000000000000000000000000000000000000000007bffffffffffffffffffffffffffffffffffffffffffffffffffffffff1916827bffffffffffffffffffffffffffffffffffffffffffffffffffffffff1916148061199d57507f5b5e139f000000000000000000000000000000000000000000000000000000007bffffffffffffffffffffffffffffffffffffffffffffffffffffffff1916827bffffffffffffffffffffffffffffffffffffffffffffffffffffffff1916145b806119ad57506119ac82611c7e565b5b9050919050565b60008073ffffffffffffffffffffffffffffffffffffffff166119d6836113bf565b73ffffffffffffffffffffffffffffffffffffffff1614159050919050565b611a0184848484611ce8565b50505050565b50505050565b6000611a2e8473ffffffffffffffffffffffffffffffffffffffff16611e48565b15611b97578373ffffffffffffffffffffffffffffffffffffffff1663150b7a02611a57610f6f565b8786866040518563ffffffff1660e01b8152600401611a79949392919061307c565b602060405180830381600087803b158015611a9357600080fd5b505af1925050508015611ac457506040513d601f19601f82011682018060405250810190611ac19190612c82565b60015b611b47573d8060008114611af4576040519150601f19603f3d011682016040523d82523d6000602084013e611af9565b606091505b50600081511415611b3f576040517f08c379a0000000000000000000000000000000000000000000000000000000008152600401611b3690613145565b60405180910390fd5b805181602001fd5b63150b7a0260e01b7bffffffffffffffffffffffffffffffffffffffffffffffffffffffff1916817bffffffffffffffffffffffffffffffffffffffffffffffffffffffff191614915050611b9c565b600190505b949350505050565b606060405180602001604052806000815250905090565b6060611bc682610f24565b6000611bd0611ba4565b90506000815111611bf05760405180602001604052806000815250611c1b565b80611bfa84611e6b565b604051602001611c0b92919061303d565b6040516020818303038152906040525b915050919050565b611c2d8383611f8f565b611c3a6000848484611a0d565b611c79576040517f08c379a0000000000000000000000000000000000000000000000000000000008152600401611c7090613145565b60405180910390fd5b505050565b60007f01ffc9a7000000000000000000000000000000000000000000000000000000007bffffffffffffffffffffffffffffffffffffffffffffffffffffffff1916827bffffffffffffffffffffffffffffffffffffffffffffffffffffffff1916149050919050565b611cf4848484846121ad565b6001811115611d38576040517f08c379a0000000000000000000000000000000000000000000000000000000008152600401611d2f90613345565b60405180910390fd5b6000829050600073ffffffffffffffffffffffffffffffffffffffff168573ffffffffffffffffffffffffffffffffffffffff161415611d8057611d7b816122d3565b611dbf565b8373ffffffffffffffffffffffffffffffffffffffff168573ffffffffffffffffffffffffffffffffffffffff1614611dbe57611dbd858261231c565b5b5b600073ffffffffffffffffffffffffffffffffffffffff168473ffffffffffffffffffffffffffffffffffffffff161415611e0257611dfd81612489565b611e41565b8473ffffffffffffffffffffffffffffffffffffffff168473ffffffffffffffffffffffffffffffffffffffff1614611e4057611e3f84826125cc565b5b5b5050505050565b6000808273ffffffffffffffffffffffffffffffffffffffff163b119050919050565b606060006001611e7a8461264b565b01905060008167ffffffffffffffff811115611ebf577f4e487b7100000000000000000000000000000000000000000000000000000000600052604160045260246000fd5b6040519080825280601f01601f191660200182016040528015611ef15781602001600182028036833780820191505090505b509050600082602001820190505b600115611f84578080600190039150507f3031323334353637383961626364656600000000000000000000000000000000600a86061a8153600a8581611f6e577f4e487b7100000000000000000000000000000000000000000000000000000000600052601260045260246000fd5b0494506000851415611f7f57611f84565b611eff565b819350505050919050565b600073ffffffffffffffffffffffffffffffffffffffff168273ffffffffffffffffffffffffffffffffffffffff161415611fff576040517f08c379a0000000000000000000000000000000000000000000000000000000008152600401611ff690613285565b60405180910390fd5b612008816119b4565b15612048576040517f08c379a000000000000000000000000000000000000000000000000000000000815260040161203f906131c5565b60405180910390fd5b6120566000838360016119f5565b61205f816119b4565b1561209f576040517f08c379a0000000000000000000000000000000000000000000000000000000008152600401612096906131c5565b60405180910390fd5b6001600360008473ffffffffffffffffffffffffffffffffffffffff1673ffffffffffffffffffffffffffffffffffffffff16815260200190815260200160002060008282540192505081905550816002600083815260200190815260200160002060006101000a81548173ffffffffffffffffffffffffffffffffffffffff021916908373ffffffffffffffffffffffffffffffffffffffff160217905550808273ffffffffffffffffffffffffffffffffffffffff16600073ffffffffffffffffffffffffffffffffffffffff167fddf252ad1be2c89b69c2b068fc378daa952ba7f163c4a11628f55a4df523b3ef60405160405180910390a46121a9600083836001611a07565b5050565b60018111156122cd57600073ffffffffffffffffffffffffffffffffffffffff168473ffffffffffffffffffffffffffffffffffffffff16146122415780600360008673ffffffffffffffffffffffffffffffffffffffff1673ffffffffffffffffffffffffffffffffffffffff168152602001908152602001600020600082825461223991906134a0565b925050819055505b600073ffffffffffffffffffffffffffffffffffffffff168373ffffffffffffffffffffffffffffffffffffffff16146122cc5780600360008573ffffffffffffffffffffffffffffffffffffffff1673ffffffffffffffffffffffffffffffffffffffff16815260200190815260200160002060008282546122c4919061344a565b925050819055505b5b50505050565b6008805490506009600083815260200190815260200160002081905550600881908060018154018082558091505060019003906000526020600020016000909190919091505550565b6000600161232984610a39565b61233391906134a0565b9050600060076000848152602001908152602001600020549050818114612418576000600660008673ffffffffffffffffffffffffffffffffffffffff1673ffffffffffffffffffffffffffffffffffffffff168152602001908152602001600020600084815260200190815260200160002054905080600660008773ffffffffffffffffffffffffffffffffffffffff1673ffffffffffffffffffffffffffffffffffffffff168152602001908152602001600020600084815260200190815260200160002081905550816007600083815260200190815260200160002081905550505b6007600084815260200190815260200160002060009055600660008573ffffffffffffffffffffffffffffffffffffffff1673ffffffffffffffffffffffffffffffffffffffff16815260200190815260200160002060008381526020019081526020016000206000905550505050565b6000600160088054905061249d91906134a0565b90506000600960008481526020019081526020016000205490506000600883815481106124f3577f4e487b7100000000000000000000000000000000000000000000000000000000600052603260045260246000fd5b90600052602060002001549050806008838154811061253b577f4e487b7100000000000000000000000000000000000000000000000000000000600052603260045260246000fd5b9060005260206000200181905550816009600083815260200190815260200160002081905550600960008581526020019081526020016000206000905560088054806125b0577f4e487b7100000000000000000000000000000000000000000000000000000000600052603160045260246000fd5b6001900381819060005260206000200160009055905550505050565b60006125d783610a39565b905081600660008573ffffffffffffffffffffffffffffffffffffffff1673ffffffffffffffffffffffffffffffffffffffff168152602001908152602001600020600083815260200190815260200160002081905550806007600084815260200190815260200160002081905550505050565b600080600090507a184f03e93ff9f4daa797ed6e38ed64bf6a1f01000000000000000083106126cf577a184f03e93ff9f4daa797ed6e38ed64bf6a1f01000000000000000083816126c5577f4e487b7100000000000000000000000000000000000000000000000000000000600052601260045260246000fd5b0492506040810190505b6d04ee2d6d415b85acef81000000008310612732576d04ee2d6d415b85acef81000000008381612728577f4e487b7100000000000000000000000000000000000000000000000000000000600052601260045260246000fd5b0492506020810190505b662386f26fc10000831061278757662386f26fc10000838161277d577f4e487b7100000000000000000000000000000000000000000000000000000000600052601260045260246000fd5b0492506010810190505b6305f5e10083106127d6576305f5e10083816127cc577f4e487b7100000000000000000000000000000000000000000000000000000000600052601260045260246000fd5b0492506008810190505b6127108310612821576127108381612817577f4e487b7100000000000000000000000000000000000000000000000000000000600052601260045260246000fd5b0492506004810190505b6064831061286a5760648381612860577f4e487b7100000000000000000000000000000000000000000000000000000000600052601260045260246000fd5b0492506002810190505b600a8310612879576001810190505b80915050919050565b82805461288e9061358a565b90600052602060002090601f0160209004810192826128b057600085556128f7565b82601f106128c957805160ff19168380011785556128f7565b828001600101855582156128f7579182015b828111156128f65782518255916020019190600101906128db565b5b5090506129049190612908565b5090565b5b80821115612921576000816000905550600101612909565b5090565b6000612938612933846133a5565b613380565b90508281526020810184848401111561295057600080fd5b61295b848285613548565b509392505050565b6000612976612971846133d6565b613380565b90508281526020810184848401111561298e57600080fd5b612999848285613548565b509392505050565b6000813590506129b081613b5e565b92915050565b6000813590506129c581613b75565b92915050565b6000813590506129da81613b8c565b92915050565b6000815190506129ef81613b8c565b92915050565b600082601f830112612a0657600080fd5b8135612a16848260208601612925565b91505092915050565b600082601f830112612a3057600080fd5b8135612a40848260208601612963565b91505092915050565b600081359050612a5881613ba3565b92915050565b600060208284031215612a7057600080fd5b6000612a7e848285016129a1565b91505092915050565b60008060408385031215612a9a57600080fd5b6000612aa8858286016129a1565b9250506020612ab9858286016129a1565b9150509250929050565b600080600060608486031215612ad857600080fd5b6000612ae6868287016129a1565b9350506020612af7868287016129a1565b9250506040612b0886828701612a49565b9150509250925092565b60008060008060808587031215612b2857600080fd5b6000612b36878288016129a1565b9450506020612b47878288016129a1565b9350506040612b5887828801612a49565b925050606085013567ffffffffffffffff811115612b7557600080fd5b612b81878288016129f5565b91505092959194509250565b60008060408385031215612ba057600080fd5b6000612bae858286016129a1565b9250506020612bbf858286016129b6565b9150509250929050565b60008060408385031215612bdc57600080fd5b6000612bea858286016129a1565b925050602083013567ffffffffffffffff811115612c0757600080fd5b612c1385828601612a1f565b9150509250929050565b60008060408385031215612c3057600080fd5b6000612c3e858286016129a1565b9250506020612c4f85828601612a49565b9150509250929050565b600060208284031215612c6b57600080fd5b6000612c79848285016129cb565b91505092915050565b600060208284031215612c9457600080fd5b6000612ca2848285016129e0565b91505092915050565b600060208284031215612cbd57600080fd5b6000612ccb84828501612a49565b91505092915050565b612cdd816134d4565b82525050565b612cec816134e6565b82525050565b6000612cfd82613407565b612d07818561341d565b9350612d17818560208601613557565b612d208161367a565b840191505092915050565b6000612d3682613412565b612d40818561342e565b9350612d50818560208601613557565b612d598161367a565b840191505092915050565b6000612d6f82613412565b612d79818561343f565b9350612d89818560208601613557565b80840191505092915050565b6000612da2602d8361342e565b9150612dad8261368b565b604082019050919050565b6000612dc5602b8361342e565b9150612dd0826136da565b604082019050919050565b6000612de860328361342e565b9150612df382613729565b604082019050919050565b6000612e0b60088361342e565b9150612e1682613778565b602082019050919050565b6000612e2e60268361342e565b9150612e39826137a1565b604082019050919050565b6000612e5160258361342e565b9150612e5c826137f0565b604082019050919050565b6000612e74601c8361342e565b9150612e7f8261383f565b602082019050919050565b6000612e9760128361342e565b9150612ea282613868565b602082019050919050565b6000612eba60248361342e565b9150612ec582613891565b604082019050919050565b6000612edd60198361342e565b9150612ee8826138e0565b602082019050919050565b6000612f0060298361342e565b9150612f0b82613909565b604082019050919050565b6000612f23602e8361342e565b9150612f2e82613958565b604082019050919050565b6000612f4660208361342e565b9150612f51826139a7565b602082019050919050565b6000612f6960208361342e565b9150612f74826139d0565b602082019050919050565b6000612f8c60188361342e565b9150612f97826139f9565b602082019050919050565b6000612faf60218361342e565b9150612fba82613a22565b604082019050919050565b6000612fd2603d8361342e565b9150612fdd82613a71565b604082019050919050565b6000612ff5602c8361342e565b915061300082613ac0565b604082019050919050565b600061301860358361342e565b915061302382613b0f565b604082019050919050565b6130378161353e565b82525050565b60006130498285612d64565b91506130558284612d64565b91508190509392505050565b60006020820190506130766000830184612cd4565b92915050565b60006080820190506130916000830187612cd4565b61309e6020830186612cd4565b6130ab604083018561302e565b81810360608301526130bd8184612cf2565b905095945050505050565b60006020820190506130dd6000830184612ce3565b92915050565b600060208201905081810360008301526130fd8184612d2b565b905092915050565b6000602082019050818103600083015261311e81612d95565b9050919050565b6000602082019050818103600083015261313e81612db8565b9050919050565b6000602082019050818103600083015261315e81612ddb565b9050919050565b6000602082019050818103600083015261317e81612dfe565b9050919050565b6000602082019050818103600083015261319e81612e21565b9050919050565b600060208201905081810360008301526131be81612e44565b9050919050565b600060208201905081810360008301526131de81612e67565b9050919050565b600060208201905081810360008301526131fe81612e8a565b9050919050565b6000602082019050818103600083015261321e81612ead565b9050919050565b6000602082019050818103600083015261323e81612ed0565b9050919050565b6000602082019050818103600083015261325e81612ef3565b9050919050565b6000602082019050818103600083015261327e81612f16565b9050919050565b6000602082019050818103600083015261329e81612f39565b9050919050565b600060208201905081810360008301526132be81612f5c565b9050919050565b600060208201905081810360008301526132de81612f7f565b9050919050565b600060208201905081810360008301526132fe81612fa2565b9050919050565b6000602082019050818103600083015261331e81612fc5565b9050919050565b6000602082019050818103600083015261333e81612fe8565b9050919050565b6000602082019050818103600083015261335e8161300b565b9050919050565b600060208201905061337a600083018461302e565b92915050565b600061338a61339b565b905061339682826135bc565b919050565b6000604051905090565b600067ffffffffffffffff8211156133c0576133bf61364b565b5b6133c98261367a565b9050602081019050919050565b600067ffffffffffffffff8211156133f1576133f061364b565b5b6133fa8261367a565b9050602081019050919050565b600081519050919050565b600081519050919050565b600082825260208201905092915050565b600082825260208201905092915050565b600081905092915050565b60006134558261353e565b91506134608361353e565b9250827fffffffffffffffffffffffffffffffffffffffffffffffffffffffffffffffff03821115613495576134946135ed565b5b828201905092915050565b60006134ab8261353e565b91506134b68361353e565b9250828210156134c9576134c86135ed565b5b828203905092915050565b60006134df8261351e565b9050919050565b60008115159050919050565b60007fffffffff0000000000000000000000000000000000000000000000000000000082169050919050565b600073ffffffffffffffffffffffffffffffffffffffff82169050919050565b6000819050919050565b82818337600083830152505050565b60005b8381101561357557808201518184015260208101905061355a565b83811115613584576000848401525b50505050565b600060028204905060018216806135a257607f821691505b602082108114156135b6576135b561361c565b5b50919050565b6135c58261367a565b810181811067ffffffffffffffff821117156135e4576135e361364b565b5b80604052505050565b7f4e487b7100000000000000000000000000000000000000000000000000000000600052601160045260246000fd5b7f4e487b7100000000000000000000000000000000000000000000000000000000600052602260045260246000fd5b7f4e487b7100000000000000000000000000000000000000000000000000000000600052604160045260246000fd5b6000601f19601f8301169050919050565b7f4552433732313a2063616c6c6572206973206e6f7420746f6b656e206f776e6560008201527f72206f7220617070726f76656400000000000000000000000000000000000000602082015250565b7f455243373231456e756d657261626c653a206f776e657220696e646578206f7560008201527f74206f6620626f756e6473000000000000000000000000000000000000000000602082015250565b7f4552433732313a207472616e7366657220746f206e6f6e20455243373231526560008201527f63656976657220696d706c656d656e7465720000000000000000000000000000602082015250565b7f536f6c64204f7574000000000000000000000000000000000000000000000000600082015250565b7f4f776e61626c653a206e6577206f776e657220697320746865207a65726f206160008201527f6464726573730000000000000000000000000000000000000000000000000000602082015250565b7f4552433732313a207472616e736665722066726f6d20696e636f72726563742060008201527f6f776e6572000000000000000000000000000000000000000000000000000000602082015250565b7f4552433732313a20746f6b656e20616c7265616479206d696e74656400000000600082015250565b7f496e73756666696369656e742046756e64730000000000000000000000000000600082015250565b7f4552433732313a207472616e7366657220746f20746865207a65726f2061646460008201527f7265737300000000000000000000000000000000000000000000000000000000602082015250565b7f4552433732313a20617070726f766520746f2063616c6c657200000000000000600082015250565b7f4552433732313a2061646472657373207a65726f206973206e6f74206120766160008201527f6c6964206f776e65720000000000000000000000000000000000000000000000602082015250565b7f45524337323155524953746f726167653a2055524920736574206f66206e6f6e60008201527f6578697374656e7420746f6b656e000000000000000000000000000000000000602082015250565b7f4552433732313a206d696e7420746f20746865207a65726f2061646472657373600082015250565b7f4f776e61626c653a2063616c6c6572206973206e6f7420746865206f776e6572600082015250565b7f4552433732313a20696e76616c696420746f6b656e2049440000000000000000600082015250565b7f4552433732313a20617070726f76616c20746f2063757272656e74206f776e6560008201527f7200000000000000000000000000000000000000000000000000000000000000602082015250565b7f4552433732313a20617070726f76652063616c6c6572206973206e6f7420746f60008201527f6b656e206f776e6572206f7220617070726f76656420666f7220616c6c000000602082015250565b7f455243373231456e756d657261626c653a20676c6f62616c20696e646578206f60008201527f7574206f6620626f756e64730000000000000000000000000000000000000000602082015250565b7f455243373231456e756d657261626c653a20636f6e736563757469766520747260008201527f616e7366657273206e6f7420737570706f727465640000000000000000000000602082015250565b613b67816134d4565b8114613b7257600080fd5b50565b613b7e816134e6565b8114613b8957600080fd5b50565b613b95816134f2565b8114613ba057600080fd5b50565b613bac8161353e565b8114613bb757600080fd5b5056fea26469706673582212204ab1251690cf04876537debc20c77fe0ee73a6a85e8ed1a711f9b331820ec10764736f6c63430008040033",
  "linkReferences": {},
  "deployedLinkReferences": {}
}