{
  "_format": "hh-sol-artifact-1",
  "contractName": "The_Gooses_Geese",
  "sourceName": "contracts/TestContract4.sol",
  "abi": [
    {
      "inputs": [],
      "stateMutability": "nonpayable",
      "type": "constructor"
    },
    {
      "anonymous": false,
      "inputs": [
        {
          "indexed": true,
          "internalType": "address",
          "name": "owner",
          "type": "address"
        },
        {
          "indexed": true,
          "internalType": "address",
          "name": "approved",
          "type": "address"
        },
        {
          "indexed": true,
          "internalType": "uint256",
          "name": "tokenId",
          "type": "uint256"
        }
      ],
      "name": "Approval",
      "type": "event"
    },
    {
      "anonymous": false,
      "inputs": [
        {
          "indexed": true,
          "internalType": "address",
          "name": "owner",
          "type": "address"
        },
        {
          "indexed": true,
          "internalType": "address",
          "name": "operator",
          "type": "address"
        },
        {
          "indexed": false,
          "internalType": "bool",
          "name": "approved",
          "type": "bool"
        }
      ],
      "name": "ApprovalForAll",
      "type": "event"
    },
    {
      "anonymous": false,
      "inputs": [
        {
          "indexed": true,
          "internalType": "address",
          "name": "previousOwner",
          "type": "address"
        },
        {
          "indexed": true,
          "internalType": "address",
          "name": "newOwner",
          "type": "address"
        }
      ],
      "name": "OwnershipTransferred",
      "type": "event"
    },
    {
      "anonymous": false,
      "inputs": [
        {
          "indexed": true,
          "internalType": "address",
          "name": "from",
          "type": "address"
        },
        {
          "indexed": true,
          "internalType": "address",
          "name": "to",
          "type": "address"
        },
        {
          "indexed": true,
          "internalType": "uint256",
          "name": "tokenId",
          "type": "uint256"
        }
      ],
      "name": "Transfer",
      "type": "event"
    },
    {
      "inputs": [],
      "name": "Duringseason",
      "outputs": [
        {
          "internalType": "bool",
          "name": "",
          "type": "bool"
        }
      ],
      "stateMutability": "view",
      "type": "function"
    },
    {
      "inputs": [
        {
          "internalType": "address",
          "name": "to",
          "type": "address"
        },
        {
          "internalType": "string",
          "name": "uri",
          "type": "string"
        }
      ],
      "name": "PayToMint",
      "outputs": [
        {
          "internalType": "uint256",
          "name": "",
          "type": "uint256"
        }
      ],
      "stateMutability": "payable",
      "type": "function"
    },
    {
      "inputs": [
        {
          "internalType": "address",
          "name": "recipient",
          "type": "address"
        },
        {
          "internalType": "string",
          "name": "uri",
          "type": "string"
        }
      ],
      "name": "PayToMintRoyalty",
      "outputs": [
        {
          "internalType": "uint256",
          "name": "",
          "type": "uint256"
        }
      ],
      "stateMutability": "payable",
      "type": "function"
    },
    {
      "inputs": [
        {
          "internalType": "uint256",
          "name": "cost",
          "type": "uint256"
        }
      ],
      "name": "SetPrice",
      "outputs": [
        {
          "internalType": "uint256",
          "name": "",
          "type": "uint256"
        }
      ],
      "stateMutability": "nonpayable",
      "type": "function"
    },
    {
      "inputs": [
        {
          "internalType": "uint96",
          "name": "amount",
          "type": "uint96"
        }
      ],
      "name": "SetRoyal",
      "outputs": [
        {
          "internalType": "uint256",
          "name": "",
          "type": "uint256"
        }
      ],
      "stateMutability": "nonpayable",
      "type": "function"
    },
    {
      "inputs": [],
      "name": "Setseasons",
      "outputs": [],
      "stateMutability": "nonpayable",
      "type": "function"
    },
    {
      "inputs": [
        {
          "internalType": "address",
          "name": "to",
          "type": "address"
        },
        {
          "internalType": "uint256",
          "name": "tokenId",
          "type": "uint256"
        }
      ],
      "name": "approve",
      "outputs": [],
      "stateMutability": "nonpayable",
      "type": "function"
    },
    {
      "inputs": [
        {
          "internalType": "address",
          "name": "owner",
          "type": "address"
        }
      ],
      "name": "balanceOf",
      "outputs": [
        {
          "internalType": "uint256",
          "name": "",
          "type": "uint256"
        }
      ],
      "stateMutability": "view",
      "type": "function"
    },
    {
      "inputs": [
        {
          "internalType": "uint256",
          "name": "tokenId",
          "type": "uint256"
        }
      ],
      "name": "burnNFT",
      "outputs": [],
      "stateMutability": "nonpayable",
      "type": "function"
    },
    {
      "inputs": [
        {
          "internalType": "uint256",
          "name": "tokenId",
          "type": "uint256"
        }
      ],
      "name": "getApproved",
      "outputs": [
        {
          "internalType": "address",
          "name": "",
          "type": "address"
        }
      ],
      "stateMutability": "view",
      "type": "function"
    },
    {
      "inputs": [],
      "name": "getBalance",
      "outputs": [
        {
          "internalType": "uint256",
          "name": "",
          "type": "uint256"
        }
      ],
      "stateMutability": "view",
      "type": "function"
    },
    {
      "inputs": [
        {
          "internalType": "address",
          "name": "owner",
          "type": "address"
        },
        {
          "internalType": "address",
          "name": "operator",
          "type": "address"
        }
      ],
      "name": "isApprovedForAll",
      "outputs": [
        {
          "internalType": "bool",
          "name": "",
          "type": "bool"
        }
      ],
      "stateMutability": "view",
      "type": "function"
    },
    {
      "inputs": [],
      "name": "name",
      "outputs": [
        {
          "internalType": "string",
          "name": "",
          "type": "string"
        }
      ],
      "stateMutability": "view",
      "type": "function"
    },
    {
      "inputs": [],
      "name": "owner",
      "outputs": [
        {
          "internalType": "address",
          "name": "",
          "type": "address"
        }
      ],
      "stateMutability": "view",
      "type": "function"
    },
    {
      "inputs": [
        {
          "internalType": "uint256",
          "name": "tokenId",
          "type": "uint256"
        }
      ],
      "name": "ownerOf",
      "outputs": [
        {
          "internalType": "address",
          "name": "",
          "type": "address"
        }
      ],
      "stateMutability": "view",
      "type": "function"
    },
    {
      "inputs": [],
      "name": "price",
      "outputs": [
        {
          "internalType": "uint256",
          "name": "",
          "type": "uint256"
        }
      ],
      "stateMutability": "view",
      "type": "function"
    },
    {
      "inputs": [],
      "name": "renounceOwnership",
      "outputs": [],
      "stateMutability": "nonpayable",
      "type": "function"
    },
    {
      "inputs": [],
      "name": "royal",
      "outputs": [
        {
          "internalType": "uint96",
          "name": "",
          "type": "uint96"
        }
      ],
      "stateMutability": "view",
      "type": "function"
    },
    {
      "inputs": [
        {
          "internalType": "uint256",
          "name": "_tokenId",
          "type": "uint256"
        },
        {
          "internalType": "uint256",
          "name": "_salePrice",
          "type": "uint256"
        }
      ],
      "name": "royaltyInfo",
      "outputs": [
        {
          "internalType": "address",
          "name": "",
          "type": "address"
        },
        {
          "internalType": "uint256",
          "name": "",
          "type": "uint256"
        }
      ],
      "stateMutability": "view",
      "type": "function"
    },
    {
      "inputs": [
        {
          "internalType": "address",
          "name": "to",
          "type": "address"
        },
        {
          "internalType": "string",
          "name": "uri",
          "type": "string"
        }
      ],
      "name": "safeMint",
      "outputs": [],
      "stateMutability": "nonpayable",
      "type": "function"
    },
    {
      "inputs": [
        {
          "internalType": "address",
          "name": "from",
          "type": "address"
        },
        {
          "internalType": "address",
          "name": "to",
          "type": "address"
        },
        {
          "internalType": "uint256",
          "name": "tokenId",
          "type": "uint256"
        }
      ],
      "name": "safeTransferFrom",
      "outputs": [],
      "stateMutability": "nonpayable",
      "type": "function"
    },
    {
      "inputs": [
        {
          "internalType": "address",
          "name": "from",
          "type": "address"
        },
        {
          "internalType": "address",
          "name": "to",
          "type": "address"
        },
        {
          "internalType": "uint256",
          "name": "tokenId",
          "type": "uint256"
        },
        {
          "internalType": "bytes",
          "name": "data",
          "type": "bytes"
        }
      ],
      "name": "safeTransferFrom",
      "outputs": [],
      "stateMutability": "nonpayable",
      "type": "function"
    },
    {
      "inputs": [],
      "name": "seasonStart",
      "outputs": [],
      "stateMutability": "nonpayable",
      "type": "function"
    },
    {
      "inputs": [
        {
          "internalType": "address",
          "name": "operator",
          "type": "address"
        },
        {
          "internalType": "bool",
          "name": "approved",
          "type": "bool"
        }
      ],
      "name": "setApprovalForAll",
      "outputs": [],
      "stateMutability": "nonpayable",
      "type": "function"
    },
    {
      "inputs": [
        {
          "internalType": "bytes4",
          "name": "interfaceId",
          "type": "bytes4"
        }
      ],
      "name": "supportsInterface",
      "outputs": [
        {
          "internalType": "bool",
          "name": "",
          "type": "bool"
        }
      ],
      "stateMutability": "view",
      "type": "function"
    },
    {
      "inputs": [],
      "name": "symbol",
      "outputs": [
        {
          "internalType": "string",
          "name": "",
          "type": "string"
        }
      ],
      "stateMutability": "view",
      "type": "function"
    },
    {
      "inputs": [
        {
          "internalType": "uint256",
          "name": "index",
          "type": "uint256"
        }
      ],
      "name": "tokenByIndex",
      "outputs": [
        {
          "internalType": "uint256",
          "name": "",
          "type": "uint256"
        }
      ],
      "stateMutability": "view",
      "type": "function"
    },
    {
      "inputs": [
        {
          "internalType": "address",
          "name": "owner",
          "type": "address"
        },
        {
          "internalType": "uint256",
          "name": "index",
          "type": "uint256"
        }
      ],
      "name": "tokenOfOwnerByIndex",
      "outputs": [
        {
          "internalType": "uint256",
          "name": "",
          "type": "uint256"
        }
      ],
      "stateMutability": "view",
      "type": "function"
    },
    {
      "inputs": [
        {
          "internalType": "uint256",
          "name": "tokenId",
          "type": "uint256"
        }
      ],
      "name": "tokenURI",
      "outputs": [
        {
          "internalType": "string",
          "name": "",
          "type": "string"
        }
      ],
      "stateMutability": "view",
      "type": "function"
    },
    {
      "inputs": [],
      "name": "totalSupply",
      "outputs": [
        {
          "internalType": "uint256",
          "name": "",
          "type": "uint256"
        }
      ],
      "stateMutability": "view",
      "type": "function"
    },
    {
      "inputs": [
        {
          "internalType": "address",
          "name": "from",
          "type": "address"
        },
        {
          "internalType": "address",
          "name": "to",
          "type": "address"
        },
        {
          "internalType": "uint256",
          "name": "tokenId",
          "type": "uint256"
        }
      ],
      "name": "transferFrom",
      "outputs": [],
      "stateMutability": "nonpayable",
      "type": "function"
    },
    {
      "inputs": [
        {
          "internalType": "address",
          "name": "newOwner",
          "type": "address"
        }
      ],
      "name": "transferOwnership",
      "outputs": [],
      "stateMutability": "nonpayable",
      "type": "function"
    },
    {
      "inputs": [],
      "name": "withdrawMoneyTo",
      "outputs": [],
      "stateMutability": "nonpayable",
      "type": "function"
    }
  ],
  "bytecode": "0x60806040526019600e55662386f26fc10000600f55600a601060006101000a8154816bffffffffffffffffffffffff02191690836bffffffffffffffffffffffff16021790555060006010600c6101000a81548160ff0219169083151502179055507314dc79964da2c08b23698b3d3cc7ca32193d9955601260006101000a81548173ffffffffffffffffffffffffffffffffffffffff021916908373ffffffffffffffffffffffffffffffffffffffff160217905550348015620000c357600080fd5b506040518060400160405280601081526020017f5468655f476f6f7365735f4765657365000000000000000000000000000000008152506040518060400160405280600381526020017f544747000000000000000000000000000000000000000000000000000000000081525081600090805190602001906200014892919062000419565b5080600190805190602001906200016192919062000419565b50505062000184620001786200019d60201b60201c565b620001a560201b60201c565b620001973360646200026b60201b60201c565b62000649565b600033905090565b6000600d60009054906101000a900473ffffffffffffffffffffffffffffffffffffffff16905081600d60006101000a81548173ffffffffffffffffffffffffffffffffffffffff021916908373ffffffffffffffffffffffffffffffffffffffff1602179055508173ffffffffffffffffffffffffffffffffffffffff168173ffffffffffffffffffffffffffffffffffffffff167f8be0079c531659141344cd1fd0a4f28419497f9722a3daafe3b4186f6b6457e060405160405180910390a35050565b6200027b6200040f60201b60201c565b6bffffffffffffffffffffffff16816bffffffffffffffffffffffff161115620002dc576040517f08c379a0000000000000000000000000000000000000000000000000000000008152600401620002d39062000517565b60405180910390fd5b600073ffffffffffffffffffffffffffffffffffffffff168273ffffffffffffffffffffffffffffffffffffffff1614156200034f576040517f08c379a0000000000000000000000000000000000000000000000000000000008152600401620003469062000539565b60405180910390fd5b60405180604001604052808373ffffffffffffffffffffffffffffffffffffffff168152602001826bffffffffffffffffffffffff16815250600b60008201518160000160006101000a81548173ffffffffffffffffffffffffffffffffffffffff021916908373ffffffffffffffffffffffffffffffffffffffff16021790555060208201518160000160146101000a8154816bffffffffffffffffffffffff02191690836bffffffffffffffffffffffff1602179055509050505050565b6000612710905090565b82805462000427906200056c565b90600052602060002090601f0160209004810192826200044b576000855562000497565b82601f106200046657805160ff191683800117855562000497565b8280016001018555821562000497579182015b828111156200049657825182559160200191906001019062000479565b5b509050620004a69190620004aa565b5090565b5b80821115620004c5576000816000905550600101620004ab565b5090565b6000620004d8602a836200055b565b9150620004e582620005d1565b604082019050919050565b6000620004ff6019836200055b565b91506200050c8262000620565b602082019050919050565b600060208201905081810360008301526200053281620004c9565b9050919050565b600060208201905081810360008301526200055481620004f0565b9050919050565b600082825260208201905092915050565b600060028204905060018216806200058557607f821691505b602082108114156200059c576200059b620005a2565b5b50919050565b7f4e487b7100000000000000000000000000000000000000000000000000000000600052602260045260246000fd5b7f455243323938313a20726f79616c7479206665652077696c6c2065786365656460008201527f2073616c65507269636500000000000000000000000000000000000000000000602082015250565b7f455243323938313a20696e76616c696420726563656976657200000000000000600082015250565b614a0980620006596000396000f3fe6080604052600436106101ee5760003560e01c80634f6ccce71161010d578063a22cb465116100a0578063d204c45e1161006f578063d204c45e14610700578063db980b5d14610729578063e52aa24e14610759578063e985e9c514610789578063f2fde38b146107c6576101ee565b8063a22cb4651461065a578063b88d4fde14610683578063bafa0946146106ac578063c87b56dd146106c3576101ee565b80637f885cd5116100dc5780637f885cd5146105ae5780638da5cb5b146105d957806395d89b4114610604578063a035b1fe1461062f576101ee565b80634f6ccce7146104e05780636352211e1461051d57806370a082311461055a578063715018a614610597576101ee565b806318160ddd116101855780632f36aae4116101545780632f36aae4146104265780632f745c591461043d57806342842e0e1461047a5780634f5539c0146104a3576101ee565b806318160ddd1461036b57806323b872dd146103965780632890e0d7146103bf5780632a55205a146103e8576101ee565b8063086f708a116101c1578063086f708a146102c3578063095ea7b3146102da57806312065fe0146103035780631328e2a81461032e576101ee565b806301ffc9a7146101f357806306fdde03146102305780630780f9f41461025b578063081812fc14610286575b600080fd5b3480156101ff57600080fd5b5061021a60048036038101906102159190613767565b6107ef565b6040516102279190613cdc565b60405180910390f35b34801561023c57600080fd5b50610245610801565b6040516102529190613cf7565b60405180910390f35b34801561026757600080fd5b50610270610893565b60405161027d9190613ff4565b60405180910390f35b34801561029257600080fd5b506102ad60048036038101906102a891906137b9565b6108b1565b6040516102ba9190613c4c565b60405180910390f35b3480156102cf57600080fd5b506102d86108f7565b005b3480156102e657600080fd5b5061030160048036038101906102fc919061372b565b610969565b005b34801561030f57600080fd5b50610318610a81565b6040516103259190613fd9565b60405180910390f35b34801561033a57600080fd5b506103556004803603810190610350919061381e565b610a89565b6040516103629190613fd9565b60405180910390f35b34801561037757600080fd5b50610380610ada565b60405161038d9190613fd9565b60405180910390f35b3480156103a257600080fd5b506103bd60048036038101906103b891906135d1565b610ae7565b005b3480156103cb57600080fd5b506103e660048036038101906103e191906137b9565b610b47565b005b3480156103f457600080fd5b5061040f600480360381019061040a91906137e2565b610b53565b60405161041d929190613cb3565b60405180910390f35b34801561043257600080fd5b5061043b610d3e565b005b34801561044957600080fd5b50610464600480360381019061045f919061372b565b610d9c565b6040516104719190613fd9565b60405180910390f35b34801561048657600080fd5b506104a1600480360381019061049c91906135d1565b610e41565b005b3480156104af57600080fd5b506104ca60048036038101906104c591906137b9565b610e61565b6040516104d79190613fd9565b60405180910390f35b3480156104ec57600080fd5b50610507600480360381019061050291906137b9565b610e7c565b6040516105149190613fd9565b60405180910390f35b34801561052957600080fd5b50610544600480360381019061053f91906137b9565b610f13565b6040516105519190613c4c565b60405180910390f35b34801561056657600080fd5b50610581600480360381019061057c919061356c565b610f9a565b60405161058e9190613fd9565b60405180910390f35b3480156105a357600080fd5b506105ac611052565b005b3480156105ba57600080fd5b506105c3611066565b6040516105d09190613cdc565b60405180910390f35b3480156105e557600080fd5b506105ee611085565b6040516105fb9190613c4c565b60405180910390f35b34801561061057600080fd5b506106196110af565b6040516106269190613cf7565b60405180910390f35b34801561063b57600080fd5b50610644611141565b6040516106519190613fd9565b60405180910390f35b34801561066657600080fd5b50610681600480360381019061067c919061369b565b611147565b005b34801561068f57600080fd5b506106aa60048036038101906106a59190613620565b61115d565b005b3480156106b857600080fd5b506106c16111bf565b005b3480156106cf57600080fd5b506106ea60048036038101906106e591906137b9565b6111e4565b6040516106f79190613cf7565b60405180910390f35b34801561070c57600080fd5b50610727600480360381019061072291906136d7565b6111f6565b005b610743600480360381019061073e91906136d7565b611274565b6040516107509190613fd9565b60405180910390f35b610773600480360381019061076e91906136d7565b6113aa565b6040516107809190613fd9565b60405180910390f35b34801561079557600080fd5b506107b060048036038101906107ab9190613595565b61140a565b6040516107bd9190613cdc565b60405180910390f35b3480156107d257600080fd5b506107ed60048036038101906107e8919061356c565b61149e565b005b60006107fa82611522565b9050919050565b606060008054610810906142bc565b80601f016020809104026020016040519081016040528092919081815260200182805461083c906142bc565b80156108895780601f1061085e57610100808354040283529160200191610889565b820191906000526020600020905b81548152906001019060200180831161086c57829003601f168201915b5050505050905090565b601060009054906101000a90046bffffffffffffffffffffffff1681565b60006108bc8261159c565b6004600083815260200190815260200160002060009054906101000a900473ffffffffffffffffffffffffffffffffffffffff169050919050565b601260009054906101000a900473ffffffffffffffffffffffffffffffffffffffff1673ffffffffffffffffffffffffffffffffffffffff166108fc61093b610a81565b9081150290604051600060405180830381858888f19350505050158015610966573d6000803e3d6000fd5b50565b600061097482610f13565b90508073ffffffffffffffffffffffffffffffffffffffff168373ffffffffffffffffffffffffffffffffffffffff1614156109e5576040517f08c379a00000000000000000000000000000000000000000000000000000000081526004016109dc90613f19565b60405180910390fd5b8073ffffffffffffffffffffffffffffffffffffffff16610a046115e7565b73ffffffffffffffffffffffffffffffffffffffff161480610a335750610a3281610a2d6115e7565b61140a565b5b610a72576040517f08c379a0000000000000000000000000000000000000000000000000000000008152600401610a6990613f39565b60405180910390fd5b610a7c83836115ef565b505050565b600047905090565b6000610a936116a8565b81601060006101000a8154816bffffffffffffffffffffffff02191690836bffffffffffffffffffffffff160217905550816bffffffffffffffffffffffff169050919050565b6000600880549050905090565b610af8610af26115e7565b82611726565b610b37576040517f08c379a0000000000000000000000000000000000000000000000000000000008152600401610b2e90613d39565b60405180910390fd5b610b428383836117bb565b505050565b610b5081611ab5565b50565b6000806000600c60008681526020019081526020016000206040518060400160405290816000820160009054906101000a900473ffffffffffffffffffffffffffffffffffffffff1673ffffffffffffffffffffffffffffffffffffffff1673ffffffffffffffffffffffffffffffffffffffff1681526020016000820160149054906101000a90046bffffffffffffffffffffffff166bffffffffffffffffffffffff166bffffffffffffffffffffffff16815250509050600073ffffffffffffffffffffffffffffffffffffffff16816000015173ffffffffffffffffffffffffffffffffffffffff161415610ce957600b6040518060400160405290816000820160009054906101000a900473ffffffffffffffffffffffffffffffffffffffff1673ffffffffffffffffffffffffffffffffffffffff1673ffffffffffffffffffffffffffffffffffffffff1681526020016000820160149054906101000a90046bffffffffffffffffffffffff166bffffffffffffffffffffffff166bffffffffffffffffffffffff168152505090505b6000610cf3611aca565b6bffffffffffffffffffffffff1682602001516bffffffffffffffffffffffff1686610d1f9190614160565b610d29919061412f565b90508160000151819350935050509250929050565b6002610d4a6011611ad4565b1415610d6c5760006010600c6101000a81548160ff0219169083151502179055505b6004610d786011611ad4565b1415610d9a5760006010600c6101000a81548160ff0219169083151502179055505b565b6000610da783610f9a565b8210610de8576040517f08c379a0000000000000000000000000000000000000000000000000000000008152600401610ddf90613d59565b60405180910390fd5b600660008473ffffffffffffffffffffffffffffffffffffffff1673ffffffffffffffffffffffffffffffffffffffff168152602001908152602001600020600083815260200190815260200160002054905092915050565b610e5c8383836040518060200160405280600081525061115d565b505050565b6000610e6b6116a8565b81600f81905550600f549050919050565b6000610e86610ada565b8210610ec7576040517f08c379a0000000000000000000000000000000000000000000000000000000008152600401610ebe90613f79565b60405180910390fd5b60088281548110610f01577f4e487b7100000000000000000000000000000000000000000000000000000000600052603260045260246000fd5b90600052602060002001549050919050565b600080610f1f83611ae2565b9050600073ffffffffffffffffffffffffffffffffffffffff168173ffffffffffffffffffffffffffffffffffffffff161415610f91576040517f08c379a0000000000000000000000000000000000000000000000000000000008152600401610f8890613ef9565b60405180910390fd5b80915050919050565b60008073ffffffffffffffffffffffffffffffffffffffff168273ffffffffffffffffffffffffffffffffffffffff16141561100b576040517f08c379a000000000000000000000000000000000000000000000000000000000815260040161100290613e79565b60405180910390fd5b600360008373ffffffffffffffffffffffffffffffffffffffff1673ffffffffffffffffffffffffffffffffffffffff168152602001908152602001600020549050919050565b61105a6116a8565b6110646000611b1f565b565b60006110706116a8565b6010600c9054906101000a900460ff16905090565b6000600d60009054906101000a900473ffffffffffffffffffffffffffffffffffffffff16905090565b6060600180546110be906142bc565b80601f01602080910402602001604051908101604052809291908181526020018280546110ea906142bc565b80156111375780601f1061110c57610100808354040283529160200191611137565b820191906000526020600020905b81548152906001019060200180831161111a57829003601f168201915b5050505050905090565b600f5481565b6111596111526115e7565b8383611be5565b5050565b61116e6111686115e7565b83611726565b6111ad576040517f08c379a00000000000000000000000000000000000000000000000000000000081526004016111a490613d39565b60405180910390fd5b6111b984848484611d52565b50505050565b6111c76116a8565b60016010600c6101000a81548160ff021916908315150217905550565b60606111ef82611dae565b9050919050565b6111fe6116a8565b600061120a6011611ad4565b9050600e54811115611251576040517f08c379a000000000000000000000000000000000000000000000000000000000815260040161124890613d99565b60405180910390fd5b61125b6011611ec1565b6112658382611ed7565b61126f8183611ef5565b505050565b6000806112816011611ad4565b9050600f543410156112c8576040517f08c379a00000000000000000000000000000000000000000000000000000000081526004016112bf90613e19565b60405180910390fd5b600e5481111561130d576040517f08c379a000000000000000000000000000000000000000000000000000000000815260040161130490613d99565b60405180910390fd5b600115156010600c9054906101000a900460ff16151514611363576040517f08c379a000000000000000000000000000000000000000000000000000000000815260040161135a90613d19565b60405180910390fd5b61136d6011611ec1565b6113778482611ed7565b6113818184611ef5565b6113896108f7565b611391610d3e565b600061139d6011611ad4565b9050809250505092915050565b6000806113b78484611274565b905061140081601260009054906101000a900473ffffffffffffffffffffffffffffffffffffffff16601060009054906101000a90046bffffffffffffffffffffffff16611f69565b8091505092915050565b6000600560008473ffffffffffffffffffffffffffffffffffffffff1673ffffffffffffffffffffffffffffffffffffffff16815260200190815260200160002060008373ffffffffffffffffffffffffffffffffffffffff1673ffffffffffffffffffffffffffffffffffffffff16815260200190815260200160002060009054906101000a900460ff16905092915050565b6114a66116a8565b600073ffffffffffffffffffffffffffffffffffffffff168173ffffffffffffffffffffffffffffffffffffffff161415611516576040517f08c379a000000000000000000000000000000000000000000000000000000000815260040161150d90613db9565b60405180910390fd5b61151f81611b1f565b50565b60007f2a55205a000000000000000000000000000000000000000000000000000000007bffffffffffffffffffffffffffffffffffffffffffffffffffffffff1916827bffffffffffffffffffffffffffffffffffffffffffffffffffffffff19161480611595575061159482612111565b5b9050919050565b6115a58161218b565b6115e4576040517f08c379a00000000000000000000000000000000000000000000000000000000081526004016115db90613ef9565b60405180910390fd5b50565b600033905090565b816004600083815260200190815260200160002060006101000a81548173ffffffffffffffffffffffffffffffffffffffff021916908373ffffffffffffffffffffffffffffffffffffffff160217905550808273ffffffffffffffffffffffffffffffffffffffff1661166283610f13565b73ffffffffffffffffffffffffffffffffffffffff167f8c5be1e5ebec7d5bd14f71427d1e84f3dd0314c0f7b2291e5b200ac8c7c3b92560405160405180910390a45050565b6116b06115e7565b73ffffffffffffffffffffffffffffffffffffffff166116ce611085565b73ffffffffffffffffffffffffffffffffffffffff1614611724576040517f08c379a000000000000000000000000000000000000000000000000000000000815260040161171b90613ed9565b60405180910390fd5b565b60008061173283610f13565b90508073ffffffffffffffffffffffffffffffffffffffff168473ffffffffffffffffffffffffffffffffffffffff1614806117745750611773818561140a565b5b806117b257508373ffffffffffffffffffffffffffffffffffffffff1661179a846108b1565b73ffffffffffffffffffffffffffffffffffffffff16145b91505092915050565b8273ffffffffffffffffffffffffffffffffffffffff166117db82610f13565b73ffffffffffffffffffffffffffffffffffffffff1614611831576040517f08c379a000000000000000000000000000000000000000000000000000000000815260040161182890613dd9565b60405180910390fd5b600073ffffffffffffffffffffffffffffffffffffffff168273ffffffffffffffffffffffffffffffffffffffff1614156118a1576040517f08c379a000000000000000000000000000000000000000000000000000000000815260040161189890613e39565b60405180910390fd5b6118ae83838360016121cc565b8273ffffffffffffffffffffffffffffffffffffffff166118ce82610f13565b73ffffffffffffffffffffffffffffffffffffffff1614611924576040517f08c379a000000000000000000000000000000000000000000000000000000000815260040161191b90613dd9565b60405180910390fd5b6004600082815260200190815260200160002060006101000a81549073ffffffffffffffffffffffffffffffffffffffff02191690556001600360008573ffffffffffffffffffffffffffffffffffffffff1673ffffffffffffffffffffffffffffffffffffffff168152602001908152602001600020600082825403925050819055506001600360008473ffffffffffffffffffffffffffffffffffffffff1673ffffffffffffffffffffffffffffffffffffffff16815260200190815260200160002060008282540192505081905550816002600083815260200190815260200160002060006101000a81548173ffffffffffffffffffffffffffffffffffffffff021916908373ffffffffffffffffffffffffffffffffffffffff160217905550808273ffffffffffffffffffffffffffffffffffffffff168473ffffffffffffffffffffffffffffffffffffffff167fddf252ad1be2c89b69c2b068fc378daa952ba7f163c4a11628f55a4df523b3ef60405160405180910390a4611ab083838360016121de565b505050565b611abe816121e4565b611ac781612237565b50565b6000612710905090565b600081600001549050919050565b60006002600083815260200190815260200160002060009054906101000a900473ffffffffffffffffffffffffffffffffffffffff169050919050565b6000600d60009054906101000a900473ffffffffffffffffffffffffffffffffffffffff16905081600d60006101000a81548173ffffffffffffffffffffffffffffffffffffffff021916908373ffffffffffffffffffffffffffffffffffffffff1602179055508173ffffffffffffffffffffffffffffffffffffffff168173ffffffffffffffffffffffffffffffffffffffff167f8be0079c531659141344cd1fd0a4f28419497f9722a3daafe3b4186f6b6457e060405160405180910390a35050565b8173ffffffffffffffffffffffffffffffffffffffff168373ffffffffffffffffffffffffffffffffffffffff161415611c54576040517f08c379a0000000000000000000000000000000000000000000000000000000008152600401611c4b90613e59565b60405180910390fd5b80600560008573ffffffffffffffffffffffffffffffffffffffff1673ffffffffffffffffffffffffffffffffffffffff16815260200190815260200160002060008473ffffffffffffffffffffffffffffffffffffffff1673ffffffffffffffffffffffffffffffffffffffff16815260200190815260200160002060006101000a81548160ff0219169083151502179055508173ffffffffffffffffffffffffffffffffffffffff168373ffffffffffffffffffffffffffffffffffffffff167f17307eab39ab6107e8899845ad3d59bd9653f200f220920489ca2b5937696c3183604051611d459190613cdc565b60405180910390a3505050565b611d5d8484846117bb565b611d6984848484612296565b611da8576040517f08c379a0000000000000000000000000000000000000000000000000000000008152600401611d9f90613d79565b60405180910390fd5b50505050565b6060611db98261159c565b6000600a60008481526020019081526020016000208054611dd9906142bc565b80601f0160208091040260200160405190810160405280929190818152602001828054611e05906142bc565b8015611e525780601f10611e2757610100808354040283529160200191611e52565b820191906000526020600020905b815481529060010190602001808311611e3557829003601f168201915b505050505090506000611e6361242d565b9050600081511415611e79578192505050611ebc565b600082511115611eae578082604051602001611e96929190613c28565b60405160208183030381529060405292505050611ebc565b611eb784612444565b925050505b919050565b6001816000016000828254019250508190555050565b611ef18282604051806020016040528060008152506124ac565b5050565b611efe8261218b565b611f3d576040517f08c379a0000000000000000000000000000000000000000000000000000000008152600401611f3490613e99565b60405180910390fd5b80600a60008481526020019081526020016000209080519060200190611f6492919061333b565b505050565b611f71611aca565b6bffffffffffffffffffffffff16816bffffffffffffffffffffffff161115611fcf576040517f08c379a0000000000000000000000000000000000000000000000000000000008152600401611fc690613fb9565b60405180910390fd5b600073ffffffffffffffffffffffffffffffffffffffff168273ffffffffffffffffffffffffffffffffffffffff16141561203f576040517f08c379a000000000000000000000000000000000000000000000000000000000815260040161203690613f59565b60405180910390fd5b60405180604001604052808373ffffffffffffffffffffffffffffffffffffffff168152602001826bffffffffffffffffffffffff16815250600c600085815260200190815260200160002060008201518160000160006101000a81548173ffffffffffffffffffffffffffffffffffffffff021916908373ffffffffffffffffffffffffffffffffffffffff16021790555060208201518160000160146101000a8154816bffffffffffffffffffffffff02191690836bffffffffffffffffffffffff160217905550905050505050565b60007f780e9d63000000000000000000000000000000000000000000000000000000007bffffffffffffffffffffffffffffffffffffffffffffffffffffffff1916827bffffffffffffffffffffffffffffffffffffffffffffffffffffffff19161480612184575061218382612507565b5b9050919050565b60008073ffffffffffffffffffffffffffffffffffffffff166121ad83611ae2565b73ffffffffffffffffffffffffffffffffffffffff1614159050919050565b6121d8848484846125e9565b50505050565b50505050565b6121ed81612749565b6000600a6000838152602001908152602001600020805461220d906142bc565b90501461223457600a6000828152602001908152602001600020600061223391906133c1565b5b50565b600c6000828152602001908152602001600020600080820160006101000a81549073ffffffffffffffffffffffffffffffffffffffff02191690556000820160146101000a8154906bffffffffffffffffffffffff0219169055505050565b60006122b78473ffffffffffffffffffffffffffffffffffffffff16612897565b15612420578373ffffffffffffffffffffffffffffffffffffffff1663150b7a026122e06115e7565b8786866040518563ffffffff1660e01b81526004016123029493929190613c67565b602060405180830381600087803b15801561231c57600080fd5b505af192505050801561234d57506040513d601f19601f8201168201806040525081019061234a9190613790565b60015b6123d0573d806000811461237d576040519150601f19603f3d011682016040523d82523d6000602084013e612382565b606091505b506000815114156123c8576040517f08c379a00000000000000000000000000000000000000000000000000000000081526004016123bf90613d79565b60405180910390fd5b805181602001fd5b63150b7a0260e01b7bffffffffffffffffffffffffffffffffffffffffffffffffffffffff1916817bffffffffffffffffffffffffffffffffffffffffffffffffffffffff191614915050612425565b600190505b949350505050565b606060405180602001604052806000815250905090565b606061244f8261159c565b600061245961242d565b9050600081511161247957604051806020016040528060008152506124a4565b80612483846128ba565b604051602001612494929190613c28565b6040516020818303038152906040525b915050919050565b6124b683836129de565b6124c36000848484612296565b612502576040517f08c379a00000000000000000000000000000000000000000000000000000000081526004016124f990613d79565b60405180910390fd5b505050565b60007f80ac58cd000000000000000000000000000000000000000000000000000000007bffffffffffffffffffffffffffffffffffffffffffffffffffffffff1916827bffffffffffffffffffffffffffffffffffffffffffffffffffffffff191614806125d257507f5b5e139f000000000000000000000000000000000000000000000000000000007bffffffffffffffffffffffffffffffffffffffffffffffffffffffff1916827bffffffffffffffffffffffffffffffffffffffffffffffffffffffff1916145b806125e257506125e182612bfc565b5b9050919050565b6125f584848484612c66565b6001811115612639576040517f08c379a000000000000000000000000000000000000000000000000000000000815260040161263090613f99565b60405180910390fd5b6000829050600073ffffffffffffffffffffffffffffffffffffffff168573ffffffffffffffffffffffffffffffffffffffff1614156126815761267c81612d8c565b6126c0565b8373ffffffffffffffffffffffffffffffffffffffff168573ffffffffffffffffffffffffffffffffffffffff16146126bf576126be8582612dd5565b5b5b600073ffffffffffffffffffffffffffffffffffffffff168473ffffffffffffffffffffffffffffffffffffffff161415612703576126fe81612f42565b612742565b8473ffffffffffffffffffffffffffffffffffffffff168473ffffffffffffffffffffffffffffffffffffffff1614612741576127408482613085565b5b5b5050505050565b600061275482610f13565b90506127648160008460016121cc565b61276d82610f13565b90506004600083815260200190815260200160002060006101000a81549073ffffffffffffffffffffffffffffffffffffffff02191690556001600360008373ffffffffffffffffffffffffffffffffffffffff1673ffffffffffffffffffffffffffffffffffffffff168152602001908152602001600020600082825403925050819055506002600083815260200190815260200160002060006101000a81549073ffffffffffffffffffffffffffffffffffffffff021916905581600073ffffffffffffffffffffffffffffffffffffffff168273ffffffffffffffffffffffffffffffffffffffff167fddf252ad1be2c89b69c2b068fc378daa952ba7f163c4a11628f55a4df523b3ef60405160405180910390a46128938160008460016121de565b5050565b6000808273ffffffffffffffffffffffffffffffffffffffff163b119050919050565b6060600060016128c984613104565b01905060008167ffffffffffffffff81111561290e577f4e487b7100000000000000000000000000000000000000000000000000000000600052604160045260246000fd5b6040519080825280601f01601f1916602001820160405280156129405781602001600182028036833780820191505090505b509050600082602001820190505b6001156129d3578080600190039150507f3031323334353637383961626364656600000000000000000000000000000000600a86061a8153600a85816129bd577f4e487b7100000000000000000000000000000000000000000000000000000000600052601260045260246000fd5b04945060008514156129ce576129d3565b61294e565b819350505050919050565b600073ffffffffffffffffffffffffffffffffffffffff168273ffffffffffffffffffffffffffffffffffffffff161415612a4e576040517f08c379a0000000000000000000000000000000000000000000000000000000008152600401612a4590613eb9565b60405180910390fd5b612a578161218b565b15612a97576040517f08c379a0000000000000000000000000000000000000000000000000000000008152600401612a8e90613df9565b60405180910390fd5b612aa56000838360016121cc565b612aae8161218b565b15612aee576040517f08c379a0000000000000000000000000000000000000000000000000000000008152600401612ae590613df9565b60405180910390fd5b6001600360008473ffffffffffffffffffffffffffffffffffffffff1673ffffffffffffffffffffffffffffffffffffffff16815260200190815260200160002060008282540192505081905550816002600083815260200190815260200160002060006101000a81548173ffffffffffffffffffffffffffffffffffffffff021916908373ffffffffffffffffffffffffffffffffffffffff160217905550808273ffffffffffffffffffffffffffffffffffffffff16600073ffffffffffffffffffffffffffffffffffffffff167fddf252ad1be2c89b69c2b068fc378daa952ba7f163c4a11628f55a4df523b3ef60405160405180910390a4612bf86000838360016121de565b5050565b60007f01ffc9a7000000000000000000000000000000000000000000000000000000007bffffffffffffffffffffffffffffffffffffffffffffffffffffffff1916827bffffffffffffffffffffffffffffffffffffffffffffffffffffffff1916149050919050565b6001811115612d8657600073ffffffffffffffffffffffffffffffffffffffff168473ffffffffffffffffffffffffffffffffffffffff1614612cfa5780600360008673ffffffffffffffffffffffffffffffffffffffff1673ffffffffffffffffffffffffffffffffffffffff1681526020019081526020016000206000828254612cf291906141ba565b925050819055505b600073ffffffffffffffffffffffffffffffffffffffff168373ffffffffffffffffffffffffffffffffffffffff1614612d855780600360008573ffffffffffffffffffffffffffffffffffffffff1673ffffffffffffffffffffffffffffffffffffffff1681526020019081526020016000206000828254612d7d91906140d9565b925050819055505b5b50505050565b6008805490506009600083815260200190815260200160002081905550600881908060018154018082558091505060019003906000526020600020016000909190919091505550565b60006001612de284610f9a565b612dec91906141ba565b9050600060076000848152602001908152602001600020549050818114612ed1576000600660008673ffffffffffffffffffffffffffffffffffffffff1673ffffffffffffffffffffffffffffffffffffffff168152602001908152602001600020600084815260200190815260200160002054905080600660008773ffffffffffffffffffffffffffffffffffffffff1673ffffffffffffffffffffffffffffffffffffffff168152602001908152602001600020600084815260200190815260200160002081905550816007600083815260200190815260200160002081905550505b6007600084815260200190815260200160002060009055600660008573ffffffffffffffffffffffffffffffffffffffff1673ffffffffffffffffffffffffffffffffffffffff16815260200190815260200160002060008381526020019081526020016000206000905550505050565b60006001600880549050612f5691906141ba565b9050600060096000848152602001908152602001600020549050600060088381548110612fac577f4e487b7100000000000000000000000000000000000000000000000000000000600052603260045260246000fd5b906000526020600020015490508060088381548110612ff4577f4e487b7100000000000000000000000000000000000000000000000000000000600052603260045260246000fd5b906000526020600020018190555081600960008381526020019081526020016000208190555060096000858152602001908152602001600020600090556008805480613069577f4e487b7100000000000000000000000000000000000000000000000000000000600052603160045260246000fd5b6001900381819060005260206000200160009055905550505050565b600061309083610f9a565b905081600660008573ffffffffffffffffffffffffffffffffffffffff1673ffffffffffffffffffffffffffffffffffffffff168152602001908152602001600020600083815260200190815260200160002081905550806007600084815260200190815260200160002081905550505050565b600080600090507a184f03e93ff9f4daa797ed6e38ed64bf6a1f0100000000000000008310613188577a184f03e93ff9f4daa797ed6e38ed64bf6a1f010000000000000000838161317e577f4e487b7100000000000000000000000000000000000000000000000000000000600052601260045260246000fd5b0492506040810190505b6d04ee2d6d415b85acef810000000083106131eb576d04ee2d6d415b85acef810000000083816131e1577f4e487b7100000000000000000000000000000000000000000000000000000000600052601260045260246000fd5b0492506020810190505b662386f26fc10000831061324057662386f26fc100008381613236577f4e487b7100000000000000000000000000000000000000000000000000000000600052601260045260246000fd5b0492506010810190505b6305f5e100831061328f576305f5e1008381613285577f4e487b7100000000000000000000000000000000000000000000000000000000600052601260045260246000fd5b0492506008810190505b61271083106132da5761271083816132d0577f4e487b7100000000000000000000000000000000000000000000000000000000600052601260045260246000fd5b0492506004810190505b606483106133235760648381613319577f4e487b7100000000000000000000000000000000000000000000000000000000600052601260045260246000fd5b0492506002810190505b600a8310613332576001810190505b80915050919050565b828054613347906142bc565b90600052602060002090601f01602090048101928261336957600085556133b0565b82601f1061338257805160ff19168380011785556133b0565b828001600101855582156133b0579182015b828111156133af578251825591602001919060010190613394565b5b5090506133bd9190613401565b5090565b5080546133cd906142bc565b6000825580601f106133df57506133fe565b601f0160209004906000526020600020908101906133fd9190613401565b5b50565b5b8082111561341a576000816000905550600101613402565b5090565b600061343161342c84614034565b61400f565b90508281526020810184848401111561344957600080fd5b61345484828561427a565b509392505050565b600061346f61346a84614065565b61400f565b90508281526020810184848401111561348757600080fd5b61349284828561427a565b509392505050565b6000813590506134a981614960565b92915050565b6000813590506134be81614977565b92915050565b6000813590506134d38161498e565b92915050565b6000815190506134e88161498e565b92915050565b600082601f8301126134ff57600080fd5b813561350f84826020860161341e565b91505092915050565b600082601f83011261352957600080fd5b813561353984826020860161345c565b91505092915050565b600081359050613551816149a5565b92915050565b600081359050613566816149bc565b92915050565b60006020828403121561357e57600080fd5b600061358c8482850161349a565b91505092915050565b600080604083850312156135a857600080fd5b60006135b68582860161349a565b92505060206135c78582860161349a565b9150509250929050565b6000806000606084860312156135e657600080fd5b60006135f48682870161349a565b93505060206136058682870161349a565b925050604061361686828701613542565b9150509250925092565b6000806000806080858703121561363657600080fd5b60006136448782880161349a565b94505060206136558782880161349a565b935050604061366687828801613542565b925050606085013567ffffffffffffffff81111561368357600080fd5b61368f878288016134ee565b91505092959194509250565b600080604083850312156136ae57600080fd5b60006136bc8582860161349a565b92505060206136cd858286016134af565b9150509250929050565b600080604083850312156136ea57600080fd5b60006136f88582860161349a565b925050602083013567ffffffffffffffff81111561371557600080fd5b61372185828601613518565b9150509250929050565b6000806040838503121561373e57600080fd5b600061374c8582860161349a565b925050602061375d85828601613542565b9150509250929050565b60006020828403121561377957600080fd5b6000613787848285016134c4565b91505092915050565b6000602082840312156137a257600080fd5b60006137b0848285016134d9565b91505092915050565b6000602082840312156137cb57600080fd5b60006137d984828501613542565b91505092915050565b600080604083850312156137f557600080fd5b600061380385828601613542565b925050602061381485828601613542565b9150509250929050565b60006020828403121561383057600080fd5b600061383e84828501613557565b91505092915050565b613850816141ee565b82525050565b61385f81614200565b82525050565b600061387082614096565b61387a81856140ac565b935061388a818560208601614289565b613893816143db565b840191505092915050565b60006138a9826140a1565b6138b381856140bd565b93506138c3818560208601614289565b6138cc816143db565b840191505092915050565b60006138e2826140a1565b6138ec81856140ce565b93506138fc818560208601614289565b80840191505092915050565b6000613915600d836140bd565b9150613920826143ec565b602082019050919050565b6000613938602d836140bd565b915061394382614415565b604082019050919050565b600061395b602b836140bd565b915061396682614464565b604082019050919050565b600061397e6032836140bd565b9150613989826144b3565b604082019050919050565b60006139a16008836140bd565b91506139ac82614502565b602082019050919050565b60006139c46026836140bd565b91506139cf8261452b565b604082019050919050565b60006139e76025836140bd565b91506139f28261457a565b604082019050919050565b6000613a0a601c836140bd565b9150613a15826145c9565b602082019050919050565b6000613a2d6012836140bd565b9150613a38826145f2565b602082019050919050565b6000613a506024836140bd565b9150613a5b8261461b565b604082019050919050565b6000613a736019836140bd565b9150613a7e8261466a565b602082019050919050565b6000613a966029836140bd565b9150613aa182614693565b604082019050919050565b6000613ab9602e836140bd565b9150613ac4826146e2565b604082019050919050565b6000613adc6020836140bd565b9150613ae782614731565b602082019050919050565b6000613aff6020836140bd565b9150613b0a8261475a565b602082019050919050565b6000613b226018836140bd565b9150613b2d82614783565b602082019050919050565b6000613b456021836140bd565b9150613b50826147ac565b604082019050919050565b6000613b68603d836140bd565b9150613b73826147fb565b604082019050919050565b6000613b8b601b836140bd565b9150613b968261484a565b602082019050919050565b6000613bae602c836140bd565b9150613bb982614873565b604082019050919050565b6000613bd16035836140bd565b9150613bdc826148c2565b604082019050919050565b6000613bf4602a836140bd565b9150613bff82614911565b604082019050919050565b613c1381614258565b82525050565b613c2281614262565b82525050565b6000613c3482856138d7565b9150613c4082846138d7565b91508190509392505050565b6000602082019050613c616000830184613847565b92915050565b6000608082019050613c7c6000830187613847565b613c896020830186613847565b613c966040830185613c0a565b8181036060830152613ca88184613865565b905095945050505050565b6000604082019050613cc86000830185613847565b613cd56020830184613c0a565b9392505050565b6000602082019050613cf16000830184613856565b92915050565b60006020820190508181036000830152613d11818461389e565b905092915050565b60006020820190508181036000830152613d3281613908565b9050919050565b60006020820190508181036000830152613d528161392b565b9050919050565b60006020820190508181036000830152613d728161394e565b9050919050565b60006020820190508181036000830152613d9281613971565b9050919050565b60006020820190508181036000830152613db281613994565b9050919050565b60006020820190508181036000830152613dd2816139b7565b9050919050565b60006020820190508181036000830152613df2816139da565b9050919050565b60006020820190508181036000830152613e12816139fd565b9050919050565b60006020820190508181036000830152613e3281613a20565b9050919050565b60006020820190508181036000830152613e5281613a43565b9050919050565b60006020820190508181036000830152613e7281613a66565b9050919050565b60006020820190508181036000830152613e9281613a89565b9050919050565b60006020820190508181036000830152613eb281613aac565b9050919050565b60006020820190508181036000830152613ed281613acf565b9050919050565b60006020820190508181036000830152613ef281613af2565b9050919050565b60006020820190508181036000830152613f1281613b15565b9050919050565b60006020820190508181036000830152613f3281613b38565b9050919050565b60006020820190508181036000830152613f5281613b5b565b9050919050565b60006020820190508181036000830152613f7281613b7e565b9050919050565b60006020820190508181036000830152613f9281613ba1565b9050919050565b60006020820190508181036000830152613fb281613bc4565b9050919050565b60006020820190508181036000830152613fd281613be7565b9050919050565b6000602082019050613fee6000830184613c0a565b92915050565b60006020820190506140096000830184613c19565b92915050565b600061401961402a565b905061402582826142ee565b919050565b6000604051905090565b600067ffffffffffffffff82111561404f5761404e6143ac565b5b614058826143db565b9050602081019050919050565b600067ffffffffffffffff8211156140805761407f6143ac565b5b614089826143db565b9050602081019050919050565b600081519050919050565b600081519050919050565b600082825260208201905092915050565b600082825260208201905092915050565b600081905092915050565b60006140e482614258565b91506140ef83614258565b9250827fffffffffffffffffffffffffffffffffffffffffffffffffffffffffffffffff038211156141245761412361431f565b5b828201905092915050565b600061413a82614258565b915061414583614258565b9250826141555761415461434e565b5b828204905092915050565b600061416b82614258565b915061417683614258565b9250817fffffffffffffffffffffffffffffffffffffffffffffffffffffffffffffffff04831182151516156141af576141ae61431f565b5b828202905092915050565b60006141c582614258565b91506141d083614258565b9250828210156141e3576141e261431f565b5b828203905092915050565b60006141f982614238565b9050919050565b60008115159050919050565b60007fffffffff0000000000000000000000000000000000000000000000000000000082169050919050565b600073ffffffffffffffffffffffffffffffffffffffff82169050919050565b6000819050919050565b60006bffffffffffffffffffffffff82169050919050565b82818337600083830152505050565b60005b838110156142a757808201518184015260208101905061428c565b838111156142b6576000848401525b50505050565b600060028204905060018216806142d457607f821691505b602082108114156142e8576142e761437d565b5b50919050565b6142f7826143db565b810181811067ffffffffffffffff82111715614316576143156143ac565b5b80604052505050565b7f4e487b7100000000000000000000000000000000000000000000000000000000600052601160045260246000fd5b7f4e487b7100000000000000000000000000000000000000000000000000000000600052601260045260246000fd5b7f4e487b7100000000000000000000000000000000000000000000000000000000600052602260045260246000fd5b7f4e487b7100000000000000000000000000000000000000000000000000000000600052604160045260246000fd5b6000601f19601f8301169050919050565b7f6f7574206f6620736561736f6e00000000000000000000000000000000000000600082015250565b7f4552433732313a2063616c6c6572206973206e6f7420746f6b656e206f776e6560008201527f72206f7220617070726f76656400000000000000000000000000000000000000602082015250565b7f455243373231456e756d657261626c653a206f776e657220696e646578206f7560008201527f74206f6620626f756e6473000000000000000000000000000000000000000000602082015250565b7f4552433732313a207472616e7366657220746f206e6f6e20455243373231526560008201527f63656976657220696d706c656d656e7465720000000000000000000000000000602082015250565b7f536f6c64204f7574000000000000000000000000000000000000000000000000600082015250565b7f4f776e61626c653a206e6577206f776e657220697320746865207a65726f206160008201527f6464726573730000000000000000000000000000000000000000000000000000602082015250565b7f4552433732313a207472616e736665722066726f6d20696e636f72726563742060008201527f6f776e6572000000000000000000000000000000000000000000000000000000602082015250565b7f4552433732313a20746f6b656e20616c7265616479206d696e74656400000000600082015250565b7f496e73756666696369656e742046756e64730000000000000000000000000000600082015250565b7f4552433732313a207472616e7366657220746f20746865207a65726f2061646460008201527f7265737300000000000000000000000000000000000000000000000000000000602082015250565b7f4552433732313a20617070726f766520746f2063616c6c657200000000000000600082015250565b7f4552433732313a2061646472657373207a65726f206973206e6f74206120766160008201527f6c6964206f776e65720000000000000000000000000000000000000000000000602082015250565b7f45524337323155524953746f726167653a2055524920736574206f66206e6f6e60008201527f6578697374656e7420746f6b656e000000000000000000000000000000000000602082015250565b7f4552433732313a206d696e7420746f20746865207a65726f2061646472657373600082015250565b7f4f776e61626c653a2063616c6c6572206973206e6f7420746865206f776e6572600082015250565b7f4552433732313a20696e76616c696420746f6b656e2049440000000000000000600082015250565b7f4552433732313a20617070726f76616c20746f2063757272656e74206f776e6560008201527f7200000000000000000000000000000000000000000000000000000000000000602082015250565b7f4552433732313a20617070726f76652063616c6c6572206973206e6f7420746f60008201527f6b656e206f776e6572206f7220617070726f76656420666f7220616c6c000000602082015250565b7f455243323938313a20496e76616c696420706172616d65746572730000000000600082015250565b7f455243373231456e756d657261626c653a20676c6f62616c20696e646578206f60008201527f7574206f6620626f756e64730000000000000000000000000000000000000000602082015250565b7f455243373231456e756d657261626c653a20636f6e736563757469766520747260008201527f616e7366657273206e6f7420737570706f727465640000000000000000000000602082015250565b7f455243323938313a20726f79616c7479206665652077696c6c2065786365656460008201527f2073616c65507269636500000000000000000000000000000000000000000000602082015250565b614969816141ee565b811461497457600080fd5b50565b61498081614200565b811461498b57600080fd5b50565b6149978161420c565b81146149a257600080fd5b50565b6149ae81614258565b81146149b957600080fd5b50565b6149c581614262565b81146149d057600080fd5b5056fea264697066735822122054cf9c18aa7e25c8ce3c772bae57c9c1b2f12d7cef198e38627ee3d6ffc8aca164736f6c63430008040033",
  "linkReferences": {},
  "deployedLinkReferences": {}
}