{
  "_format": "hh-sol-artifact-1",
  "contractName": "The_Gooses_Geese2",
  "sourceName": "contracts/TestContract5.sol",
  "abi": [
    {
      "inputs": [],
      "stateMutability": "nonpayable",
      "type": "constructor"
    },
    {
      "anonymous": false,
      "inputs": [
        {
          "indexed": true,
          "internalType": "address",
          "name": "owner",
          "type": "address"
        },
        {
          "indexed": true,
          "internalType": "address",
          "name": "approved",
          "type": "address"
        },
        {
          "indexed": true,
          "internalType": "uint256",
          "name": "tokenId",
          "type": "uint256"
        }
      ],
      "name": "Approval",
      "type": "event"
    },
    {
      "anonymous": false,
      "inputs": [
        {
          "indexed": true,
          "internalType": "address",
          "name": "owner",
          "type": "address"
        },
        {
          "indexed": true,
          "internalType": "address",
          "name": "operator",
          "type": "address"
        },
        {
          "indexed": false,
          "internalType": "bool",
          "name": "approved",
          "type": "bool"
        }
      ],
      "name": "ApprovalForAll",
      "type": "event"
    },
    {
      "anonymous": false,
      "inputs": [
        {
          "indexed": true,
          "internalType": "address",
          "name": "previousOwner",
          "type": "address"
        },
        {
          "indexed": true,
          "internalType": "address",
          "name": "newOwner",
          "type": "address"
        }
      ],
      "name": "OwnershipTransferred",
      "type": "event"
    },
    {
      "anonymous": false,
      "inputs": [
        {
          "indexed": true,
          "internalType": "address",
          "name": "from",
          "type": "address"
        },
        {
          "indexed": true,
          "internalType": "address",
          "name": "to",
          "type": "address"
        },
        {
          "indexed": true,
          "internalType": "uint256",
          "name": "tokenId",
          "type": "uint256"
        }
      ],
      "name": "Transfer",
      "type": "event"
    },
    {
      "inputs": [],
      "name": "Duringseason",
      "outputs": [
        {
          "internalType": "bool",
          "name": "",
          "type": "bool"
        }
      ],
      "stateMutability": "view",
      "type": "function"
    },
    {
      "inputs": [
        {
          "internalType": "address",
          "name": "to",
          "type": "address"
        },
        {
          "internalType": "string",
          "name": "uri",
          "type": "string"
        }
      ],
      "name": "PayToMint",
      "outputs": [
        {
          "internalType": "uint256",
          "name": "",
          "type": "uint256"
        }
      ],
      "stateMutability": "payable",
      "type": "function"
    },
    {
      "inputs": [
        {
          "internalType": "address",
          "name": "recipient",
          "type": "address"
        },
        {
          "internalType": "string",
          "name": "uri",
          "type": "string"
        }
      ],
      "name": "PayToMintRoyalty",
      "outputs": [
        {
          "internalType": "uint256",
          "name": "",
          "type": "uint256"
        }
      ],
      "stateMutability": "payable",
      "type": "function"
    },
    {
      "inputs": [
        {
          "internalType": "uint256",
          "name": "cost",
          "type": "uint256"
        }
      ],
      "name": "SetPrice",
      "outputs": [
        {
          "internalType": "uint256",
          "name": "",
          "type": "uint256"
        }
      ],
      "stateMutability": "nonpayable",
      "type": "function"
    },
    {
      "inputs": [
        {
          "internalType": "uint96",
          "name": "amount",
          "type": "uint96"
        }
      ],
      "name": "SetRoyal",
      "outputs": [
        {
          "internalType": "uint256",
          "name": "",
          "type": "uint256"
        }
      ],
      "stateMutability": "nonpayable",
      "type": "function"
    },
    {
      "inputs": [],
      "name": "Setseasons",
      "outputs": [],
      "stateMutability": "nonpayable",
      "type": "function"
    },
    {
      "inputs": [
        {
          "internalType": "address",
          "name": "to",
          "type": "address"
        },
        {
          "internalType": "uint256",
          "name": "tokenId",
          "type": "uint256"
        }
      ],
      "name": "approve",
      "outputs": [],
      "stateMutability": "nonpayable",
      "type": "function"
    },
    {
      "inputs": [
        {
          "internalType": "address",
          "name": "owner",
          "type": "address"
        }
      ],
      "name": "balanceOf",
      "outputs": [
        {
          "internalType": "uint256",
          "name": "",
          "type": "uint256"
        }
      ],
      "stateMutability": "view",
      "type": "function"
    },
    {
      "inputs": [
        {
          "internalType": "uint256",
          "name": "tokenId",
          "type": "uint256"
        }
      ],
      "name": "burnNFT",
      "outputs": [],
      "stateMutability": "nonpayable",
      "type": "function"
    },
    {
      "inputs": [
        {
          "internalType": "uint256",
          "name": "tokenId",
          "type": "uint256"
        }
      ],
      "name": "getApproved",
      "outputs": [
        {
          "internalType": "address",
          "name": "",
          "type": "address"
        }
      ],
      "stateMutability": "view",
      "type": "function"
    },
    {
      "inputs": [],
      "name": "getBalance",
      "outputs": [
        {
          "internalType": "uint256",
          "name": "",
          "type": "uint256"
        }
      ],
      "stateMutability": "view",
      "type": "function"
    },
    {
      "inputs": [
        {
          "internalType": "address",
          "name": "owner",
          "type": "address"
        },
        {
          "internalType": "address",
          "name": "operator",
          "type": "address"
        }
      ],
      "name": "isApprovedForAll",
      "outputs": [
        {
          "internalType": "bool",
          "name": "",
          "type": "bool"
        }
      ],
      "stateMutability": "view",
      "type": "function"
    },
    {
      "inputs": [],
      "name": "name",
      "outputs": [
        {
          "internalType": "string",
          "name": "",
          "type": "string"
        }
      ],
      "stateMutability": "view",
      "type": "function"
    },
    {
      "inputs": [],
      "name": "owner",
      "outputs": [
        {
          "internalType": "address",
          "name": "",
          "type": "address"
        }
      ],
      "stateMutability": "view",
      "type": "function"
    },
    {
      "inputs": [
        {
          "internalType": "uint256",
          "name": "tokenId",
          "type": "uint256"
        }
      ],
      "name": "ownerOf",
      "outputs": [
        {
          "internalType": "address",
          "name": "",
          "type": "address"
        }
      ],
      "stateMutability": "view",
      "type": "function"
    },
    {
      "inputs": [],
      "name": "price",
      "outputs": [
        {
          "internalType": "uint256",
          "name": "",
          "type": "uint256"
        }
      ],
      "stateMutability": "view",
      "type": "function"
    },
    {
      "inputs": [],
      "name": "renounceOwnership",
      "outputs": [],
      "stateMutability": "nonpayable",
      "type": "function"
    },
    {
      "inputs": [],
      "name": "royal",
      "outputs": [
        {
          "internalType": "uint96",
          "name": "",
          "type": "uint96"
        }
      ],
      "stateMutability": "view",
      "type": "function"
    },
    {
      "inputs": [
        {
          "internalType": "address",
          "name": "to",
          "type": "address"
        },
        {
          "internalType": "string",
          "name": "uri",
          "type": "string"
        }
      ],
      "name": "safeMint",
      "outputs": [],
      "stateMutability": "nonpayable",
      "type": "function"
    },
    {
      "inputs": [
        {
          "internalType": "address",
          "name": "from",
          "type": "address"
        },
        {
          "internalType": "address",
          "name": "to",
          "type": "address"
        },
        {
          "internalType": "uint256",
          "name": "tokenId",
          "type": "uint256"
        }
      ],
      "name": "safeTransferFrom",
      "outputs": [],
      "stateMutability": "nonpayable",
      "type": "function"
    },
    {
      "inputs": [
        {
          "internalType": "address",
          "name": "from",
          "type": "address"
        },
        {
          "internalType": "address",
          "name": "to",
          "type": "address"
        },
        {
          "internalType": "uint256",
          "name": "tokenId",
          "type": "uint256"
        },
        {
          "internalType": "bytes",
          "name": "data",
          "type": "bytes"
        }
      ],
      "name": "safeTransferFrom",
      "outputs": [],
      "stateMutability": "nonpayable",
      "type": "function"
    },
    {
      "inputs": [],
      "name": "seasonStart",
      "outputs": [],
      "stateMutability": "nonpayable",
      "type": "function"
    },
    {
      "inputs": [
        {
          "internalType": "address",
          "name": "operator",
          "type": "address"
        },
        {
          "internalType": "bool",
          "name": "approved",
          "type": "bool"
        }
      ],
      "name": "setApprovalForAll",
      "outputs": [],
      "stateMutability": "nonpayable",
      "type": "function"
    },
    {
      "inputs": [
        {
          "internalType": "bytes4",
          "name": "interfaceId",
          "type": "bytes4"
        }
      ],
      "name": "supportsInterface",
      "outputs": [
        {
          "internalType": "bool",
          "name": "",
          "type": "bool"
        }
      ],
      "stateMutability": "view",
      "type": "function"
    },
    {
      "inputs": [],
      "name": "symbol",
      "outputs": [
        {
          "internalType": "string",
          "name": "",
          "type": "string"
        }
      ],
      "stateMutability": "view",
      "type": "function"
    },
    {
      "inputs": [
        {
          "internalType": "uint256",
          "name": "index",
          "type": "uint256"
        }
      ],
      "name": "tokenByIndex",
      "outputs": [
        {
          "internalType": "uint256",
          "name": "",
          "type": "uint256"
        }
      ],
      "stateMutability": "view",
      "type": "function"
    },
    {
      "inputs": [
        {
          "internalType": "address",
          "name": "owner",
          "type": "address"
        },
        {
          "internalType": "uint256",
          "name": "index",
          "type": "uint256"
        }
      ],
      "name": "tokenOfOwnerByIndex",
      "outputs": [
        {
          "internalType": "uint256",
          "name": "",
          "type": "uint256"
        }
      ],
      "stateMutability": "view",
      "type": "function"
    },
    {
      "inputs": [
        {
          "internalType": "uint256",
          "name": "tokenId",
          "type": "uint256"
        }
      ],
      "name": "tokenURI",
      "outputs": [
        {
          "internalType": "string",
          "name": "",
          "type": "string"
        }
      ],
      "stateMutability": "view",
      "type": "function"
    },
    {
      "inputs": [],
      "name": "totalSupply",
      "outputs": [
        {
          "internalType": "uint256",
          "name": "",
          "type": "uint256"
        }
      ],
      "stateMutability": "view",
      "type": "function"
    },
    {
      "inputs": [
        {
          "internalType": "address",
          "name": "from",
          "type": "address"
        },
        {
          "internalType": "address",
          "name": "to",
          "type": "address"
        },
        {
          "internalType": "uint256",
          "name": "tokenId",
          "type": "uint256"
        }
      ],
      "name": "transferFrom",
      "outputs": [],
      "stateMutability": "nonpayable",
      "type": "function"
    },
    {
      "inputs": [
        {
          "internalType": "address",
          "name": "newOwner",
          "type": "address"
        }
      ],
      "name": "transferOwnership",
      "outputs": [],
      "stateMutability": "nonpayable",
      "type": "function"
    },
    {
      "inputs": [],
      "name": "withdrawMoneyTo",
      "outputs": [],
      "stateMutability": "nonpayable",
      "type": "function"
    }
  ],
  "bytecode": "0x60806040526019600c55662386f26fc10000600d55600a600e60006101000a8154816bffffffffffffffffffffffff02191690836bffffffffffffffffffffffff1602179055506000600e600c6101000a81548160ff0219169083151502179055507314dc79964da2c08b23698b3d3cc7ca32193d9955601060006101000a81548173ffffffffffffffffffffffffffffffffffffffff021916908373ffffffffffffffffffffffffffffffffffffffff160217905550348015620000c357600080fd5b506040518060400160405280601081526020017f5468655f476f6f7365735f4765657365000000000000000000000000000000008152506040518060400160405280600381526020017f544747000000000000000000000000000000000000000000000000000000000081525081600090805190602001906200014892919062000258565b5080600190805190602001906200016192919062000258565b50505062000184620001786200018a60201b60201c565b6200019260201b60201c565b6200036d565b600033905090565b6000600b60009054906101000a900473ffffffffffffffffffffffffffffffffffffffff16905081600b60006101000a81548173ffffffffffffffffffffffffffffffffffffffff021916908373ffffffffffffffffffffffffffffffffffffffff1602179055508173ffffffffffffffffffffffffffffffffffffffff168173ffffffffffffffffffffffffffffffffffffffff167f8be0079c531659141344cd1fd0a4f28419497f9722a3daafe3b4186f6b6457e060405160405180910390a35050565b828054620002669062000308565b90600052602060002090601f0160209004810192826200028a5760008555620002d6565b82601f10620002a557805160ff1916838001178555620002d6565b82800160010185558215620002d6579182015b82811115620002d5578251825591602001919060010190620002b8565b5b509050620002e59190620002e9565b5090565b5b8082111562000304576000816000905550600101620002ea565b5090565b600060028204905060018216806200032157607f821691505b602082108114156200033857620003376200033e565b5b50919050565b7f4e487b7100000000000000000000000000000000000000000000000000000000600052602260045260246000fd5b6142dd806200037d6000396000f3fe6080604052600436106101e35760003560e01c80636352211e11610102578063b88d4fde11610095578063db980b5d11610064578063db980b5d146106e0578063e52aa24e14610710578063e985e9c514610740578063f2fde38b1461077d576101e3565b8063b88d4fde1461063a578063bafa094614610663578063c87b56dd1461067a578063d204c45e146106b7576101e3565b80638da5cb5b116100d15780638da5cb5b1461059057806395d89b41146105bb578063a035b1fe146105e6578063a22cb46514610611576101e3565b80636352211e146104d457806370a0823114610511578063715018a61461054e5780637f885cd514610565576101e3565b806318160ddd1161017a5780632f745c59116101495780632f745c59146103f457806342842e0e146104315780634f5539c01461045a5780634f6ccce714610497576101e3565b806318160ddd1461036057806323b872dd1461038b5780632890e0d7146103b45780632f36aae4146103dd576101e3565b8063086f708a116101b6578063086f708a146102b8578063095ea7b3146102cf57806312065fe0146102f85780631328e2a814610323576101e3565b806301ffc9a7146101e857806306fdde03146102255780630780f9f414610250578063081812fc1461027b575b600080fd5b3480156101f457600080fd5b5061020f600480360381019061020a9190613258565b6107a6565b60405161021c9190613722565b60405180910390f35b34801561023157600080fd5b5061023a6107b8565b604051610247919061373d565b60405180910390f35b34801561025c57600080fd5b5061026561084a565b60405161027291906139fa565b60405180910390f35b34801561028757600080fd5b506102a2600480360381019061029d91906132aa565b610868565b6040516102af91906136bb565b60405180910390f35b3480156102c457600080fd5b506102cd6108ae565b005b3480156102db57600080fd5b506102f660048036038101906102f1919061321c565b610920565b005b34801561030457600080fd5b5061030d610a38565b60405161031a91906139df565b60405180910390f35b34801561032f57600080fd5b5061034a600480360381019061034591906132d3565b610a40565b60405161035791906139df565b60405180910390f35b34801561036c57600080fd5b50610375610a91565b60405161038291906139df565b60405180910390f35b34801561039757600080fd5b506103b260048036038101906103ad91906130c2565b610a9e565b005b3480156103c057600080fd5b506103db60048036038101906103d691906132aa565b610afe565b005b3480156103e957600080fd5b506103f2610b0a565b005b34801561040057600080fd5b5061041b6004803603810190610416919061321c565b610b68565b60405161042891906139df565b60405180910390f35b34801561043d57600080fd5b50610458600480360381019061045391906130c2565b610c0d565b005b34801561046657600080fd5b50610481600480360381019061047c91906132aa565b610c2d565b60405161048e91906139df565b60405180910390f35b3480156104a357600080fd5b506104be60048036038101906104b991906132aa565b610c48565b6040516104cb91906139df565b60405180910390f35b3480156104e057600080fd5b506104fb60048036038101906104f691906132aa565b610cdf565b60405161050891906136bb565b60405180910390f35b34801561051d57600080fd5b506105386004803603810190610533919061305d565b610d66565b60405161054591906139df565b60405180910390f35b34801561055a57600080fd5b50610563610e1e565b005b34801561057157600080fd5b5061057a610e32565b6040516105879190613722565b60405180910390f35b34801561059c57600080fd5b506105a5610e51565b6040516105b291906136bb565b60405180910390f35b3480156105c757600080fd5b506105d0610e7b565b6040516105dd919061373d565b60405180910390f35b3480156105f257600080fd5b506105fb610f0d565b60405161060891906139df565b60405180910390f35b34801561061d57600080fd5b506106386004803603810190610633919061318c565b610f13565b005b34801561064657600080fd5b50610661600480360381019061065c9190613111565b610f29565b005b34801561066f57600080fd5b50610678610f8b565b005b34801561068657600080fd5b506106a1600480360381019061069c91906132aa565b610fb0565b6040516106ae919061373d565b60405180910390f35b3480156106c357600080fd5b506106de60048036038101906106d991906131c8565b610fc2565b005b6106fa60048036038101906106f591906131c8565b611040565b60405161070791906139df565b60405180910390f35b61072a600480360381019061072591906131c8565b611176565b60405161073791906139df565b60405180910390f35b34801561074c57600080fd5b5061076760048036038101906107629190613086565b61118f565b6040516107749190613722565b60405180910390f35b34801561078957600080fd5b506107a4600480360381019061079f919061305d565b611223565b005b60006107b1826112a7565b9050919050565b6060600080546107c790613c37565b80601f01602080910402602001604051908101604052809291908181526020018280546107f390613c37565b80156108405780601f1061081557610100808354040283529160200191610840565b820191906000526020600020905b81548152906001019060200180831161082357829003601f168201915b5050505050905090565b600e60009054906101000a90046bffffffffffffffffffffffff1681565b600061087382611321565b6004600083815260200190815260200160002060009054906101000a900473ffffffffffffffffffffffffffffffffffffffff169050919050565b601060009054906101000a900473ffffffffffffffffffffffffffffffffffffffff1673ffffffffffffffffffffffffffffffffffffffff166108fc6108f2610a38565b9081150290604051600060405180830381858888f1935050505015801561091d573d6000803e3d6000fd5b50565b600061092b82610cdf565b90508073ffffffffffffffffffffffffffffffffffffffff168373ffffffffffffffffffffffffffffffffffffffff16141561099c576040517f08c379a00000000000000000000000000000000000000000000000000000000081526004016109939061395f565b60405180910390fd5b8073ffffffffffffffffffffffffffffffffffffffff166109bb61136c565b73ffffffffffffffffffffffffffffffffffffffff1614806109ea57506109e9816109e461136c565b61118f565b5b610a29576040517f08c379a0000000000000000000000000000000000000000000000000000000008152600401610a209061397f565b60405180910390fd5b610a338383611374565b505050565b600047905090565b6000610a4a61142d565b81600e60006101000a8154816bffffffffffffffffffffffff02191690836bffffffffffffffffffffffff160217905550816bffffffffffffffffffffffff169050919050565b6000600880549050905090565b610aaf610aa961136c565b826114ab565b610aee576040517f08c379a0000000000000000000000000000000000000000000000000000000008152600401610ae59061377f565b60405180910390fd5b610af9838383611540565b505050565b610b078161183a565b50565b6002610b16600f611846565b1415610b38576000600e600c6101000a81548160ff0219169083151502179055505b6004610b44600f611846565b1415610b66576000600e600c6101000a81548160ff0219169083151502179055505b565b6000610b7383610d66565b8210610bb4576040517f08c379a0000000000000000000000000000000000000000000000000000000008152600401610bab9061379f565b60405180910390fd5b600660008473ffffffffffffffffffffffffffffffffffffffff1673ffffffffffffffffffffffffffffffffffffffff168152602001908152602001600020600083815260200190815260200160002054905092915050565b610c2883838360405180602001604052806000815250610f29565b505050565b6000610c3761142d565b81600d81905550600d549050919050565b6000610c52610a91565b8210610c93576040517f08c379a0000000000000000000000000000000000000000000000000000000008152600401610c8a9061399f565b60405180910390fd5b60088281548110610ccd577f4e487b7100000000000000000000000000000000000000000000000000000000600052603260045260246000fd5b90600052602060002001549050919050565b600080610ceb83611854565b9050600073ffffffffffffffffffffffffffffffffffffffff168173ffffffffffffffffffffffffffffffffffffffff161415610d5d576040517f08c379a0000000000000000000000000000000000000000000000000000000008152600401610d549061393f565b60405180910390fd5b80915050919050565b60008073ffffffffffffffffffffffffffffffffffffffff168273ffffffffffffffffffffffffffffffffffffffff161415610dd7576040517f08c379a0000000000000000000000000000000000000000000000000000000008152600401610dce906138bf565b60405180910390fd5b600360008373ffffffffffffffffffffffffffffffffffffffff1673ffffffffffffffffffffffffffffffffffffffff168152602001908152602001600020549050919050565b610e2661142d565b610e306000611891565b565b6000610e3c61142d565b600e600c9054906101000a900460ff16905090565b6000600b60009054906101000a900473ffffffffffffffffffffffffffffffffffffffff16905090565b606060018054610e8a90613c37565b80601f0160208091040260200160405190810160405280929190818152602001828054610eb690613c37565b8015610f035780601f10610ed857610100808354040283529160200191610f03565b820191906000526020600020905b815481529060010190602001808311610ee657829003601f168201915b5050505050905090565b600d5481565b610f25610f1e61136c565b8383611957565b5050565b610f3a610f3461136c565b836114ab565b610f79576040517f08c379a0000000000000000000000000000000000000000000000000000000008152600401610f709061377f565b60405180910390fd5b610f8584848484611ac4565b50505050565b610f9361142d565b6001600e600c6101000a81548160ff021916908315150217905550565b6060610fbb82611b20565b9050919050565b610fca61142d565b6000610fd6600f611846565b9050600c5481111561101d576040517f08c379a0000000000000000000000000000000000000000000000000000000008152600401611014906137df565b60405180910390fd5b611027600f611c33565b6110318382611c49565b61103b8183611c67565b505050565b60008061104d600f611846565b9050600d54341015611094576040517f08c379a000000000000000000000000000000000000000000000000000000000815260040161108b9061385f565b60405180910390fd5b600c548111156110d9576040517f08c379a00000000000000000000000000000000000000000000000000000000081526004016110d0906137df565b60405180910390fd5b60011515600e600c9054906101000a900460ff1615151461112f576040517f08c379a00000000000000000000000000000000000000000000000000000000081526004016111269061375f565b60405180910390fd5b611139600f611c33565b6111438482611c49565b61114d8184611c67565b6111556108ae565b61115d610b0a565b6000611169600f611846565b9050809250505092915050565b6000806111838484611040565b90508091505092915050565b6000600560008473ffffffffffffffffffffffffffffffffffffffff1673ffffffffffffffffffffffffffffffffffffffff16815260200190815260200160002060008373ffffffffffffffffffffffffffffffffffffffff1673ffffffffffffffffffffffffffffffffffffffff16815260200190815260200160002060009054906101000a900460ff16905092915050565b61122b61142d565b600073ffffffffffffffffffffffffffffffffffffffff168173ffffffffffffffffffffffffffffffffffffffff16141561129b576040517f08c379a0000000000000000000000000000000000000000000000000000000008152600401611292906137ff565b60405180910390fd5b6112a481611891565b50565b60007f780e9d63000000000000000000000000000000000000000000000000000000007bffffffffffffffffffffffffffffffffffffffffffffffffffffffff1916827bffffffffffffffffffffffffffffffffffffffffffffffffffffffff1916148061131a575061131982611cdb565b5b9050919050565b61132a81611dbd565b611369576040517f08c379a00000000000000000000000000000000000000000000000000000000081526004016113609061393f565b60405180910390fd5b50565b600033905090565b816004600083815260200190815260200160002060006101000a81548173ffffffffffffffffffffffffffffffffffffffff021916908373ffffffffffffffffffffffffffffffffffffffff160217905550808273ffffffffffffffffffffffffffffffffffffffff166113e783610cdf565b73ffffffffffffffffffffffffffffffffffffffff167f8c5be1e5ebec7d5bd14f71427d1e84f3dd0314c0f7b2291e5b200ac8c7c3b92560405160405180910390a45050565b61143561136c565b73ffffffffffffffffffffffffffffffffffffffff16611453610e51565b73ffffffffffffffffffffffffffffffffffffffff16146114a9576040517f08c379a00000000000000000000000000000000000000000000000000000000081526004016114a09061391f565b60405180910390fd5b565b6000806114b783610cdf565b90508073ffffffffffffffffffffffffffffffffffffffff168473ffffffffffffffffffffffffffffffffffffffff1614806114f957506114f8818561118f565b5b8061153757508373ffffffffffffffffffffffffffffffffffffffff1661151f84610868565b73ffffffffffffffffffffffffffffffffffffffff16145b91505092915050565b8273ffffffffffffffffffffffffffffffffffffffff1661156082610cdf565b73ffffffffffffffffffffffffffffffffffffffff16146115b6576040517f08c379a00000000000000000000000000000000000000000000000000000000081526004016115ad9061381f565b60405180910390fd5b600073ffffffffffffffffffffffffffffffffffffffff168273ffffffffffffffffffffffffffffffffffffffff161415611626576040517f08c379a000000000000000000000000000000000000000000000000000000000815260040161161d9061387f565b60405180910390fd5b6116338383836001611dfe565b8273ffffffffffffffffffffffffffffffffffffffff1661165382610cdf565b73ffffffffffffffffffffffffffffffffffffffff16146116a9576040517f08c379a00000000000000000000000000000000000000000000000000000000081526004016116a09061381f565b60405180910390fd5b6004600082815260200190815260200160002060006101000a81549073ffffffffffffffffffffffffffffffffffffffff02191690556001600360008573ffffffffffffffffffffffffffffffffffffffff1673ffffffffffffffffffffffffffffffffffffffff168152602001908152602001600020600082825403925050819055506001600360008473ffffffffffffffffffffffffffffffffffffffff1673ffffffffffffffffffffffffffffffffffffffff16815260200190815260200160002060008282540192505081905550816002600083815260200190815260200160002060006101000a81548173ffffffffffffffffffffffffffffffffffffffff021916908373ffffffffffffffffffffffffffffffffffffffff160217905550808273ffffffffffffffffffffffffffffffffffffffff168473ffffffffffffffffffffffffffffffffffffffff167fddf252ad1be2c89b69c2b068fc378daa952ba7f163c4a11628f55a4df523b3ef60405160405180910390a46118358383836001611e10565b505050565b61184381611e16565b50565b600081600001549050919050565b60006002600083815260200190815260200160002060009054906101000a900473ffffffffffffffffffffffffffffffffffffffff169050919050565b6000600b60009054906101000a900473ffffffffffffffffffffffffffffffffffffffff16905081600b60006101000a81548173ffffffffffffffffffffffffffffffffffffffff021916908373ffffffffffffffffffffffffffffffffffffffff1602179055508173ffffffffffffffffffffffffffffffffffffffff168173ffffffffffffffffffffffffffffffffffffffff167f8be0079c531659141344cd1fd0a4f28419497f9722a3daafe3b4186f6b6457e060405160405180910390a35050565b8173ffffffffffffffffffffffffffffffffffffffff168373ffffffffffffffffffffffffffffffffffffffff1614156119c6576040517f08c379a00000000000000000000000000000000000000000000000000000000081526004016119bd9061389f565b60405180910390fd5b80600560008573ffffffffffffffffffffffffffffffffffffffff1673ffffffffffffffffffffffffffffffffffffffff16815260200190815260200160002060008473ffffffffffffffffffffffffffffffffffffffff1673ffffffffffffffffffffffffffffffffffffffff16815260200190815260200160002060006101000a81548160ff0219169083151502179055508173ffffffffffffffffffffffffffffffffffffffff168373ffffffffffffffffffffffffffffffffffffffff167f17307eab39ab6107e8899845ad3d59bd9653f200f220920489ca2b5937696c3183604051611ab79190613722565b60405180910390a3505050565b611acf848484611540565b611adb84848484611e69565b611b1a576040517f08c379a0000000000000000000000000000000000000000000000000000000008152600401611b11906137bf565b60405180910390fd5b50505050565b6060611b2b82611321565b6000600a60008481526020019081526020016000208054611b4b90613c37565b80601f0160208091040260200160405190810160405280929190818152602001828054611b7790613c37565b8015611bc45780601f10611b9957610100808354040283529160200191611bc4565b820191906000526020600020905b815481529060010190602001808311611ba757829003601f168201915b505050505090506000611bd5612000565b9050600081511415611beb578192505050611c2e565b600082511115611c20578082604051602001611c08929190613697565b60405160208183030381529060405292505050611c2e565b611c2984612017565b925050505b919050565b6001816000016000828254019250508190555050565b611c6382826040518060200160405280600081525061207f565b5050565b611c7082611dbd565b611caf576040517f08c379a0000000000000000000000000000000000000000000000000000000008152600401611ca6906138df565b60405180910390fd5b80600a60008481526020019081526020016000209080519060200190611cd6929190612e2c565b505050565b60007f80ac58cd000000000000000000000000000000000000000000000000000000007bffffffffffffffffffffffffffffffffffffffffffffffffffffffff1916827bffffffffffffffffffffffffffffffffffffffffffffffffffffffff19161480611da657507f5b5e139f000000000000000000000000000000000000000000000000000000007bffffffffffffffffffffffffffffffffffffffffffffffffffffffff1916827bffffffffffffffffffffffffffffffffffffffffffffffffffffffff1916145b80611db65750611db5826120da565b5b9050919050565b60008073ffffffffffffffffffffffffffffffffffffffff16611ddf83611854565b73ffffffffffffffffffffffffffffffffffffffff1614159050919050565b611e0a84848484612144565b50505050565b50505050565b611e1f816122a4565b6000600a60008381526020019081526020016000208054611e3f90613c37565b905014611e6657600a60008281526020019081526020016000206000611e659190612eb2565b5b50565b6000611e8a8473ffffffffffffffffffffffffffffffffffffffff166123f2565b15611ff3578373ffffffffffffffffffffffffffffffffffffffff1663150b7a02611eb361136c565b8786866040518563ffffffff1660e01b8152600401611ed594939291906136d6565b602060405180830381600087803b158015611eef57600080fd5b505af1925050508015611f2057506040513d601f19601f82011682018060405250810190611f1d9190613281565b60015b611fa3573d8060008114611f50576040519150601f19603f3d011682016040523d82523d6000602084013e611f55565b606091505b50600081511415611f9b576040517f08c379a0000000000000000000000000000000000000000000000000000000008152600401611f92906137bf565b60405180910390fd5b805181602001fd5b63150b7a0260e01b7bffffffffffffffffffffffffffffffffffffffffffffffffffffffff1916817bffffffffffffffffffffffffffffffffffffffffffffffffffffffff191614915050611ff8565b600190505b949350505050565b606060405180602001604052806000815250905090565b606061202282611321565b600061202c612000565b9050600081511161204c5760405180602001604052806000815250612077565b8061205684612415565b604051602001612067929190613697565b6040516020818303038152906040525b915050919050565b6120898383612539565b6120966000848484611e69565b6120d5576040517f08c379a00000000000000000000000000000000000000000000000000000000081526004016120cc906137bf565b60405180910390fd5b505050565b60007f01ffc9a7000000000000000000000000000000000000000000000000000000007bffffffffffffffffffffffffffffffffffffffffffffffffffffffff1916827bffffffffffffffffffffffffffffffffffffffffffffffffffffffff1916149050919050565b61215084848484612757565b6001811115612194576040517f08c379a000000000000000000000000000000000000000000000000000000000815260040161218b906139bf565b60405180910390fd5b6000829050600073ffffffffffffffffffffffffffffffffffffffff168573ffffffffffffffffffffffffffffffffffffffff1614156121dc576121d78161287d565b61221b565b8373ffffffffffffffffffffffffffffffffffffffff168573ffffffffffffffffffffffffffffffffffffffff161461221a5761221985826128c6565b5b5b600073ffffffffffffffffffffffffffffffffffffffff168473ffffffffffffffffffffffffffffffffffffffff16141561225e5761225981612a33565b61229d565b8473ffffffffffffffffffffffffffffffffffffffff168473ffffffffffffffffffffffffffffffffffffffff161461229c5761229b8482612b76565b5b5b5050505050565b60006122af82610cdf565b90506122bf816000846001611dfe565b6122c882610cdf565b90506004600083815260200190815260200160002060006101000a81549073ffffffffffffffffffffffffffffffffffffffff02191690556001600360008373ffffffffffffffffffffffffffffffffffffffff1673ffffffffffffffffffffffffffffffffffffffff168152602001908152602001600020600082825403925050819055506002600083815260200190815260200160002060006101000a81549073ffffffffffffffffffffffffffffffffffffffff021916905581600073ffffffffffffffffffffffffffffffffffffffff168273ffffffffffffffffffffffffffffffffffffffff167fddf252ad1be2c89b69c2b068fc378daa952ba7f163c4a11628f55a4df523b3ef60405160405180910390a46123ee816000846001611e10565b5050565b6000808273ffffffffffffffffffffffffffffffffffffffff163b119050919050565b60606000600161242484612bf5565b01905060008167ffffffffffffffff811115612469577f4e487b7100000000000000000000000000000000000000000000000000000000600052604160045260246000fd5b6040519080825280601f01601f19166020018201604052801561249b5781602001600182028036833780820191505090505b509050600082602001820190505b60011561252e578080600190039150507f3031323334353637383961626364656600000000000000000000000000000000600a86061a8153600a8581612518577f4e487b7100000000000000000000000000000000000000000000000000000000600052601260045260246000fd5b04945060008514156125295761252e565b6124a9565b819350505050919050565b600073ffffffffffffffffffffffffffffffffffffffff168273ffffffffffffffffffffffffffffffffffffffff1614156125a9576040517f08c379a00000000000000000000000000000000000000000000000000000000081526004016125a0906138ff565b60405180910390fd5b6125b281611dbd565b156125f2576040517f08c379a00000000000000000000000000000000000000000000000000000000081526004016125e99061383f565b60405180910390fd5b612600600083836001611dfe565b61260981611dbd565b15612649576040517f08c379a00000000000000000000000000000000000000000000000000000000081526004016126409061383f565b60405180910390fd5b6001600360008473ffffffffffffffffffffffffffffffffffffffff1673ffffffffffffffffffffffffffffffffffffffff16815260200190815260200160002060008282540192505081905550816002600083815260200190815260200160002060006101000a81548173ffffffffffffffffffffffffffffffffffffffff021916908373ffffffffffffffffffffffffffffffffffffffff160217905550808273ffffffffffffffffffffffffffffffffffffffff16600073ffffffffffffffffffffffffffffffffffffffff167fddf252ad1be2c89b69c2b068fc378daa952ba7f163c4a11628f55a4df523b3ef60405160405180910390a4612753600083836001611e10565b5050565b600181111561287757600073ffffffffffffffffffffffffffffffffffffffff168473ffffffffffffffffffffffffffffffffffffffff16146127eb5780600360008673ffffffffffffffffffffffffffffffffffffffff1673ffffffffffffffffffffffffffffffffffffffff16815260200190815260200160002060008282546127e39190613b35565b925050819055505b600073ffffffffffffffffffffffffffffffffffffffff168373ffffffffffffffffffffffffffffffffffffffff16146128765780600360008573ffffffffffffffffffffffffffffffffffffffff1673ffffffffffffffffffffffffffffffffffffffff168152602001908152602001600020600082825461286e9190613adf565b925050819055505b5b50505050565b6008805490506009600083815260200190815260200160002081905550600881908060018154018082558091505060019003906000526020600020016000909190919091505550565b600060016128d384610d66565b6128dd9190613b35565b90506000600760008481526020019081526020016000205490508181146129c2576000600660008673ffffffffffffffffffffffffffffffffffffffff1673ffffffffffffffffffffffffffffffffffffffff168152602001908152602001600020600084815260200190815260200160002054905080600660008773ffffffffffffffffffffffffffffffffffffffff1673ffffffffffffffffffffffffffffffffffffffff168152602001908152602001600020600084815260200190815260200160002081905550816007600083815260200190815260200160002081905550505b6007600084815260200190815260200160002060009055600660008573ffffffffffffffffffffffffffffffffffffffff1673ffffffffffffffffffffffffffffffffffffffff16815260200190815260200160002060008381526020019081526020016000206000905550505050565b60006001600880549050612a479190613b35565b9050600060096000848152602001908152602001600020549050600060088381548110612a9d577f4e487b7100000000000000000000000000000000000000000000000000000000600052603260045260246000fd5b906000526020600020015490508060088381548110612ae5577f4e487b7100000000000000000000000000000000000000000000000000000000600052603260045260246000fd5b906000526020600020018190555081600960008381526020019081526020016000208190555060096000858152602001908152602001600020600090556008805480612b5a577f4e487b7100000000000000000000000000000000000000000000000000000000600052603160045260246000fd5b6001900381819060005260206000200160009055905550505050565b6000612b8183610d66565b905081600660008573ffffffffffffffffffffffffffffffffffffffff1673ffffffffffffffffffffffffffffffffffffffff168152602001908152602001600020600083815260200190815260200160002081905550806007600084815260200190815260200160002081905550505050565b600080600090507a184f03e93ff9f4daa797ed6e38ed64bf6a1f0100000000000000008310612c79577a184f03e93ff9f4daa797ed6e38ed64bf6a1f0100000000000000008381612c6f577f4e487b7100000000000000000000000000000000000000000000000000000000600052601260045260246000fd5b0492506040810190505b6d04ee2d6d415b85acef81000000008310612cdc576d04ee2d6d415b85acef81000000008381612cd2577f4e487b7100000000000000000000000000000000000000000000000000000000600052601260045260246000fd5b0492506020810190505b662386f26fc100008310612d3157662386f26fc100008381612d27577f4e487b7100000000000000000000000000000000000000000000000000000000600052601260045260246000fd5b0492506010810190505b6305f5e1008310612d80576305f5e1008381612d76577f4e487b7100000000000000000000000000000000000000000000000000000000600052601260045260246000fd5b0492506008810190505b6127108310612dcb576127108381612dc1577f4e487b7100000000000000000000000000000000000000000000000000000000600052601260045260246000fd5b0492506004810190505b60648310612e145760648381612e0a577f4e487b7100000000000000000000000000000000000000000000000000000000600052601260045260246000fd5b0492506002810190505b600a8310612e23576001810190505b80915050919050565b828054612e3890613c37565b90600052602060002090601f016020900481019282612e5a5760008555612ea1565b82601f10612e7357805160ff1916838001178555612ea1565b82800160010185558215612ea1579182015b82811115612ea0578251825591602001919060010190612e85565b5b509050612eae9190612ef2565b5090565b508054612ebe90613c37565b6000825580601f10612ed05750612eef565b601f016020900490600052602060002090810190612eee9190612ef2565b5b50565b5b80821115612f0b576000816000905550600101612ef3565b5090565b6000612f22612f1d84613a3a565b613a15565b905082815260208101848484011115612f3a57600080fd5b612f45848285613bf5565b509392505050565b6000612f60612f5b84613a6b565b613a15565b905082815260208101848484011115612f7857600080fd5b612f83848285613bf5565b509392505050565b600081359050612f9a81614234565b92915050565b600081359050612faf8161424b565b92915050565b600081359050612fc481614262565b92915050565b600081519050612fd981614262565b92915050565b600082601f830112612ff057600080fd5b8135613000848260208601612f0f565b91505092915050565b600082601f83011261301a57600080fd5b813561302a848260208601612f4d565b91505092915050565b60008135905061304281614279565b92915050565b60008135905061305781614290565b92915050565b60006020828403121561306f57600080fd5b600061307d84828501612f8b565b91505092915050565b6000806040838503121561309957600080fd5b60006130a785828601612f8b565b92505060206130b885828601612f8b565b9150509250929050565b6000806000606084860312156130d757600080fd5b60006130e586828701612f8b565b93505060206130f686828701612f8b565b925050604061310786828701613033565b9150509250925092565b6000806000806080858703121561312757600080fd5b600061313587828801612f8b565b945050602061314687828801612f8b565b935050604061315787828801613033565b925050606085013567ffffffffffffffff81111561317457600080fd5b61318087828801612fdf565b91505092959194509250565b6000806040838503121561319f57600080fd5b60006131ad85828601612f8b565b92505060206131be85828601612fa0565b9150509250929050565b600080604083850312156131db57600080fd5b60006131e985828601612f8b565b925050602083013567ffffffffffffffff81111561320657600080fd5b61321285828601613009565b9150509250929050565b6000806040838503121561322f57600080fd5b600061323d85828601612f8b565b925050602061324e85828601613033565b9150509250929050565b60006020828403121561326a57600080fd5b600061327884828501612fb5565b91505092915050565b60006020828403121561329357600080fd5b60006132a184828501612fca565b91505092915050565b6000602082840312156132bc57600080fd5b60006132ca84828501613033565b91505092915050565b6000602082840312156132e557600080fd5b60006132f384828501613048565b91505092915050565b61330581613b69565b82525050565b61331481613b7b565b82525050565b600061332582613a9c565b61332f8185613ab2565b935061333f818560208601613c04565b61334881613d27565b840191505092915050565b600061335e82613aa7565b6133688185613ac3565b9350613378818560208601613c04565b61338181613d27565b840191505092915050565b600061339782613aa7565b6133a18185613ad4565b93506133b1818560208601613c04565b80840191505092915050565b60006133ca600d83613ac3565b91506133d582613d38565b602082019050919050565b60006133ed602d83613ac3565b91506133f882613d61565b604082019050919050565b6000613410602b83613ac3565b915061341b82613db0565b604082019050919050565b6000613433603283613ac3565b915061343e82613dff565b604082019050919050565b6000613456600883613ac3565b915061346182613e4e565b602082019050919050565b6000613479602683613ac3565b915061348482613e77565b604082019050919050565b600061349c602583613ac3565b91506134a782613ec6565b604082019050919050565b60006134bf601c83613ac3565b91506134ca82613f15565b602082019050919050565b60006134e2601283613ac3565b91506134ed82613f3e565b602082019050919050565b6000613505602483613ac3565b915061351082613f67565b604082019050919050565b6000613528601983613ac3565b915061353382613fb6565b602082019050919050565b600061354b602983613ac3565b915061355682613fdf565b604082019050919050565b600061356e602e83613ac3565b91506135798261402e565b604082019050919050565b6000613591602083613ac3565b915061359c8261407d565b602082019050919050565b60006135b4602083613ac3565b91506135bf826140a6565b602082019050919050565b60006135d7601883613ac3565b91506135e2826140cf565b602082019050919050565b60006135fa602183613ac3565b9150613605826140f8565b604082019050919050565b600061361d603d83613ac3565b915061362882614147565b604082019050919050565b6000613640602c83613ac3565b915061364b82614196565b604082019050919050565b6000613663603583613ac3565b915061366e826141e5565b604082019050919050565b61368281613bd3565b82525050565b61369181613bdd565b82525050565b60006136a3828561338c565b91506136af828461338c565b91508190509392505050565b60006020820190506136d060008301846132fc565b92915050565b60006080820190506136eb60008301876132fc565b6136f860208301866132fc565b6137056040830185613679565b8181036060830152613717818461331a565b905095945050505050565b6000602082019050613737600083018461330b565b92915050565b600060208201905081810360008301526137578184613353565b905092915050565b60006020820190508181036000830152613778816133bd565b9050919050565b60006020820190508181036000830152613798816133e0565b9050919050565b600060208201905081810360008301526137b881613403565b9050919050565b600060208201905081810360008301526137d881613426565b9050919050565b600060208201905081810360008301526137f881613449565b9050919050565b600060208201905081810360008301526138188161346c565b9050919050565b600060208201905081810360008301526138388161348f565b9050919050565b60006020820190508181036000830152613858816134b2565b9050919050565b60006020820190508181036000830152613878816134d5565b9050919050565b60006020820190508181036000830152613898816134f8565b9050919050565b600060208201905081810360008301526138b88161351b565b9050919050565b600060208201905081810360008301526138d88161353e565b9050919050565b600060208201905081810360008301526138f881613561565b9050919050565b6000602082019050818103600083015261391881613584565b9050919050565b60006020820190508181036000830152613938816135a7565b9050919050565b60006020820190508181036000830152613958816135ca565b9050919050565b60006020820190508181036000830152613978816135ed565b9050919050565b6000602082019050818103600083015261399881613610565b9050919050565b600060208201905081810360008301526139b881613633565b9050919050565b600060208201905081810360008301526139d881613656565b9050919050565b60006020820190506139f46000830184613679565b92915050565b6000602082019050613a0f6000830184613688565b92915050565b6000613a1f613a30565b9050613a2b8282613c69565b919050565b6000604051905090565b600067ffffffffffffffff821115613a5557613a54613cf8565b5b613a5e82613d27565b9050602081019050919050565b600067ffffffffffffffff821115613a8657613a85613cf8565b5b613a8f82613d27565b9050602081019050919050565b600081519050919050565b600081519050919050565b600082825260208201905092915050565b600082825260208201905092915050565b600081905092915050565b6000613aea82613bd3565b9150613af583613bd3565b9250827fffffffffffffffffffffffffffffffffffffffffffffffffffffffffffffffff03821115613b2a57613b29613c9a565b5b828201905092915050565b6000613b4082613bd3565b9150613b4b83613bd3565b925082821015613b5e57613b5d613c9a565b5b828203905092915050565b6000613b7482613bb3565b9050919050565b60008115159050919050565b60007fffffffff0000000000000000000000000000000000000000000000000000000082169050919050565b600073ffffffffffffffffffffffffffffffffffffffff82169050919050565b6000819050919050565b60006bffffffffffffffffffffffff82169050919050565b82818337600083830152505050565b60005b83811015613c22578082015181840152602081019050613c07565b83811115613c31576000848401525b50505050565b60006002820490506001821680613c4f57607f821691505b60208210811415613c6357613c62613cc9565b5b50919050565b613c7282613d27565b810181811067ffffffffffffffff82111715613c9157613c90613cf8565b5b80604052505050565b7f4e487b7100000000000000000000000000000000000000000000000000000000600052601160045260246000fd5b7f4e487b7100000000000000000000000000000000000000000000000000000000600052602260045260246000fd5b7f4e487b7100000000000000000000000000000000000000000000000000000000600052604160045260246000fd5b6000601f19601f8301169050919050565b7f6f7574206f6620736561736f6e00000000000000000000000000000000000000600082015250565b7f4552433732313a2063616c6c6572206973206e6f7420746f6b656e206f776e6560008201527f72206f7220617070726f76656400000000000000000000000000000000000000602082015250565b7f455243373231456e756d657261626c653a206f776e657220696e646578206f7560008201527f74206f6620626f756e6473000000000000000000000000000000000000000000602082015250565b7f4552433732313a207472616e7366657220746f206e6f6e20455243373231526560008201527f63656976657220696d706c656d656e7465720000000000000000000000000000602082015250565b7f536f6c64204f7574000000000000000000000000000000000000000000000000600082015250565b7f4f776e61626c653a206e6577206f776e657220697320746865207a65726f206160008201527f6464726573730000000000000000000000000000000000000000000000000000602082015250565b7f4552433732313a207472616e736665722066726f6d20696e636f72726563742060008201527f6f776e6572000000000000000000000000000000000000000000000000000000602082015250565b7f4552433732313a20746f6b656e20616c7265616479206d696e74656400000000600082015250565b7f496e73756666696369656e742046756e64730000000000000000000000000000600082015250565b7f4552433732313a207472616e7366657220746f20746865207a65726f2061646460008201527f7265737300000000000000000000000000000000000000000000000000000000602082015250565b7f4552433732313a20617070726f766520746f2063616c6c657200000000000000600082015250565b7f4552433732313a2061646472657373207a65726f206973206e6f74206120766160008201527f6c6964206f776e65720000000000000000000000000000000000000000000000602082015250565b7f45524337323155524953746f726167653a2055524920736574206f66206e6f6e60008201527f6578697374656e7420746f6b656e000000000000000000000000000000000000602082015250565b7f4552433732313a206d696e7420746f20746865207a65726f2061646472657373600082015250565b7f4f776e61626c653a2063616c6c6572206973206e6f7420746865206f776e6572600082015250565b7f4552433732313a20696e76616c696420746f6b656e2049440000000000000000600082015250565b7f4552433732313a20617070726f76616c20746f2063757272656e74206f776e6560008201527f7200000000000000000000000000000000000000000000000000000000000000602082015250565b7f4552433732313a20617070726f76652063616c6c6572206973206e6f7420746f60008201527f6b656e206f776e6572206f7220617070726f76656420666f7220616c6c000000602082015250565b7f455243373231456e756d657261626c653a20676c6f62616c20696e646578206f60008201527f7574206f6620626f756e64730000000000000000000000000000000000000000602082015250565b7f455243373231456e756d657261626c653a20636f6e736563757469766520747260008201527f616e7366657273206e6f7420737570706f727465640000000000000000000000602082015250565b61423d81613b69565b811461424857600080fd5b50565b61425481613b7b565b811461425f57600080fd5b50565b61426b81613b87565b811461427657600080fd5b50565b61428281613bd3565b811461428d57600080fd5b50565b61429981613bdd565b81146142a457600080fd5b5056fea264697066735822122054eda5d73fa74bd14691e2e5ef610ee09cc7e6be8a6c67f2875f0077093aab1564736f6c63430008040033",
  "linkReferences": {},
  "deployedLinkReferences": {}
}