{
  "_format": "hh-sol-artifact-1",
  "contractName": "TestGoose20",
  "sourceName": "contracts/TestContract3.sol",
  "abi": [
    {
      "inputs": [],
      "stateMutability": "nonpayable",
      "type": "constructor"
    },
    {
      "anonymous": false,
      "inputs": [
        {
          "indexed": true,
          "internalType": "address",
          "name": "owner",
          "type": "address"
        },
        {
          "indexed": true,
          "internalType": "address",
          "name": "approved",
          "type": "address"
        },
        {
          "indexed": true,
          "internalType": "uint256",
          "name": "tokenId",
          "type": "uint256"
        }
      ],
      "name": "Approval",
      "type": "event"
    },
    {
      "anonymous": false,
      "inputs": [
        {
          "indexed": true,
          "internalType": "address",
          "name": "owner",
          "type": "address"
        },
        {
          "indexed": true,
          "internalType": "address",
          "name": "operator",
          "type": "address"
        },
        {
          "indexed": false,
          "internalType": "bool",
          "name": "approved",
          "type": "bool"
        }
      ],
      "name": "ApprovalForAll",
      "type": "event"
    },
    {
      "anonymous": false,
      "inputs": [
        {
          "indexed": true,
          "internalType": "address",
          "name": "previousOwner",
          "type": "address"
        },
        {
          "indexed": true,
          "internalType": "address",
          "name": "newOwner",
          "type": "address"
        }
      ],
      "name": "OwnershipTransferred",
      "type": "event"
    },
    {
      "anonymous": false,
      "inputs": [
        {
          "indexed": true,
          "internalType": "address",
          "name": "from",
          "type": "address"
        },
        {
          "indexed": true,
          "internalType": "address",
          "name": "to",
          "type": "address"
        },
        {
          "indexed": true,
          "internalType": "uint256",
          "name": "tokenId",
          "type": "uint256"
        }
      ],
      "name": "Transfer",
      "type": "event"
    },
    {
      "inputs": [],
      "name": "Duringseason",
      "outputs": [
        {
          "internalType": "bool",
          "name": "",
          "type": "bool"
        }
      ],
      "stateMutability": "view",
      "type": "function"
    },
    {
      "inputs": [
        {
          "internalType": "address",
          "name": "to",
          "type": "address"
        },
        {
          "internalType": "string",
          "name": "uri",
          "type": "string"
        }
      ],
      "name": "PayToMint",
      "outputs": [],
      "stateMutability": "payable",
      "type": "function"
    },
    {
      "inputs": [],
      "name": "Setseasons",
      "outputs": [],
      "stateMutability": "nonpayable",
      "type": "function"
    },
    {
      "inputs": [
        {
          "internalType": "address",
          "name": "to",
          "type": "address"
        },
        {
          "internalType": "uint256",
          "name": "tokenId",
          "type": "uint256"
        }
      ],
      "name": "approve",
      "outputs": [],
      "stateMutability": "nonpayable",
      "type": "function"
    },
    {
      "inputs": [
        {
          "internalType": "address",
          "name": "owner",
          "type": "address"
        }
      ],
      "name": "balanceOf",
      "outputs": [
        {
          "internalType": "uint256",
          "name": "",
          "type": "uint256"
        }
      ],
      "stateMutability": "view",
      "type": "function"
    },
    {
      "inputs": [
        {
          "internalType": "uint256",
          "name": "tokenId",
          "type": "uint256"
        }
      ],
      "name": "getApproved",
      "outputs": [
        {
          "internalType": "address",
          "name": "",
          "type": "address"
        }
      ],
      "stateMutability": "view",
      "type": "function"
    },
    {
      "inputs": [],
      "name": "getBalance",
      "outputs": [
        {
          "internalType": "uint256",
          "name": "",
          "type": "uint256"
        }
      ],
      "stateMutability": "view",
      "type": "function"
    },
    {
      "inputs": [
        {
          "internalType": "address",
          "name": "owner",
          "type": "address"
        },
        {
          "internalType": "address",
          "name": "operator",
          "type": "address"
        }
      ],
      "name": "isApprovedForAll",
      "outputs": [
        {
          "internalType": "bool",
          "name": "",
          "type": "bool"
        }
      ],
      "stateMutability": "view",
      "type": "function"
    },
    {
      "inputs": [],
      "name": "name",
      "outputs": [
        {
          "internalType": "string",
          "name": "",
          "type": "string"
        }
      ],
      "stateMutability": "view",
      "type": "function"
    },
    {
      "inputs": [],
      "name": "owner",
      "outputs": [
        {
          "internalType": "address",
          "name": "",
          "type": "address"
        }
      ],
      "stateMutability": "view",
      "type": "function"
    },
    {
      "inputs": [
        {
          "internalType": "uint256",
          "name": "tokenId",
          "type": "uint256"
        }
      ],
      "name": "ownerOf",
      "outputs": [
        {
          "internalType": "address",
          "name": "",
          "type": "address"
        }
      ],
      "stateMutability": "view",
      "type": "function"
    },
    {
      "inputs": [],
      "name": "renounceOwnership",
      "outputs": [],
      "stateMutability": "nonpayable",
      "type": "function"
    },
    {
      "inputs": [
        {
          "internalType": "address",
          "name": "to",
          "type": "address"
        },
        {
          "internalType": "string",
          "name": "uri",
          "type": "string"
        }
      ],
      "name": "safeMint",
      "outputs": [],
      "stateMutability": "nonpayable",
      "type": "function"
    },
    {
      "inputs": [
        {
          "internalType": "address",
          "name": "from",
          "type": "address"
        },
        {
          "internalType": "address",
          "name": "to",
          "type": "address"
        },
        {
          "internalType": "uint256",
          "name": "tokenId",
          "type": "uint256"
        }
      ],
      "name": "safeTransferFrom",
      "outputs": [],
      "stateMutability": "nonpayable",
      "type": "function"
    },
    {
      "inputs": [
        {
          "internalType": "address",
          "name": "from",
          "type": "address"
        },
        {
          "internalType": "address",
          "name": "to",
          "type": "address"
        },
        {
          "internalType": "uint256",
          "name": "tokenId",
          "type": "uint256"
        },
        {
          "internalType": "bytes",
          "name": "data",
          "type": "bytes"
        }
      ],
      "name": "safeTransferFrom",
      "outputs": [],
      "stateMutability": "nonpayable",
      "type": "function"
    },
    {
      "inputs": [],
      "name": "seasonStart",
      "outputs": [],
      "stateMutability": "nonpayable",
      "type": "function"
    },
    {
      "inputs": [
        {
          "internalType": "address",
          "name": "operator",
          "type": "address"
        },
        {
          "internalType": "bool",
          "name": "approved",
          "type": "bool"
        }
      ],
      "name": "setApprovalForAll",
      "outputs": [],
      "stateMutability": "nonpayable",
      "type": "function"
    },
    {
      "inputs": [
        {
          "internalType": "bytes4",
          "name": "interfaceId",
          "type": "bytes4"
        }
      ],
      "name": "supportsInterface",
      "outputs": [
        {
          "internalType": "bool",
          "name": "",
          "type": "bool"
        }
      ],
      "stateMutability": "view",
      "type": "function"
    },
    {
      "inputs": [],
      "name": "symbol",
      "outputs": [
        {
          "internalType": "string",
          "name": "",
          "type": "string"
        }
      ],
      "stateMutability": "view",
      "type": "function"
    },
    {
      "inputs": [
        {
          "internalType": "uint256",
          "name": "index",
          "type": "uint256"
        }
      ],
      "name": "tokenByIndex",
      "outputs": [
        {
          "internalType": "uint256",
          "name": "",
          "type": "uint256"
        }
      ],
      "stateMutability": "view",
      "type": "function"
    },
    {
      "inputs": [
        {
          "internalType": "address",
          "name": "owner",
          "type": "address"
        },
        {
          "internalType": "uint256",
          "name": "index",
          "type": "uint256"
        }
      ],
      "name": "tokenOfOwnerByIndex",
      "outputs": [
        {
          "internalType": "uint256",
          "name": "",
          "type": "uint256"
        }
      ],
      "stateMutability": "view",
      "type": "function"
    },
    {
      "inputs": [
        {
          "internalType": "uint256",
          "name": "tokenId",
          "type": "uint256"
        }
      ],
      "name": "tokenURI",
      "outputs": [
        {
          "internalType": "string",
          "name": "",
          "type": "string"
        }
      ],
      "stateMutability": "view",
      "type": "function"
    },
    {
      "inputs": [],
      "name": "totalSupply",
      "outputs": [
        {
          "internalType": "uint256",
          "name": "",
          "type": "uint256"
        }
      ],
      "stateMutability": "view",
      "type": "function"
    },
    {
      "inputs": [
        {
          "internalType": "address",
          "name": "from",
          "type": "address"
        },
        {
          "internalType": "address",
          "name": "to",
          "type": "address"
        },
        {
          "internalType": "uint256",
          "name": "tokenId",
          "type": "uint256"
        }
      ],
      "name": "transferFrom",
      "outputs": [],
      "stateMutability": "nonpayable",
      "type": "function"
    },
    {
      "inputs": [
        {
          "internalType": "address",
          "name": "newOwner",
          "type": "address"
        }
      ],
      "name": "transferOwnership",
      "outputs": [],
      "stateMutability": "nonpayable",
      "type": "function"
    },
    {
      "inputs": [],
      "name": "withdrawMoneyTo",
      "outputs": [],
      "stateMutability": "nonpayable",
      "type": "function"
    }
  ],
  "bytecode": "0x60806040526019600c556001600d60006101000a81548160ff02191690831515021790555073dd870fa1b7c4700f2bd7f44238821c26f7392148600f60006101000a81548173ffffffffffffffffffffffffffffffffffffffff021916908373ffffffffffffffffffffffffffffffffffffffff1602179055503480156200008657600080fd5b506040518060400160405280600a81526020017f54657374476f6f736532000000000000000000000000000000000000000000008152506040518060400160405280600381526020017f544753000000000000000000000000000000000000000000000000000000000081525081600090805190602001906200010b9291906200021b565b508060019080519060200190620001249291906200021b565b505050620001476200013b6200014d60201b60201c565b6200015560201b60201c565b62000330565b600033905090565b6000600b60009054906101000a900473ffffffffffffffffffffffffffffffffffffffff16905081600b60006101000a81548173ffffffffffffffffffffffffffffffffffffffff021916908373ffffffffffffffffffffffffffffffffffffffff1602179055508173ffffffffffffffffffffffffffffffffffffffff168173ffffffffffffffffffffffffffffffffffffffff167f8be0079c531659141344cd1fd0a4f28419497f9722a3daafe3b4186f6b6457e060405160405180910390a35050565b8280546200022990620002cb565b90600052602060002090601f0160209004810192826200024d576000855562000299565b82601f106200026857805160ff191683800117855562000299565b8280016001018555821562000299579182015b82811115620002985782518255916020019190600101906200027b565b5b509050620002a89190620002ac565b5090565b5b80821115620002c7576000816000905550600101620002ad565b5090565b60006002820490506001821680620002e457607f821691505b60208210811415620002fb57620002fa62000301565b5b50919050565b7f4e487b7100000000000000000000000000000000000000000000000000000000600052602260045260246000fd5b613c3880620003406000396000f3fe6080604052600436106101815760003560e01c806370a08231116100d1578063b88d4fde1161008a578063d204c45e11610064578063d204c45e1461055c578063db980b5d14610585578063e985e9c5146105a1578063f2fde38b146105de57610181565b8063b88d4fde146104df578063bafa094614610508578063c87b56dd1461051f57610181565b806370a08231146103e1578063715018a61461041e5780637f885cd5146104355780638da5cb5b1461046057806395d89b411461048b578063a22cb465146104b657610181565b806318160ddd1161013e5780632f745c59116101185780632f745c591461030157806342842e0e1461033e5780634f6ccce7146103675780636352211e146103a457610181565b806318160ddd1461029657806323b872dd146102c15780632f36aae4146102ea57610181565b806301ffc9a71461018657806306fdde03146101c3578063081812fc146101ee578063086f708a1461022b578063095ea7b31461024257806312065fe01461026b575b600080fd5b34801561019257600080fd5b506101ad60048036038101906101a89190612d0d565b610607565b6040516101ba9190613159565b60405180910390f35b3480156101cf57600080fd5b506101d8610619565b6040516101e59190613174565b60405180910390f35b3480156101fa57600080fd5b5061021560048036038101906102109190612d5f565b6106ab565b60405161022291906130f2565b60405180910390f35b34801561023757600080fd5b506102406106f1565b005b34801561024e57600080fd5b5061026960048036038101906102649190612cd1565b610763565b005b34801561027757600080fd5b5061028061087b565b60405161028d91906133d6565b60405180910390f35b3480156102a257600080fd5b506102ab610883565b6040516102b891906133d6565b60405180910390f35b3480156102cd57600080fd5b506102e860048036038101906102e39190612b77565b610890565b005b3480156102f657600080fd5b506102ff6108f0565b005b34801561030d57600080fd5b5061032860048036038101906103239190612cd1565b610956565b60405161033591906133d6565b60405180910390f35b34801561034a57600080fd5b5061036560048036038101906103609190612b77565b6109fb565b005b34801561037357600080fd5b5061038e60048036038101906103899190612d5f565b610a1b565b60405161039b91906133d6565b60405180910390f35b3480156103b057600080fd5b506103cb60048036038101906103c69190612d5f565b610ab2565b6040516103d891906130f2565b60405180910390f35b3480156103ed57600080fd5b5061040860048036038101906104039190612b12565b610b39565b60405161041591906133d6565b60405180910390f35b34801561042a57600080fd5b50610433610bf1565b005b34801561044157600080fd5b5061044a610c05565b6040516104579190613159565b60405180910390f35b34801561046c57600080fd5b50610475610c24565b60405161048291906130f2565b60405180910390f35b34801561049757600080fd5b506104a0610c4e565b6040516104ad9190613174565b60405180910390f35b3480156104c257600080fd5b506104dd60048036038101906104d89190612c41565b610ce0565b005b3480156104eb57600080fd5b5061050660048036038101906105019190612bc6565b610cf6565b005b34801561051457600080fd5b5061051d610d58565b005b34801561052b57600080fd5b5061054660048036038101906105419190612d5f565b610d7d565b6040516105539190613174565b60405180910390f35b34801561056857600080fd5b50610583600480360381019061057e9190612c7d565b610d8f565b005b61059f600480360381019061059a9190612c7d565b610e0d565b005b3480156105ad57600080fd5b506105c860048036038101906105c39190612b3b565b610e46565b6040516105d59190613159565b60405180910390f35b3480156105ea57600080fd5b5061060560048036038101906106009190612b12565b610eda565b005b600061061282610f5e565b9050919050565b606060008054610628906135fb565b80601f0160208091040260200160405190810160405280929190818152602001828054610654906135fb565b80156106a15780601f10610676576101008083540402835291602001916106a1565b820191906000526020600020905b81548152906001019060200180831161068457829003601f168201915b5050505050905090565b60006106b682610fd8565b6004600083815260200190815260200160002060009054906101000a900473ffffffffffffffffffffffffffffffffffffffff169050919050565b600f60009054906101000a900473ffffffffffffffffffffffffffffffffffffffff1673ffffffffffffffffffffffffffffffffffffffff166108fc61073561087b565b9081150290604051600060405180830381858888f19350505050158015610760573d6000803e3d6000fd5b50565b600061076e82610ab2565b90508073ffffffffffffffffffffffffffffffffffffffff168373ffffffffffffffffffffffffffffffffffffffff1614156107df576040517f08c379a00000000000000000000000000000000000000000000000000000000081526004016107d690613356565b60405180910390fd5b8073ffffffffffffffffffffffffffffffffffffffff166107fe611023565b73ffffffffffffffffffffffffffffffffffffffff16148061082d575061082c81610827611023565b610e46565b5b61086c576040517f08c379a000000000000000000000000000000000000000000000000000000000815260040161086390613376565b60405180910390fd5b610876838361102b565b505050565b600047905090565b6000600880549050905090565b6108a161089b611023565b826110e4565b6108e0576040517f08c379a00000000000000000000000000000000000000000000000000000000081526004016108d790613196565b60405180910390fd5b6108eb838383611179565b505050565b6108f8611473565b6002610904600e6114f1565b1415610926576000600d60006101000a81548160ff0219169083151502179055505b6004610932600e6114f1565b1415610954576000600d60006101000a81548160ff0219169083151502179055505b565b600061096183610b39565b82106109a2576040517f08c379a0000000000000000000000000000000000000000000000000000000008152600401610999906131b6565b60405180910390fd5b600660008473ffffffffffffffffffffffffffffffffffffffff1673ffffffffffffffffffffffffffffffffffffffff168152602001908152602001600020600083815260200190815260200160002054905092915050565b610a1683838360405180602001604052806000815250610cf6565b505050565b6000610a25610883565b8210610a66576040517f08c379a0000000000000000000000000000000000000000000000000000000008152600401610a5d90613396565b60405180910390fd5b60088281548110610aa0577f4e487b7100000000000000000000000000000000000000000000000000000000600052603260045260246000fd5b90600052602060002001549050919050565b600080610abe836114ff565b9050600073ffffffffffffffffffffffffffffffffffffffff168173ffffffffffffffffffffffffffffffffffffffff161415610b30576040517f08c379a0000000000000000000000000000000000000000000000000000000008152600401610b2790613336565b60405180910390fd5b80915050919050565b60008073ffffffffffffffffffffffffffffffffffffffff168273ffffffffffffffffffffffffffffffffffffffff161415610baa576040517f08c379a0000000000000000000000000000000000000000000000000000000008152600401610ba1906132b6565b60405180910390fd5b600360008373ffffffffffffffffffffffffffffffffffffffff1673ffffffffffffffffffffffffffffffffffffffff168152602001908152602001600020549050919050565b610bf9611473565b610c03600061153c565b565b6000610c0f611473565b600d60009054906101000a900460ff16905090565b6000600b60009054906101000a900473ffffffffffffffffffffffffffffffffffffffff16905090565b606060018054610c5d906135fb565b80601f0160208091040260200160405190810160405280929190818152602001828054610c89906135fb565b8015610cd65780601f10610cab57610100808354040283529160200191610cd6565b820191906000526020600020905b815481529060010190602001808311610cb957829003601f168201915b5050505050905090565b610cf2610ceb611023565b8383611602565b5050565b610d07610d01611023565b836110e4565b610d46576040517f08c379a0000000000000000000000000000000000000000000000000000000008152600401610d3d90613196565b60405180910390fd5b610d528484848461176f565b50505050565b610d60611473565b6001600d60006101000a81548160ff021916908315150217905550565b6060610d88826117cb565b9050919050565b610d97611473565b6000610da3600e6114f1565b9050600c54811115610dea576040517f08c379a0000000000000000000000000000000000000000000000000000000008152600401610de1906131f6565b60405180910390fd5b610df4600e6118de565b610dfe83826118f4565b610e088183611912565b505050565b6000610e19600e6114f1565b9050610e25600e6118de565b610e2f83826118f4565b610e398183611912565b610e416108f0565b505050565b6000600560008473ffffffffffffffffffffffffffffffffffffffff1673ffffffffffffffffffffffffffffffffffffffff16815260200190815260200160002060008373ffffffffffffffffffffffffffffffffffffffff1673ffffffffffffffffffffffffffffffffffffffff16815260200190815260200160002060009054906101000a900460ff16905092915050565b610ee2611473565b600073ffffffffffffffffffffffffffffffffffffffff168173ffffffffffffffffffffffffffffffffffffffff161415610f52576040517f08c379a0000000000000000000000000000000000000000000000000000000008152600401610f4990613216565b60405180910390fd5b610f5b8161153c565b50565b60007f780e9d63000000000000000000000000000000000000000000000000000000007bffffffffffffffffffffffffffffffffffffffffffffffffffffffff1916827bffffffffffffffffffffffffffffffffffffffffffffffffffffffff19161480610fd15750610fd082611986565b5b9050919050565b610fe181611a68565b611020576040517f08c379a000000000000000000000000000000000000000000000000000000000815260040161101790613336565b60405180910390fd5b50565b600033905090565b816004600083815260200190815260200160002060006101000a81548173ffffffffffffffffffffffffffffffffffffffff021916908373ffffffffffffffffffffffffffffffffffffffff160217905550808273ffffffffffffffffffffffffffffffffffffffff1661109e83610ab2565b73ffffffffffffffffffffffffffffffffffffffff167f8c5be1e5ebec7d5bd14f71427d1e84f3dd0314c0f7b2291e5b200ac8c7c3b92560405160405180910390a45050565b6000806110f083610ab2565b90508073ffffffffffffffffffffffffffffffffffffffff168473ffffffffffffffffffffffffffffffffffffffff16148061113257506111318185610e46565b5b8061117057508373ffffffffffffffffffffffffffffffffffffffff16611158846106ab565b73ffffffffffffffffffffffffffffffffffffffff16145b91505092915050565b8273ffffffffffffffffffffffffffffffffffffffff1661119982610ab2565b73ffffffffffffffffffffffffffffffffffffffff16146111ef576040517f08c379a00000000000000000000000000000000000000000000000000000000081526004016111e690613236565b60405180910390fd5b600073ffffffffffffffffffffffffffffffffffffffff168273ffffffffffffffffffffffffffffffffffffffff16141561125f576040517f08c379a000000000000000000000000000000000000000000000000000000000815260040161125690613276565b60405180910390fd5b61126c8383836001611aa9565b8273ffffffffffffffffffffffffffffffffffffffff1661128c82610ab2565b73ffffffffffffffffffffffffffffffffffffffff16146112e2576040517f08c379a00000000000000000000000000000000000000000000000000000000081526004016112d990613236565b60405180910390fd5b6004600082815260200190815260200160002060006101000a81549073ffffffffffffffffffffffffffffffffffffffff02191690556001600360008573ffffffffffffffffffffffffffffffffffffffff1673ffffffffffffffffffffffffffffffffffffffff168152602001908152602001600020600082825403925050819055506001600360008473ffffffffffffffffffffffffffffffffffffffff1673ffffffffffffffffffffffffffffffffffffffff16815260200190815260200160002060008282540192505081905550816002600083815260200190815260200160002060006101000a81548173ffffffffffffffffffffffffffffffffffffffff021916908373ffffffffffffffffffffffffffffffffffffffff160217905550808273ffffffffffffffffffffffffffffffffffffffff168473ffffffffffffffffffffffffffffffffffffffff167fddf252ad1be2c89b69c2b068fc378daa952ba7f163c4a11628f55a4df523b3ef60405160405180910390a461146e8383836001611abb565b505050565b61147b611023565b73ffffffffffffffffffffffffffffffffffffffff16611499610c24565b73ffffffffffffffffffffffffffffffffffffffff16146114ef576040517f08c379a00000000000000000000000000000000000000000000000000000000081526004016114e690613316565b60405180910390fd5b565b600081600001549050919050565b60006002600083815260200190815260200160002060009054906101000a900473ffffffffffffffffffffffffffffffffffffffff169050919050565b6000600b60009054906101000a900473ffffffffffffffffffffffffffffffffffffffff16905081600b60006101000a81548173ffffffffffffffffffffffffffffffffffffffff021916908373ffffffffffffffffffffffffffffffffffffffff1602179055508173ffffffffffffffffffffffffffffffffffffffff168173ffffffffffffffffffffffffffffffffffffffff167f8be0079c531659141344cd1fd0a4f28419497f9722a3daafe3b4186f6b6457e060405160405180910390a35050565b8173ffffffffffffffffffffffffffffffffffffffff168373ffffffffffffffffffffffffffffffffffffffff161415611671576040517f08c379a000000000000000000000000000000000000000000000000000000000815260040161166890613296565b60405180910390fd5b80600560008573ffffffffffffffffffffffffffffffffffffffff1673ffffffffffffffffffffffffffffffffffffffff16815260200190815260200160002060008473ffffffffffffffffffffffffffffffffffffffff1673ffffffffffffffffffffffffffffffffffffffff16815260200190815260200160002060006101000a81548160ff0219169083151502179055508173ffffffffffffffffffffffffffffffffffffffff168373ffffffffffffffffffffffffffffffffffffffff167f17307eab39ab6107e8899845ad3d59bd9653f200f220920489ca2b5937696c31836040516117629190613159565b60405180910390a3505050565b61177a848484611179565b61178684848484611ac1565b6117c5576040517f08c379a00000000000000000000000000000000000000000000000000000000081526004016117bc906131d6565b60405180910390fd5b50505050565b60606117d682610fd8565b6000600a600084815260200190815260200160002080546117f6906135fb565b80601f0160208091040260200160405190810160405280929190818152602001828054611822906135fb565b801561186f5780601f106118445761010080835404028352916020019161186f565b820191906000526020600020905b81548152906001019060200180831161185257829003601f168201915b505050505090506000611880611c58565b90506000815114156118965781925050506118d9565b6000825111156118cb5780826040516020016118b39291906130ce565b604051602081830303815290604052925050506118d9565b6118d484611c6f565b925050505b919050565b6001816000016000828254019250508190555050565b61190e828260405180602001604052806000815250611cd7565b5050565b61191b82611a68565b61195a576040517f08c379a0000000000000000000000000000000000000000000000000000000008152600401611951906132d6565b60405180910390fd5b80600a60008481526020019081526020016000209080519060200190611981929190612936565b505050565b60007f80ac58cd000000000000000000000000000000000000000000000000000000007bffffffffffffffffffffffffffffffffffffffffffffffffffffffff1916827bffffffffffffffffffffffffffffffffffffffffffffffffffffffff19161480611a5157507f5b5e139f000000000000000000000000000000000000000000000000000000007bffffffffffffffffffffffffffffffffffffffffffffffffffffffff1916827bffffffffffffffffffffffffffffffffffffffffffffffffffffffff1916145b80611a615750611a6082611d32565b5b9050919050565b60008073ffffffffffffffffffffffffffffffffffffffff16611a8a836114ff565b73ffffffffffffffffffffffffffffffffffffffff1614159050919050565b611ab584848484611d9c565b50505050565b50505050565b6000611ae28473ffffffffffffffffffffffffffffffffffffffff16611efc565b15611c4b578373ffffffffffffffffffffffffffffffffffffffff1663150b7a02611b0b611023565b8786866040518563ffffffff1660e01b8152600401611b2d949392919061310d565b602060405180830381600087803b158015611b4757600080fd5b505af1925050508015611b7857506040513d601f19601f82011682018060405250810190611b759190612d36565b60015b611bfb573d8060008114611ba8576040519150601f19603f3d011682016040523d82523d6000602084013e611bad565b606091505b50600081511415611bf3576040517f08c379a0000000000000000000000000000000000000000000000000000000008152600401611bea906131d6565b60405180910390fd5b805181602001fd5b63150b7a0260e01b7bffffffffffffffffffffffffffffffffffffffffffffffffffffffff1916817bffffffffffffffffffffffffffffffffffffffffffffffffffffffff191614915050611c50565b600190505b949350505050565b606060405180602001604052806000815250905090565b6060611c7a82610fd8565b6000611c84611c58565b90506000815111611ca45760405180602001604052806000815250611ccf565b80611cae84611f1f565b604051602001611cbf9291906130ce565b6040516020818303038152906040525b915050919050565b611ce18383612043565b611cee6000848484611ac1565b611d2d576040517f08c379a0000000000000000000000000000000000000000000000000000000008152600401611d24906131d6565b60405180910390fd5b505050565b60007f01ffc9a7000000000000000000000000000000000000000000000000000000007bffffffffffffffffffffffffffffffffffffffffffffffffffffffff1916827bffffffffffffffffffffffffffffffffffffffffffffffffffffffff1916149050919050565b611da884848484612261565b6001811115611dec576040517f08c379a0000000000000000000000000000000000000000000000000000000008152600401611de3906133b6565b60405180910390fd5b6000829050600073ffffffffffffffffffffffffffffffffffffffff168573ffffffffffffffffffffffffffffffffffffffff161415611e3457611e2f81612387565b611e73565b8373ffffffffffffffffffffffffffffffffffffffff168573ffffffffffffffffffffffffffffffffffffffff1614611e7257611e7185826123d0565b5b5b600073ffffffffffffffffffffffffffffffffffffffff168473ffffffffffffffffffffffffffffffffffffffff161415611eb657611eb18161253d565b611ef5565b8473ffffffffffffffffffffffffffffffffffffffff168473ffffffffffffffffffffffffffffffffffffffff1614611ef457611ef38482612680565b5b5b5050505050565b6000808273ffffffffffffffffffffffffffffffffffffffff163b119050919050565b606060006001611f2e846126ff565b01905060008167ffffffffffffffff811115611f73577f4e487b7100000000000000000000000000000000000000000000000000000000600052604160045260246000fd5b6040519080825280601f01601f191660200182016040528015611fa55781602001600182028036833780820191505090505b509050600082602001820190505b600115612038578080600190039150507f3031323334353637383961626364656600000000000000000000000000000000600a86061a8153600a8581612022577f4e487b7100000000000000000000000000000000000000000000000000000000600052601260045260246000fd5b049450600085141561203357612038565b611fb3565b819350505050919050565b600073ffffffffffffffffffffffffffffffffffffffff168273ffffffffffffffffffffffffffffffffffffffff1614156120b3576040517f08c379a00000000000000000000000000000000000000000000000000000000081526004016120aa906132f6565b60405180910390fd5b6120bc81611a68565b156120fc576040517f08c379a00000000000000000000000000000000000000000000000000000000081526004016120f390613256565b60405180910390fd5b61210a600083836001611aa9565b61211381611a68565b15612153576040517f08c379a000000000000000000000000000000000000000000000000000000000815260040161214a90613256565b60405180910390fd5b6001600360008473ffffffffffffffffffffffffffffffffffffffff1673ffffffffffffffffffffffffffffffffffffffff16815260200190815260200160002060008282540192505081905550816002600083815260200190815260200160002060006101000a81548173ffffffffffffffffffffffffffffffffffffffff021916908373ffffffffffffffffffffffffffffffffffffffff160217905550808273ffffffffffffffffffffffffffffffffffffffff16600073ffffffffffffffffffffffffffffffffffffffff167fddf252ad1be2c89b69c2b068fc378daa952ba7f163c4a11628f55a4df523b3ef60405160405180910390a461225d600083836001611abb565b5050565b600181111561238157600073ffffffffffffffffffffffffffffffffffffffff168473ffffffffffffffffffffffffffffffffffffffff16146122f55780600360008673ffffffffffffffffffffffffffffffffffffffff1673ffffffffffffffffffffffffffffffffffffffff16815260200190815260200160002060008282546122ed9190613511565b925050819055505b600073ffffffffffffffffffffffffffffffffffffffff168373ffffffffffffffffffffffffffffffffffffffff16146123805780600360008573ffffffffffffffffffffffffffffffffffffffff1673ffffffffffffffffffffffffffffffffffffffff168152602001908152602001600020600082825461237891906134bb565b925050819055505b5b50505050565b6008805490506009600083815260200190815260200160002081905550600881908060018154018082558091505060019003906000526020600020016000909190919091505550565b600060016123dd84610b39565b6123e79190613511565b90506000600760008481526020019081526020016000205490508181146124cc576000600660008673ffffffffffffffffffffffffffffffffffffffff1673ffffffffffffffffffffffffffffffffffffffff168152602001908152602001600020600084815260200190815260200160002054905080600660008773ffffffffffffffffffffffffffffffffffffffff1673ffffffffffffffffffffffffffffffffffffffff168152602001908152602001600020600084815260200190815260200160002081905550816007600083815260200190815260200160002081905550505b6007600084815260200190815260200160002060009055600660008573ffffffffffffffffffffffffffffffffffffffff1673ffffffffffffffffffffffffffffffffffffffff16815260200190815260200160002060008381526020019081526020016000206000905550505050565b600060016008805490506125519190613511565b90506000600960008481526020019081526020016000205490506000600883815481106125a7577f4e487b7100000000000000000000000000000000000000000000000000000000600052603260045260246000fd5b9060005260206000200154905080600883815481106125ef577f4e487b7100000000000000000000000000000000000000000000000000000000600052603260045260246000fd5b906000526020600020018190555081600960008381526020019081526020016000208190555060096000858152602001908152602001600020600090556008805480612664577f4e487b7100000000000000000000000000000000000000000000000000000000600052603160045260246000fd5b6001900381819060005260206000200160009055905550505050565b600061268b83610b39565b905081600660008573ffffffffffffffffffffffffffffffffffffffff1673ffffffffffffffffffffffffffffffffffffffff168152602001908152602001600020600083815260200190815260200160002081905550806007600084815260200190815260200160002081905550505050565b600080600090507a184f03e93ff9f4daa797ed6e38ed64bf6a1f0100000000000000008310612783577a184f03e93ff9f4daa797ed6e38ed64bf6a1f0100000000000000008381612779577f4e487b7100000000000000000000000000000000000000000000000000000000600052601260045260246000fd5b0492506040810190505b6d04ee2d6d415b85acef810000000083106127e6576d04ee2d6d415b85acef810000000083816127dc577f4e487b7100000000000000000000000000000000000000000000000000000000600052601260045260246000fd5b0492506020810190505b662386f26fc10000831061283b57662386f26fc100008381612831577f4e487b7100000000000000000000000000000000000000000000000000000000600052601260045260246000fd5b0492506010810190505b6305f5e100831061288a576305f5e1008381612880577f4e487b7100000000000000000000000000000000000000000000000000000000600052601260045260246000fd5b0492506008810190505b61271083106128d55761271083816128cb577f4e487b7100000000000000000000000000000000000000000000000000000000600052601260045260246000fd5b0492506004810190505b6064831061291e5760648381612914577f4e487b7100000000000000000000000000000000000000000000000000000000600052601260045260246000fd5b0492506002810190505b600a831061292d576001810190505b80915050919050565b828054612942906135fb565b90600052602060002090601f01602090048101928261296457600085556129ab565b82601f1061297d57805160ff19168380011785556129ab565b828001600101855582156129ab579182015b828111156129aa57825182559160200191906001019061298f565b5b5090506129b891906129bc565b5090565b5b808211156129d55760008160009055506001016129bd565b5090565b60006129ec6129e784613416565b6133f1565b905082815260208101848484011115612a0457600080fd5b612a0f8482856135b9565b509392505050565b6000612a2a612a2584613447565b6133f1565b905082815260208101848484011115612a4257600080fd5b612a4d8482856135b9565b509392505050565b600081359050612a6481613ba6565b92915050565b600081359050612a7981613bbd565b92915050565b600081359050612a8e81613bd4565b92915050565b600081519050612aa381613bd4565b92915050565b600082601f830112612aba57600080fd5b8135612aca8482602086016129d9565b91505092915050565b600082601f830112612ae457600080fd5b8135612af4848260208601612a17565b91505092915050565b600081359050612b0c81613beb565b92915050565b600060208284031215612b2457600080fd5b6000612b3284828501612a55565b91505092915050565b60008060408385031215612b4e57600080fd5b6000612b5c85828601612a55565b9250506020612b6d85828601612a55565b9150509250929050565b600080600060608486031215612b8c57600080fd5b6000612b9a86828701612a55565b9350506020612bab86828701612a55565b9250506040612bbc86828701612afd565b9150509250925092565b60008060008060808587031215612bdc57600080fd5b6000612bea87828801612a55565b9450506020612bfb87828801612a55565b9350506040612c0c87828801612afd565b925050606085013567ffffffffffffffff811115612c2957600080fd5b612c3587828801612aa9565b91505092959194509250565b60008060408385031215612c5457600080fd5b6000612c6285828601612a55565b9250506020612c7385828601612a6a565b9150509250929050565b60008060408385031215612c9057600080fd5b6000612c9e85828601612a55565b925050602083013567ffffffffffffffff811115612cbb57600080fd5b612cc785828601612ad3565b9150509250929050565b60008060408385031215612ce457600080fd5b6000612cf285828601612a55565b9250506020612d0385828601612afd565b9150509250929050565b600060208284031215612d1f57600080fd5b6000612d2d84828501612a7f565b91505092915050565b600060208284031215612d4857600080fd5b6000612d5684828501612a94565b91505092915050565b600060208284031215612d7157600080fd5b6000612d7f84828501612afd565b91505092915050565b612d9181613545565b82525050565b612da081613557565b82525050565b6000612db182613478565b612dbb818561348e565b9350612dcb8185602086016135c8565b612dd4816136eb565b840191505092915050565b6000612dea82613483565b612df4818561349f565b9350612e048185602086016135c8565b612e0d816136eb565b840191505092915050565b6000612e2382613483565b612e2d81856134b0565b9350612e3d8185602086016135c8565b80840191505092915050565b6000612e56602d8361349f565b9150612e61826136fc565b604082019050919050565b6000612e79602b8361349f565b9150612e848261374b565b604082019050919050565b6000612e9c60328361349f565b9150612ea78261379a565b604082019050919050565b6000612ebf60088361349f565b9150612eca826137e9565b602082019050919050565b6000612ee260268361349f565b9150612eed82613812565b604082019050919050565b6000612f0560258361349f565b9150612f1082613861565b604082019050919050565b6000612f28601c8361349f565b9150612f33826138b0565b602082019050919050565b6000612f4b60248361349f565b9150612f56826138d9565b604082019050919050565b6000612f6e60198361349f565b9150612f7982613928565b602082019050919050565b6000612f9160298361349f565b9150612f9c82613951565b604082019050919050565b6000612fb4602e8361349f565b9150612fbf826139a0565b604082019050919050565b6000612fd760208361349f565b9150612fe2826139ef565b602082019050919050565b6000612ffa60208361349f565b915061300582613a18565b602082019050919050565b600061301d60188361349f565b915061302882613a41565b602082019050919050565b600061304060218361349f565b915061304b82613a6a565b604082019050919050565b6000613063603d8361349f565b915061306e82613ab9565b604082019050919050565b6000613086602c8361349f565b915061309182613b08565b604082019050919050565b60006130a960358361349f565b91506130b482613b57565b604082019050919050565b6130c8816135af565b82525050565b60006130da8285612e18565b91506130e68284612e18565b91508190509392505050565b60006020820190506131076000830184612d88565b92915050565b60006080820190506131226000830187612d88565b61312f6020830186612d88565b61313c60408301856130bf565b818103606083015261314e8184612da6565b905095945050505050565b600060208201905061316e6000830184612d97565b92915050565b6000602082019050818103600083015261318e8184612ddf565b905092915050565b600060208201905081810360008301526131af81612e49565b9050919050565b600060208201905081810360008301526131cf81612e6c565b9050919050565b600060208201905081810360008301526131ef81612e8f565b9050919050565b6000602082019050818103600083015261320f81612eb2565b9050919050565b6000602082019050818103600083015261322f81612ed5565b9050919050565b6000602082019050818103600083015261324f81612ef8565b9050919050565b6000602082019050818103600083015261326f81612f1b565b9050919050565b6000602082019050818103600083015261328f81612f3e565b9050919050565b600060208201905081810360008301526132af81612f61565b9050919050565b600060208201905081810360008301526132cf81612f84565b9050919050565b600060208201905081810360008301526132ef81612fa7565b9050919050565b6000602082019050818103600083015261330f81612fca565b9050919050565b6000602082019050818103600083015261332f81612fed565b9050919050565b6000602082019050818103600083015261334f81613010565b9050919050565b6000602082019050818103600083015261336f81613033565b9050919050565b6000602082019050818103600083015261338f81613056565b9050919050565b600060208201905081810360008301526133af81613079565b9050919050565b600060208201905081810360008301526133cf8161309c565b9050919050565b60006020820190506133eb60008301846130bf565b92915050565b60006133fb61340c565b9050613407828261362d565b919050565b6000604051905090565b600067ffffffffffffffff821115613431576134306136bc565b5b61343a826136eb565b9050602081019050919050565b600067ffffffffffffffff821115613462576134616136bc565b5b61346b826136eb565b9050602081019050919050565b600081519050919050565b600081519050919050565b600082825260208201905092915050565b600082825260208201905092915050565b600081905092915050565b60006134c6826135af565b91506134d1836135af565b9250827fffffffffffffffffffffffffffffffffffffffffffffffffffffffffffffffff038211156135065761350561365e565b5b828201905092915050565b600061351c826135af565b9150613527836135af565b92508282101561353a5761353961365e565b5b828203905092915050565b60006135508261358f565b9050919050565b60008115159050919050565b60007fffffffff0000000000000000000000000000000000000000000000000000000082169050919050565b600073ffffffffffffffffffffffffffffffffffffffff82169050919050565b6000819050919050565b82818337600083830152505050565b60005b838110156135e65780820151818401526020810190506135cb565b838111156135f5576000848401525b50505050565b6000600282049050600182168061361357607f821691505b602082108114156136275761362661368d565b5b50919050565b613636826136eb565b810181811067ffffffffffffffff82111715613655576136546136bc565b5b80604052505050565b7f4e487b7100000000000000000000000000000000000000000000000000000000600052601160045260246000fd5b7f4e487b7100000000000000000000000000000000000000000000000000000000600052602260045260246000fd5b7f4e487b7100000000000000000000000000000000000000000000000000000000600052604160045260246000fd5b6000601f19601f8301169050919050565b7f4552433732313a2063616c6c6572206973206e6f7420746f6b656e206f776e6560008201527f72206f7220617070726f76656400000000000000000000000000000000000000602082015250565b7f455243373231456e756d657261626c653a206f776e657220696e646578206f7560008201527f74206f6620626f756e6473000000000000000000000000000000000000000000602082015250565b7f4552433732313a207472616e7366657220746f206e6f6e20455243373231526560008201527f63656976657220696d706c656d656e7465720000000000000000000000000000602082015250565b7f536f6c64204f7574000000000000000000000000000000000000000000000000600082015250565b7f4f776e61626c653a206e6577206f776e657220697320746865207a65726f206160008201527f6464726573730000000000000000000000000000000000000000000000000000602082015250565b7f4552433732313a207472616e736665722066726f6d20696e636f72726563742060008201527f6f776e6572000000000000000000000000000000000000000000000000000000602082015250565b7f4552433732313a20746f6b656e20616c7265616479206d696e74656400000000600082015250565b7f4552433732313a207472616e7366657220746f20746865207a65726f2061646460008201527f7265737300000000000000000000000000000000000000000000000000000000602082015250565b7f4552433732313a20617070726f766520746f2063616c6c657200000000000000600082015250565b7f4552433732313a2061646472657373207a65726f206973206e6f74206120766160008201527f6c6964206f776e65720000000000000000000000000000000000000000000000602082015250565b7f45524337323155524953746f726167653a2055524920736574206f66206e6f6e60008201527f6578697374656e7420746f6b656e000000000000000000000000000000000000602082015250565b7f4552433732313a206d696e7420746f20746865207a65726f2061646472657373600082015250565b7f4f776e61626c653a2063616c6c6572206973206e6f7420746865206f776e6572600082015250565b7f4552433732313a20696e76616c696420746f6b656e2049440000000000000000600082015250565b7f4552433732313a20617070726f76616c20746f2063757272656e74206f776e6560008201527f7200000000000000000000000000000000000000000000000000000000000000602082015250565b7f4552433732313a20617070726f76652063616c6c6572206973206e6f7420746f60008201527f6b656e206f776e6572206f7220617070726f76656420666f7220616c6c000000602082015250565b7f455243373231456e756d657261626c653a20676c6f62616c20696e646578206f60008201527f7574206f6620626f756e64730000000000000000000000000000000000000000602082015250565b7f455243373231456e756d657261626c653a20636f6e736563757469766520747260008201527f616e7366657273206e6f7420737570706f727465640000000000000000000000602082015250565b613baf81613545565b8114613bba57600080fd5b50565b613bc681613557565b8114613bd157600080fd5b50565b613bdd81613563565b8114613be857600080fd5b50565b613bf4816135af565b8114613bff57600080fd5b5056fea2646970667358221220b3609827361cc7cd57f9e94ed6c6cd876615446daaf809add5976666e8144da064736f6c63430008040033",
  "linkReferences": {},
  "deployedLinkReferences": {}
}