{
  "_format": "hh-sol-artifact-1",
  "contractName": "The_Gooses_Geese_Final_Test",
  "sourceName": "contracts/Goose_Membership(final).sol",
  "abi": [
    {
      "inputs": [],
      "stateMutability": "nonpayable",
      "type": "constructor"
    },
    {
      "anonymous": false,
      "inputs": [
        {
          "indexed": true,
          "internalType": "address",
          "name": "owner",
          "type": "address"
        },
        {
          "indexed": true,
          "internalType": "address",
          "name": "approved",
          "type": "address"
        },
        {
          "indexed": true,
          "internalType": "uint256",
          "name": "tokenId",
          "type": "uint256"
        }
      ],
      "name": "Approval",
      "type": "event"
    },
    {
      "anonymous": false,
      "inputs": [
        {
          "indexed": true,
          "internalType": "address",
          "name": "owner",
          "type": "address"
        },
        {
          "indexed": true,
          "internalType": "address",
          "name": "operator",
          "type": "address"
        },
        {
          "indexed": false,
          "internalType": "bool",
          "name": "approved",
          "type": "bool"
        }
      ],
      "name": "ApprovalForAll",
      "type": "event"
    },
    {
      "anonymous": false,
      "inputs": [
        {
          "indexed": true,
          "internalType": "address",
          "name": "previousOwner",
          "type": "address"
        },
        {
          "indexed": true,
          "internalType": "address",
          "name": "newOwner",
          "type": "address"
        }
      ],
      "name": "OwnershipTransferred",
      "type": "event"
    },
    {
      "anonymous": false,
      "inputs": [
        {
          "indexed": true,
          "internalType": "address",
          "name": "from",
          "type": "address"
        },
        {
          "indexed": true,
          "internalType": "address",
          "name": "to",
          "type": "address"
        },
        {
          "indexed": true,
          "internalType": "uint256",
          "name": "tokenId",
          "type": "uint256"
        }
      ],
      "name": "Transfer",
      "type": "event"
    },
    {
      "inputs": [],
      "name": "Duringseason",
      "outputs": [
        {
          "internalType": "bool",
          "name": "",
          "type": "bool"
        }
      ],
      "stateMutability": "view",
      "type": "function"
    },
    {
      "inputs": [
        {
          "internalType": "address",
          "name": "to",
          "type": "address"
        },
        {
          "internalType": "string",
          "name": "uri",
          "type": "string"
        }
      ],
      "name": "PayToMint",
      "outputs": [
        {
          "internalType": "uint256",
          "name": "",
          "type": "uint256"
        }
      ],
      "stateMutability": "payable",
      "type": "function"
    },
    {
      "inputs": [
        {
          "internalType": "address",
          "name": "recipient",
          "type": "address"
        },
        {
          "internalType": "string",
          "name": "uri",
          "type": "string"
        }
      ],
      "name": "PayToMintRoyalty",
      "outputs": [
        {
          "internalType": "uint256",
          "name": "",
          "type": "uint256"
        }
      ],
      "stateMutability": "payable",
      "type": "function"
    },
    {
      "inputs": [
        {
          "internalType": "uint256",
          "name": "cost",
          "type": "uint256"
        }
      ],
      "name": "SetPrice",
      "outputs": [
        {
          "internalType": "uint256",
          "name": "",
          "type": "uint256"
        }
      ],
      "stateMutability": "nonpayable",
      "type": "function"
    },
    {
      "inputs": [],
      "name": "Setseasons",
      "outputs": [],
      "stateMutability": "nonpayable",
      "type": "function"
    },
    {
      "inputs": [
        {
          "internalType": "address",
          "name": "to",
          "type": "address"
        },
        {
          "internalType": "uint256",
          "name": "tokenId",
          "type": "uint256"
        }
      ],
      "name": "approve",
      "outputs": [],
      "stateMutability": "nonpayable",
      "type": "function"
    },
    {
      "inputs": [
        {
          "internalType": "address",
          "name": "owner",
          "type": "address"
        }
      ],
      "name": "balanceOf",
      "outputs": [
        {
          "internalType": "uint256",
          "name": "",
          "type": "uint256"
        }
      ],
      "stateMutability": "view",
      "type": "function"
    },
    {
      "inputs": [
        {
          "internalType": "uint256",
          "name": "tokenId",
          "type": "uint256"
        }
      ],
      "name": "burnNFT",
      "outputs": [],
      "stateMutability": "nonpayable",
      "type": "function"
    },
    {
      "inputs": [
        {
          "internalType": "uint256",
          "name": "tokenId",
          "type": "uint256"
        }
      ],
      "name": "getApproved",
      "outputs": [
        {
          "internalType": "address",
          "name": "",
          "type": "address"
        }
      ],
      "stateMutability": "view",
      "type": "function"
    },
    {
      "inputs": [],
      "name": "getBalance",
      "outputs": [
        {
          "internalType": "uint256",
          "name": "",
          "type": "uint256"
        }
      ],
      "stateMutability": "view",
      "type": "function"
    },
    {
      "inputs": [
        {
          "internalType": "address",
          "name": "owner",
          "type": "address"
        },
        {
          "internalType": "address",
          "name": "operator",
          "type": "address"
        }
      ],
      "name": "isApprovedForAll",
      "outputs": [
        {
          "internalType": "bool",
          "name": "",
          "type": "bool"
        }
      ],
      "stateMutability": "view",
      "type": "function"
    },
    {
      "inputs": [],
      "name": "name",
      "outputs": [
        {
          "internalType": "string",
          "name": "",
          "type": "string"
        }
      ],
      "stateMutability": "view",
      "type": "function"
    },
    {
      "inputs": [],
      "name": "owner",
      "outputs": [
        {
          "internalType": "address",
          "name": "",
          "type": "address"
        }
      ],
      "stateMutability": "view",
      "type": "function"
    },
    {
      "inputs": [
        {
          "internalType": "uint256",
          "name": "tokenId",
          "type": "uint256"
        }
      ],
      "name": "ownerOf",
      "outputs": [
        {
          "internalType": "address",
          "name": "",
          "type": "address"
        }
      ],
      "stateMutability": "view",
      "type": "function"
    },
    {
      "inputs": [],
      "name": "price",
      "outputs": [
        {
          "internalType": "uint256",
          "name": "",
          "type": "uint256"
        }
      ],
      "stateMutability": "view",
      "type": "function"
    },
    {
      "inputs": [],
      "name": "renounceOwnership",
      "outputs": [],
      "stateMutability": "nonpayable",
      "type": "function"
    },
    {
      "inputs": [
        {
          "internalType": "address",
          "name": "to",
          "type": "address"
        },
        {
          "internalType": "string",
          "name": "uri",
          "type": "string"
        }
      ],
      "name": "safeMint",
      "outputs": [],
      "stateMutability": "nonpayable",
      "type": "function"
    },
    {
      "inputs": [
        {
          "internalType": "address",
          "name": "from",
          "type": "address"
        },
        {
          "internalType": "address",
          "name": "to",
          "type": "address"
        },
        {
          "internalType": "uint256",
          "name": "tokenId",
          "type": "uint256"
        }
      ],
      "name": "safeTransferFrom",
      "outputs": [],
      "stateMutability": "nonpayable",
      "type": "function"
    },
    {
      "inputs": [
        {
          "internalType": "address",
          "name": "from",
          "type": "address"
        },
        {
          "internalType": "address",
          "name": "to",
          "type": "address"
        },
        {
          "internalType": "uint256",
          "name": "tokenId",
          "type": "uint256"
        },
        {
          "internalType": "bytes",
          "name": "data",
          "type": "bytes"
        }
      ],
      "name": "safeTransferFrom",
      "outputs": [],
      "stateMutability": "nonpayable",
      "type": "function"
    },
    {
      "inputs": [],
      "name": "seasonEnd",
      "outputs": [
        {
          "internalType": "bool",
          "name": "",
          "type": "bool"
        }
      ],
      "stateMutability": "nonpayable",
      "type": "function"
    },
    {
      "inputs": [],
      "name": "seasonStart",
      "outputs": [
        {
          "internalType": "bool",
          "name": "",
          "type": "bool"
        }
      ],
      "stateMutability": "nonpayable",
      "type": "function"
    },
    {
      "inputs": [
        {
          "internalType": "address",
          "name": "operator",
          "type": "address"
        },
        {
          "internalType": "bool",
          "name": "approved",
          "type": "bool"
        }
      ],
      "name": "setApprovalForAll",
      "outputs": [],
      "stateMutability": "nonpayable",
      "type": "function"
    },
    {
      "inputs": [
        {
          "internalType": "bytes4",
          "name": "interfaceId",
          "type": "bytes4"
        }
      ],
      "name": "supportsInterface",
      "outputs": [
        {
          "internalType": "bool",
          "name": "",
          "type": "bool"
        }
      ],
      "stateMutability": "view",
      "type": "function"
    },
    {
      "inputs": [],
      "name": "symbol",
      "outputs": [
        {
          "internalType": "string",
          "name": "",
          "type": "string"
        }
      ],
      "stateMutability": "view",
      "type": "function"
    },
    {
      "inputs": [
        {
          "internalType": "uint256",
          "name": "index",
          "type": "uint256"
        }
      ],
      "name": "tokenByIndex",
      "outputs": [
        {
          "internalType": "uint256",
          "name": "",
          "type": "uint256"
        }
      ],
      "stateMutability": "view",
      "type": "function"
    },
    {
      "inputs": [
        {
          "internalType": "address",
          "name": "owner",
          "type": "address"
        },
        {
          "internalType": "uint256",
          "name": "index",
          "type": "uint256"
        }
      ],
      "name": "tokenOfOwnerByIndex",
      "outputs": [
        {
          "internalType": "uint256",
          "name": "",
          "type": "uint256"
        }
      ],
      "stateMutability": "view",
      "type": "function"
    },
    {
      "inputs": [
        {
          "internalType": "uint256",
          "name": "tokenId",
          "type": "uint256"
        }
      ],
      "name": "tokenURI",
      "outputs": [
        {
          "internalType": "string",
          "name": "",
          "type": "string"
        }
      ],
      "stateMutability": "view",
      "type": "function"
    },
    {
      "inputs": [],
      "name": "totalSupply",
      "outputs": [
        {
          "internalType": "uint256",
          "name": "",
          "type": "uint256"
        }
      ],
      "stateMutability": "view",
      "type": "function"
    },
    {
      "inputs": [
        {
          "internalType": "address",
          "name": "from",
          "type": "address"
        },
        {
          "internalType": "address",
          "name": "to",
          "type": "address"
        },
        {
          "internalType": "uint256",
          "name": "tokenId",
          "type": "uint256"
        }
      ],
      "name": "transferFrom",
      "outputs": [],
      "stateMutability": "nonpayable",
      "type": "function"
    },
    {
      "inputs": [
        {
          "internalType": "address",
          "name": "newOwner",
          "type": "address"
        }
      ],
      "name": "transferOwnership",
      "outputs": [],
      "stateMutability": "nonpayable",
      "type": "function"
    },
    {
      "inputs": [],
      "name": "withdrawMoneyTo",
      "outputs": [],
      "stateMutability": "nonpayable",
      "type": "function"
    }
  ],
  "bytecode": "0x6080604052600a600c556032600d55662386f26fc10000600e556001600f60006101000a81548160ff0219169083151502179055507396d5cf21807190a034435198f88fb95fcc9cae73601260006101000a81548173ffffffffffffffffffffffffffffffffffffffff021916908373ffffffffffffffffffffffffffffffffffffffff1602179055503480156200009657600080fd5b506040518060400160405280601b81526020017f5468655f476f6f7365735f47656573655f46696e616c5f5465737400000000008152506040518060400160405280600381526020017f474654000000000000000000000000000000000000000000000000000000000081525081600090805190602001906200011b9291906200022b565b508060019080519060200190620001349291906200022b565b505050620001576200014b6200015d60201b60201c565b6200016560201b60201c565b62000340565b600033905090565b6000600b60009054906101000a900473ffffffffffffffffffffffffffffffffffffffff16905081600b60006101000a81548173ffffffffffffffffffffffffffffffffffffffff021916908373ffffffffffffffffffffffffffffffffffffffff1602179055508173ffffffffffffffffffffffffffffffffffffffff168173ffffffffffffffffffffffffffffffffffffffff167f8be0079c531659141344cd1fd0a4f28419497f9722a3daafe3b4186f6b6457e060405160405180910390a35050565b8280546200023990620002db565b90600052602060002090601f0160209004810192826200025d5760008555620002a9565b82601f106200027857805160ff1916838001178555620002a9565b82800160010185558215620002a9579182015b82811115620002a85782518255916020019190600101906200028b565b5b509050620002b89190620002bc565b5090565b5b80821115620002d7576000816000905550600101620002bd565b5090565b60006002820490506001821680620002f457607f821691505b602082108114156200030b576200030a62000311565b5b50919050565b7f4e487b7100000000000000000000000000000000000000000000000000000000600052602260045260246000fd5b61430980620003506000396000f3fe6080604052600436106101d85760003560e01c806370a0823111610102578063bafa094611610095578063e52aa24e11610064578063e52aa24e146106b1578063e757b20d146106e1578063e985e9c51461070c578063f2fde38b14610749576101d8565b8063bafa0946146105f0578063c87b56dd1461061b578063d204c45e14610658578063db980b5d14610681576101d8565b806395d89b41116100d157806395d89b4114610548578063a035b1fe14610573578063a22cb4651461059e578063b88d4fde146105c7576101d8565b806370a082311461049e578063715018a6146104db5780637f885cd5146104f25780638da5cb5b1461051d576101d8565b806323b872dd1161017a57806342842e0e1161014957806342842e0e146103be5780634f5539c0146103e75780634f6ccce7146104245780636352211e14610461576101d8565b806323b872dd146103185780632890e0d7146103415780632f36aae41461036a5780632f745c5914610381576101d8565b8063086f708a116101b6578063086f708a14610282578063095ea7b31461029957806312065fe0146102c257806318160ddd146102ed576101d8565b806301ffc9a7146101dd57806306fdde031461021a578063081812fc14610245575b600080fd5b3480156101e957600080fd5b5061020460048036038101906101ff919061329a565b610772565b604051610211919061374f565b60405180910390f35b34801561022657600080fd5b5061022f610784565b60405161023c919061376a565b60405180910390f35b34801561025157600080fd5b5061026c600480360381019061026791906132ec565b610816565b60405161027991906136e8565b60405180910390f35b34801561028e57600080fd5b5061029761085c565b005b3480156102a557600080fd5b506102c060048036038101906102bb919061325e565b6108d4565b005b3480156102ce57600080fd5b506102d76109ec565b6040516102e49190613a2c565b60405180910390f35b3480156102f957600080fd5b506103026109f4565b60405161030f9190613a2c565b60405180910390f35b34801561032457600080fd5b5061033f600480360381019061033a9190613104565b610a01565b005b34801561034d57600080fd5b50610368600480360381019061036391906132ec565b610a61565b005b34801561037657600080fd5b5061037f610a6d565b005b34801561038d57600080fd5b506103a860048036038101906103a3919061325e565b610b27565b6040516103b59190613a2c565b60405180910390f35b3480156103ca57600080fd5b506103e560048036038101906103e09190613104565b610bcc565b005b3480156103f357600080fd5b5061040e600480360381019061040991906132ec565b610bec565b60405161041b9190613a2c565b60405180910390f35b34801561043057600080fd5b5061044b600480360381019061044691906132ec565b610c07565b6040516104589190613a2c565b60405180910390f35b34801561046d57600080fd5b50610488600480360381019061048391906132ec565b610c9e565b60405161049591906136e8565b60405180910390f35b3480156104aa57600080fd5b506104c560048036038101906104c0919061309f565b610d25565b6040516104d29190613a2c565b60405180910390f35b3480156104e757600080fd5b506104f0610ddd565b005b3480156104fe57600080fd5b50610507610df1565b604051610514919061374f565b60405180910390f35b34801561052957600080fd5b50610532610e10565b60405161053f91906136e8565b60405180910390f35b34801561055457600080fd5b5061055d610e3a565b60405161056a919061376a565b60405180910390f35b34801561057f57600080fd5b50610588610ecc565b6040516105959190613a2c565b60405180910390f35b3480156105aa57600080fd5b506105c560048036038101906105c091906131ce565b610ed2565b005b3480156105d357600080fd5b506105ee60048036038101906105e99190613153565b610ee8565b005b3480156105fc57600080fd5b50610605610f4a565b604051610612919061374f565b60405180910390f35b34801561062757600080fd5b50610642600480360381019061063d91906132ec565b610f9c565b60405161064f919061376a565b60405180910390f35b34801561066457600080fd5b5061067f600480360381019061067a919061320a565b610fae565b005b61069b6004803603810190610696919061320a565b611045565b6040516106a89190613a2c565b60405180910390f35b6106cb60048036038101906106c6919061320a565b61117b565b6040516106d89190613a2c565b60405180910390f35b3480156106ed57600080fd5b506106f6611194565b604051610703919061374f565b60405180910390f35b34801561071857600080fd5b50610733600480360381019061072e91906130c8565b6111e6565b604051610740919061374f565b60405180910390f35b34801561075557600080fd5b50610770600480360381019061076b919061309f565b61127a565b005b600061077d826112fe565b9050919050565b60606000805461079390613c51565b80601f01602080910402602001604051908101604052809291908181526020018280546107bf90613c51565b801561080c5780601f106107e15761010080835404028352916020019161080c565b820191906000526020600020905b8154815290600101906020018083116107ef57829003601f168201915b5050505050905090565b600061082182611378565b6004600083815260200190815260200160002060009054906101000a900473ffffffffffffffffffffffffffffffffffffffff169050919050565b6000601260009054906101000a900473ffffffffffffffffffffffffffffffffffffffff1690508073ffffffffffffffffffffffffffffffffffffffff166108fc6108a56109ec565b9081150290604051600060405180830381858888f193505050501580156108d0573d6000803e3d6000fd5b5050565b60006108df82610c9e565b90508073ffffffffffffffffffffffffffffffffffffffff168373ffffffffffffffffffffffffffffffffffffffff161415610950576040517f08c379a0000000000000000000000000000000000000000000000000000000008152600401610947906139ac565b60405180910390fd5b8073ffffffffffffffffffffffffffffffffffffffff1661096f6113c3565b73ffffffffffffffffffffffffffffffffffffffff16148061099e575061099d816109986113c3565b6111e6565b5b6109dd576040517f08c379a00000000000000000000000000000000000000000000000000000000081526004016109d4906139cc565b60405180910390fd5b6109e783836113cb565b505050565b600047905090565b6000600880549050905090565b610a12610a0c6113c3565b82611484565b610a51576040517f08c379a0000000000000000000000000000000000000000000000000000000008152600401610a48906137ac565b60405180910390fd5b610a5c838383611519565b505050565b610a6a81611813565b50565b6002610a79601061181f565b1415610a9b576000600f60006101000a81548160ff0219169083151502179055505b6004610aa7601061181f565b1415610ac9576000600f60006101000a81548160ff0219169083151502179055505b6006610ad5601061181f565b1415610af7576000600f60006101000a81548160ff0219169083151502179055505b6008610b03601061181f565b1415610b25576000600f60006101000a81548160ff0219169083151502179055505b565b6000610b3283610d25565b8210610b73576040517f08c379a0000000000000000000000000000000000000000000000000000000008152600401610b6a906137cc565b60405180910390fd5b600660008473ffffffffffffffffffffffffffffffffffffffff1673ffffffffffffffffffffffffffffffffffffffff168152602001908152602001600020600083815260200190815260200160002054905092915050565b610be783838360405180602001604052806000815250610ee8565b505050565b6000610bf661182d565b81600e81905550600e549050919050565b6000610c116109f4565b8210610c52576040517f08c379a0000000000000000000000000000000000000000000000000000000008152600401610c49906139ec565b60405180910390fd5b60088281548110610c8c577f4e487b7100000000000000000000000000000000000000000000000000000000600052603260045260246000fd5b90600052602060002001549050919050565b600080610caa836118ab565b9050600073ffffffffffffffffffffffffffffffffffffffff168173ffffffffffffffffffffffffffffffffffffffff161415610d1c576040517f08c379a0000000000000000000000000000000000000000000000000000000008152600401610d139061398c565b60405180910390fd5b80915050919050565b60008073ffffffffffffffffffffffffffffffffffffffff168273ffffffffffffffffffffffffffffffffffffffff161415610d96576040517f08c379a0000000000000000000000000000000000000000000000000000000008152600401610d8d906138ec565b60405180910390fd5b600360008373ffffffffffffffffffffffffffffffffffffffff1673ffffffffffffffffffffffffffffffffffffffff168152602001908152602001600020549050919050565b610de561182d565b610def60006118e8565b565b6000610dfb61182d565b600f60009054906101000a900460ff16905090565b6000600b60009054906101000a900473ffffffffffffffffffffffffffffffffffffffff16905090565b606060018054610e4990613c51565b80601f0160208091040260200160405190810160405280929190818152602001828054610e7590613c51565b8015610ec25780601f10610e9757610100808354040283529160200191610ec2565b820191906000526020600020905b815481529060010190602001808311610ea557829003601f168201915b5050505050905090565b600e5481565b610ee4610edd6113c3565b83836119ae565b5050565b610ef9610ef36113c3565b83611484565b610f38576040517f08c379a0000000000000000000000000000000000000000000000000000000008152600401610f2f906137ac565b60405180910390fd5b610f4484848484611b1b565b50505050565b6000610f5461182d565b6001600f60006101000a81548160ff02191690831515021790555060011515600f60009054906101000a900460ff1615151415610f945760019050610f99565b600090505b90565b6060610fa782611b77565b9050919050565b610fb661182d565b6000610fc2601161181f565b9050600d54811115611009576040517f08c379a00000000000000000000000000000000000000000000000000000000081526004016110009061394c565b60405180910390fd5b6110136011611c8a565b600061101f601061181f565b905061102b6010611c8a565b6110358482611ca0565b61103f8184611cbe565b50505050565b600080611052601061181f565b9050600e54341015611099576040517f08c379a00000000000000000000000000000000000000000000000000000000081526004016110909061388c565b60405180910390fd5b600c548111156110de576040517f08c379a00000000000000000000000000000000000000000000000000000000081526004016110d59061380c565b60405180910390fd5b60011515600f60009054906101000a900460ff16151514611134576040517f08c379a000000000000000000000000000000000000000000000000000000000815260040161112b9061378c565b60405180910390fd5b61113e6010611c8a565b6111488482611ca0565b6111528184611cbe565b61115a610a6d565b61116261085c565b600061116e601061181f565b9050809250505092915050565b6000806111888484611045565b90508091505092915050565b600061119e61182d565b6000600f60006101000a81548160ff02191690831515021790555060001515600f60009054906101000a900460ff16151514156111de57600090506111e3565b600190505b90565b6000600560008473ffffffffffffffffffffffffffffffffffffffff1673ffffffffffffffffffffffffffffffffffffffff16815260200190815260200160002060008373ffffffffffffffffffffffffffffffffffffffff1673ffffffffffffffffffffffffffffffffffffffff16815260200190815260200160002060009054906101000a900460ff16905092915050565b61128261182d565b600073ffffffffffffffffffffffffffffffffffffffff168173ffffffffffffffffffffffffffffffffffffffff1614156112f2576040517f08c379a00000000000000000000000000000000000000000000000000000000081526004016112e99061382c565b60405180910390fd5b6112fb816118e8565b50565b60007f780e9d63000000000000000000000000000000000000000000000000000000007bffffffffffffffffffffffffffffffffffffffffffffffffffffffff1916827bffffffffffffffffffffffffffffffffffffffffffffffffffffffff19161480611371575061137082611d32565b5b9050919050565b61138181611e14565b6113c0576040517f08c379a00000000000000000000000000000000000000000000000000000000081526004016113b79061398c565b60405180910390fd5b50565b600033905090565b816004600083815260200190815260200160002060006101000a81548173ffffffffffffffffffffffffffffffffffffffff021916908373ffffffffffffffffffffffffffffffffffffffff160217905550808273ffffffffffffffffffffffffffffffffffffffff1661143e83610c9e565b73ffffffffffffffffffffffffffffffffffffffff167f8c5be1e5ebec7d5bd14f71427d1e84f3dd0314c0f7b2291e5b200ac8c7c3b92560405160405180910390a45050565b60008061149083610c9e565b90508073ffffffffffffffffffffffffffffffffffffffff168473ffffffffffffffffffffffffffffffffffffffff1614806114d257506114d181856111e6565b5b8061151057508373ffffffffffffffffffffffffffffffffffffffff166114f884610816565b73ffffffffffffffffffffffffffffffffffffffff16145b91505092915050565b8273ffffffffffffffffffffffffffffffffffffffff1661153982610c9e565b73ffffffffffffffffffffffffffffffffffffffff161461158f576040517f08c379a00000000000000000000000000000000000000000000000000000000081526004016115869061384c565b60405180910390fd5b600073ffffffffffffffffffffffffffffffffffffffff168273ffffffffffffffffffffffffffffffffffffffff1614156115ff576040517f08c379a00000000000000000000000000000000000000000000000000000000081526004016115f6906138ac565b60405180910390fd5b61160c8383836001611e55565b8273ffffffffffffffffffffffffffffffffffffffff1661162c82610c9e565b73ffffffffffffffffffffffffffffffffffffffff1614611682576040517f08c379a00000000000000000000000000000000000000000000000000000000081526004016116799061384c565b60405180910390fd5b6004600082815260200190815260200160002060006101000a81549073ffffffffffffffffffffffffffffffffffffffff02191690556001600360008573ffffffffffffffffffffffffffffffffffffffff1673ffffffffffffffffffffffffffffffffffffffff168152602001908152602001600020600082825403925050819055506001600360008473ffffffffffffffffffffffffffffffffffffffff1673ffffffffffffffffffffffffffffffffffffffff16815260200190815260200160002060008282540192505081905550816002600083815260200190815260200160002060006101000a81548173ffffffffffffffffffffffffffffffffffffffff021916908373ffffffffffffffffffffffffffffffffffffffff160217905550808273ffffffffffffffffffffffffffffffffffffffff168473ffffffffffffffffffffffffffffffffffffffff167fddf252ad1be2c89b69c2b068fc378daa952ba7f163c4a11628f55a4df523b3ef60405160405180910390a461180e8383836001611e67565b505050565b61181c81611e6d565b50565b600081600001549050919050565b6118356113c3565b73ffffffffffffffffffffffffffffffffffffffff16611853610e10565b73ffffffffffffffffffffffffffffffffffffffff16146118a9576040517f08c379a00000000000000000000000000000000000000000000000000000000081526004016118a09061396c565b60405180910390fd5b565b60006002600083815260200190815260200160002060009054906101000a900473ffffffffffffffffffffffffffffffffffffffff169050919050565b6000600b60009054906101000a900473ffffffffffffffffffffffffffffffffffffffff16905081600b60006101000a81548173ffffffffffffffffffffffffffffffffffffffff021916908373ffffffffffffffffffffffffffffffffffffffff1602179055508173ffffffffffffffffffffffffffffffffffffffff168173ffffffffffffffffffffffffffffffffffffffff167f8be0079c531659141344cd1fd0a4f28419497f9722a3daafe3b4186f6b6457e060405160405180910390a35050565b8173ffffffffffffffffffffffffffffffffffffffff168373ffffffffffffffffffffffffffffffffffffffff161415611a1d576040517f08c379a0000000000000000000000000000000000000000000000000000000008152600401611a14906138cc565b60405180910390fd5b80600560008573ffffffffffffffffffffffffffffffffffffffff1673ffffffffffffffffffffffffffffffffffffffff16815260200190815260200160002060008473ffffffffffffffffffffffffffffffffffffffff1673ffffffffffffffffffffffffffffffffffffffff16815260200190815260200160002060006101000a81548160ff0219169083151502179055508173ffffffffffffffffffffffffffffffffffffffff168373ffffffffffffffffffffffffffffffffffffffff167f17307eab39ab6107e8899845ad3d59bd9653f200f220920489ca2b5937696c3183604051611b0e919061374f565b60405180910390a3505050565b611b26848484611519565b611b3284848484611ec0565b611b71576040517f08c379a0000000000000000000000000000000000000000000000000000000008152600401611b68906137ec565b60405180910390fd5b50505050565b6060611b8282611378565b6000600a60008481526020019081526020016000208054611ba290613c51565b80601f0160208091040260200160405190810160405280929190818152602001828054611bce90613c51565b8015611c1b5780601f10611bf057610100808354040283529160200191611c1b565b820191906000526020600020905b815481529060010190602001808311611bfe57829003601f168201915b505050505090506000611c2c612057565b9050600081511415611c42578192505050611c85565b600082511115611c77578082604051602001611c5f9291906136c4565b60405160208183030381529060405292505050611c85565b611c808461206e565b925050505b919050565b6001816000016000828254019250508190555050565b611cba8282604051806020016040528060008152506120d6565b5050565b611cc782611e14565b611d06576040517f08c379a0000000000000000000000000000000000000000000000000000000008152600401611cfd9061390c565b60405180910390fd5b80600a60008481526020019081526020016000209080519060200190611d2d929190612e83565b505050565b60007f80ac58cd000000000000000000000000000000000000000000000000000000007bffffffffffffffffffffffffffffffffffffffffffffffffffffffff1916827bffffffffffffffffffffffffffffffffffffffffffffffffffffffff19161480611dfd57507f5b5e139f000000000000000000000000000000000000000000000000000000007bffffffffffffffffffffffffffffffffffffffffffffffffffffffff1916827bffffffffffffffffffffffffffffffffffffffffffffffffffffffff1916145b80611e0d5750611e0c82612131565b5b9050919050565b60008073ffffffffffffffffffffffffffffffffffffffff16611e36836118ab565b73ffffffffffffffffffffffffffffffffffffffff1614159050919050565b611e618484848461219b565b50505050565b50505050565b611e76816122fb565b6000600a60008381526020019081526020016000208054611e9690613c51565b905014611ebd57600a60008281526020019081526020016000206000611ebc9190612f09565b5b50565b6000611ee18473ffffffffffffffffffffffffffffffffffffffff16612449565b1561204a578373ffffffffffffffffffffffffffffffffffffffff1663150b7a02611f0a6113c3565b8786866040518563ffffffff1660e01b8152600401611f2c9493929190613703565b602060405180830381600087803b158015611f4657600080fd5b505af1925050508015611f7757506040513d601f19601f82011682018060405250810190611f7491906132c3565b60015b611ffa573d8060008114611fa7576040519150601f19603f3d011682016040523d82523d6000602084013e611fac565b606091505b50600081511415611ff2576040517f08c379a0000000000000000000000000000000000000000000000000000000008152600401611fe9906137ec565b60405180910390fd5b805181602001fd5b63150b7a0260e01b7bffffffffffffffffffffffffffffffffffffffffffffffffffffffff1916817bffffffffffffffffffffffffffffffffffffffffffffffffffffffff19161491505061204f565b600190505b949350505050565b606060405180602001604052806000815250905090565b606061207982611378565b6000612083612057565b905060008151116120a357604051806020016040528060008152506120ce565b806120ad8461246c565b6040516020016120be9291906136c4565b6040516020818303038152906040525b915050919050565b6120e08383612590565b6120ed6000848484611ec0565b61212c576040517f08c379a0000000000000000000000000000000000000000000000000000000008152600401612123906137ec565b60405180910390fd5b505050565b60007f01ffc9a7000000000000000000000000000000000000000000000000000000007bffffffffffffffffffffffffffffffffffffffffffffffffffffffff1916827bffffffffffffffffffffffffffffffffffffffffffffffffffffffff1916149050919050565b6121a7848484846127ae565b60018111156121eb576040517f08c379a00000000000000000000000000000000000000000000000000000000081526004016121e290613a0c565b60405180910390fd5b6000829050600073ffffffffffffffffffffffffffffffffffffffff168573ffffffffffffffffffffffffffffffffffffffff1614156122335761222e816128d4565b612272565b8373ffffffffffffffffffffffffffffffffffffffff168573ffffffffffffffffffffffffffffffffffffffff161461227157612270858261291d565b5b5b600073ffffffffffffffffffffffffffffffffffffffff168473ffffffffffffffffffffffffffffffffffffffff1614156122b5576122b081612a8a565b6122f4565b8473ffffffffffffffffffffffffffffffffffffffff168473ffffffffffffffffffffffffffffffffffffffff16146122f3576122f28482612bcd565b5b5b5050505050565b600061230682610c9e565b9050612316816000846001611e55565b61231f82610c9e565b90506004600083815260200190815260200160002060006101000a81549073ffffffffffffffffffffffffffffffffffffffff02191690556001600360008373ffffffffffffffffffffffffffffffffffffffff1673ffffffffffffffffffffffffffffffffffffffff168152602001908152602001600020600082825403925050819055506002600083815260200190815260200160002060006101000a81549073ffffffffffffffffffffffffffffffffffffffff021916905581600073ffffffffffffffffffffffffffffffffffffffff168273ffffffffffffffffffffffffffffffffffffffff167fddf252ad1be2c89b69c2b068fc378daa952ba7f163c4a11628f55a4df523b3ef60405160405180910390a4612445816000846001611e67565b5050565b6000808273ffffffffffffffffffffffffffffffffffffffff163b119050919050565b60606000600161247b84612c4c565b01905060008167ffffffffffffffff8111156124c0577f4e487b7100000000000000000000000000000000000000000000000000000000600052604160045260246000fd5b6040519080825280601f01601f1916602001820160405280156124f25781602001600182028036833780820191505090505b509050600082602001820190505b600115612585578080600190039150507f3031323334353637383961626364656600000000000000000000000000000000600a86061a8153600a858161256f577f4e487b7100000000000000000000000000000000000000000000000000000000600052601260045260246000fd5b049450600085141561258057612585565b612500565b819350505050919050565b600073ffffffffffffffffffffffffffffffffffffffff168273ffffffffffffffffffffffffffffffffffffffff161415612600576040517f08c379a00000000000000000000000000000000000000000000000000000000081526004016125f79061392c565b60405180910390fd5b61260981611e14565b15612649576040517f08c379a00000000000000000000000000000000000000000000000000000000081526004016126409061386c565b60405180910390fd5b612657600083836001611e55565b61266081611e14565b156126a0576040517f08c379a00000000000000000000000000000000000000000000000000000000081526004016126979061386c565b60405180910390fd5b6001600360008473ffffffffffffffffffffffffffffffffffffffff1673ffffffffffffffffffffffffffffffffffffffff16815260200190815260200160002060008282540192505081905550816002600083815260200190815260200160002060006101000a81548173ffffffffffffffffffffffffffffffffffffffff021916908373ffffffffffffffffffffffffffffffffffffffff160217905550808273ffffffffffffffffffffffffffffffffffffffff16600073ffffffffffffffffffffffffffffffffffffffff167fddf252ad1be2c89b69c2b068fc378daa952ba7f163c4a11628f55a4df523b3ef60405160405180910390a46127aa600083836001611e67565b5050565b60018111156128ce57600073ffffffffffffffffffffffffffffffffffffffff168473ffffffffffffffffffffffffffffffffffffffff16146128425780600360008673ffffffffffffffffffffffffffffffffffffffff1673ffffffffffffffffffffffffffffffffffffffff168152602001908152602001600020600082825461283a9190613b67565b925050819055505b600073ffffffffffffffffffffffffffffffffffffffff168373ffffffffffffffffffffffffffffffffffffffff16146128cd5780600360008573ffffffffffffffffffffffffffffffffffffffff1673ffffffffffffffffffffffffffffffffffffffff16815260200190815260200160002060008282546128c59190613b11565b925050819055505b5b50505050565b6008805490506009600083815260200190815260200160002081905550600881908060018154018082558091505060019003906000526020600020016000909190919091505550565b6000600161292a84610d25565b6129349190613b67565b9050600060076000848152602001908152602001600020549050818114612a19576000600660008673ffffffffffffffffffffffffffffffffffffffff1673ffffffffffffffffffffffffffffffffffffffff168152602001908152602001600020600084815260200190815260200160002054905080600660008773ffffffffffffffffffffffffffffffffffffffff1673ffffffffffffffffffffffffffffffffffffffff168152602001908152602001600020600084815260200190815260200160002081905550816007600083815260200190815260200160002081905550505b6007600084815260200190815260200160002060009055600660008573ffffffffffffffffffffffffffffffffffffffff1673ffffffffffffffffffffffffffffffffffffffff16815260200190815260200160002060008381526020019081526020016000206000905550505050565b60006001600880549050612a9e9190613b67565b9050600060096000848152602001908152602001600020549050600060088381548110612af4577f4e487b7100000000000000000000000000000000000000000000000000000000600052603260045260246000fd5b906000526020600020015490508060088381548110612b3c577f4e487b7100000000000000000000000000000000000000000000000000000000600052603260045260246000fd5b906000526020600020018190555081600960008381526020019081526020016000208190555060096000858152602001908152602001600020600090556008805480612bb1577f4e487b7100000000000000000000000000000000000000000000000000000000600052603160045260246000fd5b6001900381819060005260206000200160009055905550505050565b6000612bd883610d25565b905081600660008573ffffffffffffffffffffffffffffffffffffffff1673ffffffffffffffffffffffffffffffffffffffff168152602001908152602001600020600083815260200190815260200160002081905550806007600084815260200190815260200160002081905550505050565b600080600090507a184f03e93ff9f4daa797ed6e38ed64bf6a1f0100000000000000008310612cd0577a184f03e93ff9f4daa797ed6e38ed64bf6a1f0100000000000000008381612cc6577f4e487b7100000000000000000000000000000000000000000000000000000000600052601260045260246000fd5b0492506040810190505b6d04ee2d6d415b85acef81000000008310612d33576d04ee2d6d415b85acef81000000008381612d29577f4e487b7100000000000000000000000000000000000000000000000000000000600052601260045260246000fd5b0492506020810190505b662386f26fc100008310612d8857662386f26fc100008381612d7e577f4e487b7100000000000000000000000000000000000000000000000000000000600052601260045260246000fd5b0492506010810190505b6305f5e1008310612dd7576305f5e1008381612dcd577f4e487b7100000000000000000000000000000000000000000000000000000000600052601260045260246000fd5b0492506008810190505b6127108310612e22576127108381612e18577f4e487b7100000000000000000000000000000000000000000000000000000000600052601260045260246000fd5b0492506004810190505b60648310612e6b5760648381612e61577f4e487b7100000000000000000000000000000000000000000000000000000000600052601260045260246000fd5b0492506002810190505b600a8310612e7a576001810190505b80915050919050565b828054612e8f90613c51565b90600052602060002090601f016020900481019282612eb15760008555612ef8565b82601f10612eca57805160ff1916838001178555612ef8565b82800160010185558215612ef8579182015b82811115612ef7578251825591602001919060010190612edc565b5b509050612f059190612f49565b5090565b508054612f1590613c51565b6000825580601f10612f275750612f46565b601f016020900490600052602060002090810190612f459190612f49565b5b50565b5b80821115612f62576000816000905550600101612f4a565b5090565b6000612f79612f7484613a6c565b613a47565b905082815260208101848484011115612f9157600080fd5b612f9c848285613c0f565b509392505050565b6000612fb7612fb284613a9d565b613a47565b905082815260208101848484011115612fcf57600080fd5b612fda848285613c0f565b509392505050565b600081359050612ff181614277565b92915050565b6000813590506130068161428e565b92915050565b60008135905061301b816142a5565b92915050565b600081519050613030816142a5565b92915050565b600082601f83011261304757600080fd5b8135613057848260208601612f66565b91505092915050565b600082601f83011261307157600080fd5b8135613081848260208601612fa4565b91505092915050565b600081359050613099816142bc565b92915050565b6000602082840312156130b157600080fd5b60006130bf84828501612fe2565b91505092915050565b600080604083850312156130db57600080fd5b60006130e985828601612fe2565b92505060206130fa85828601612fe2565b9150509250929050565b60008060006060848603121561311957600080fd5b600061312786828701612fe2565b935050602061313886828701612fe2565b92505060406131498682870161308a565b9150509250925092565b6000806000806080858703121561316957600080fd5b600061317787828801612fe2565b945050602061318887828801612fe2565b93505060406131998782880161308a565b925050606085013567ffffffffffffffff8111156131b657600080fd5b6131c287828801613036565b91505092959194509250565b600080604083850312156131e157600080fd5b60006131ef85828601612fe2565b925050602061320085828601612ff7565b9150509250929050565b6000806040838503121561321d57600080fd5b600061322b85828601612fe2565b925050602083013567ffffffffffffffff81111561324857600080fd5b61325485828601613060565b9150509250929050565b6000806040838503121561327157600080fd5b600061327f85828601612fe2565b92505060206132908582860161308a565b9150509250929050565b6000602082840312156132ac57600080fd5b60006132ba8482850161300c565b91505092915050565b6000602082840312156132d557600080fd5b60006132e384828501613021565b91505092915050565b6000602082840312156132fe57600080fd5b600061330c8482850161308a565b91505092915050565b61331e81613b9b565b82525050565b61332d81613bad565b82525050565b600061333e82613ace565b6133488185613ae4565b9350613358818560208601613c1e565b61336181613d41565b840191505092915050565b600061337782613ad9565b6133818185613af5565b9350613391818560208601613c1e565b61339a81613d41565b840191505092915050565b60006133b082613ad9565b6133ba8185613b06565b93506133ca818560208601613c1e565b80840191505092915050565b60006133e3600d83613af5565b91506133ee82613d52565b602082019050919050565b6000613406602d83613af5565b915061341182613d7b565b604082019050919050565b6000613429602b83613af5565b915061343482613dca565b604082019050919050565b600061344c603283613af5565b915061345782613e19565b604082019050919050565b600061346f600883613af5565b915061347a82613e68565b602082019050919050565b6000613492602683613af5565b915061349d82613e91565b604082019050919050565b60006134b5602583613af5565b91506134c082613ee0565b604082019050919050565b60006134d8601c83613af5565b91506134e382613f2f565b602082019050919050565b60006134fb601283613af5565b915061350682613f58565b602082019050919050565b600061351e602483613af5565b915061352982613f81565b604082019050919050565b6000613541601983613af5565b915061354c82613fd0565b602082019050919050565b6000613564602983613af5565b915061356f82613ff9565b604082019050919050565b6000613587602e83613af5565b915061359282614048565b604082019050919050565b60006135aa602083613af5565b91506135b582614097565b602082019050919050565b60006135cd600b83613af5565b91506135d8826140c0565b602082019050919050565b60006135f0602083613af5565b91506135fb826140e9565b602082019050919050565b6000613613601883613af5565b915061361e82614112565b602082019050919050565b6000613636602183613af5565b91506136418261413b565b604082019050919050565b6000613659603d83613af5565b91506136648261418a565b604082019050919050565b600061367c602c83613af5565b9150613687826141d9565b604082019050919050565b600061369f603583613af5565b91506136aa82614228565b604082019050919050565b6136be81613c05565b82525050565b60006136d082856133a5565b91506136dc82846133a5565b91508190509392505050565b60006020820190506136fd6000830184613315565b92915050565b60006080820190506137186000830187613315565b6137256020830186613315565b61373260408301856136b5565b81810360608301526137448184613333565b905095945050505050565b60006020820190506137646000830184613324565b92915050565b60006020820190508181036000830152613784818461336c565b905092915050565b600060208201905081810360008301526137a5816133d6565b9050919050565b600060208201905081810360008301526137c5816133f9565b9050919050565b600060208201905081810360008301526137e58161341c565b9050919050565b600060208201905081810360008301526138058161343f565b9050919050565b6000602082019050818103600083015261382581613462565b9050919050565b6000602082019050818103600083015261384581613485565b9050919050565b60006020820190508181036000830152613865816134a8565b9050919050565b60006020820190508181036000830152613885816134cb565b9050919050565b600060208201905081810360008301526138a5816134ee565b9050919050565b600060208201905081810360008301526138c581613511565b9050919050565b600060208201905081810360008301526138e581613534565b9050919050565b6000602082019050818103600083015261390581613557565b9050919050565b600060208201905081810360008301526139258161357a565b9050919050565b600060208201905081810360008301526139458161359d565b9050919050565b60006020820190508181036000830152613965816135c0565b9050919050565b60006020820190508181036000830152613985816135e3565b9050919050565b600060208201905081810360008301526139a581613606565b9050919050565b600060208201905081810360008301526139c581613629565b9050919050565b600060208201905081810360008301526139e58161364c565b9050919050565b60006020820190508181036000830152613a058161366f565b9050919050565b60006020820190508181036000830152613a2581613692565b9050919050565b6000602082019050613a4160008301846136b5565b92915050565b6000613a51613a62565b9050613a5d8282613c83565b919050565b6000604051905090565b600067ffffffffffffffff821115613a8757613a86613d12565b5b613a9082613d41565b9050602081019050919050565b600067ffffffffffffffff821115613ab857613ab7613d12565b5b613ac182613d41565b9050602081019050919050565b600081519050919050565b600081519050919050565b600082825260208201905092915050565b600082825260208201905092915050565b600081905092915050565b6000613b1c82613c05565b9150613b2783613c05565b9250827fffffffffffffffffffffffffffffffffffffffffffffffffffffffffffffffff03821115613b5c57613b5b613cb4565b5b828201905092915050565b6000613b7282613c05565b9150613b7d83613c05565b925082821015613b9057613b8f613cb4565b5b828203905092915050565b6000613ba682613be5565b9050919050565b60008115159050919050565b60007fffffffff0000000000000000000000000000000000000000000000000000000082169050919050565b600073ffffffffffffffffffffffffffffffffffffffff82169050919050565b6000819050919050565b82818337600083830152505050565b60005b83811015613c3c578082015181840152602081019050613c21565b83811115613c4b576000848401525b50505050565b60006002820490506001821680613c6957607f821691505b60208210811415613c7d57613c7c613ce3565b5b50919050565b613c8c82613d41565b810181811067ffffffffffffffff82111715613cab57613caa613d12565b5b80604052505050565b7f4e487b7100000000000000000000000000000000000000000000000000000000600052601160045260246000fd5b7f4e487b7100000000000000000000000000000000000000000000000000000000600052602260045260246000fd5b7f4e487b7100000000000000000000000000000000000000000000000000000000600052604160045260246000fd5b6000601f19601f8301169050919050565b7f6f7574206f6620736561736f6e00000000000000000000000000000000000000600082015250565b7f4552433732313a2063616c6c6572206973206e6f7420746f6b656e206f776e6560008201527f72206f7220617070726f76656400000000000000000000000000000000000000602082015250565b7f455243373231456e756d657261626c653a206f776e657220696e646578206f7560008201527f74206f6620626f756e6473000000000000000000000000000000000000000000602082015250565b7f4552433732313a207472616e7366657220746f206e6f6e20455243373231526560008201527f63656976657220696d706c656d656e7465720000000000000000000000000000602082015250565b7f536f6c64204f7574000000000000000000000000000000000000000000000000600082015250565b7f4f776e61626c653a206e6577206f776e657220697320746865207a65726f206160008201527f6464726573730000000000000000000000000000000000000000000000000000602082015250565b7f4552433732313a207472616e736665722066726f6d20696e636f72726563742060008201527f6f776e6572000000000000000000000000000000000000000000000000000000602082015250565b7f4552433732313a20746f6b656e20616c7265616479206d696e74656400000000600082015250565b7f496e73756666696369656e742046756e64730000000000000000000000000000600082015250565b7f4552433732313a207472616e7366657220746f20746865207a65726f2061646460008201527f7265737300000000000000000000000000000000000000000000000000000000602082015250565b7f4552433732313a20617070726f766520746f2063616c6c657200000000000000600082015250565b7f4552433732313a2061646472657373207a65726f206973206e6f74206120766160008201527f6c6964206f776e65720000000000000000000000000000000000000000000000602082015250565b7f45524337323155524953746f726167653a2055524920736574206f66206e6f6e60008201527f6578697374656e7420746f6b656e000000000000000000000000000000000000602082015250565b7f4552433732313a206d696e7420746f20746865207a65726f2061646472657373600082015250565b7f416c6c2055736564205570000000000000000000000000000000000000000000600082015250565b7f4f776e61626c653a2063616c6c6572206973206e6f7420746865206f776e6572600082015250565b7f4552433732313a20696e76616c696420746f6b656e2049440000000000000000600082015250565b7f4552433732313a20617070726f76616c20746f2063757272656e74206f776e6560008201527f7200000000000000000000000000000000000000000000000000000000000000602082015250565b7f4552433732313a20617070726f76652063616c6c6572206973206e6f7420746f60008201527f6b656e206f776e6572206f7220617070726f76656420666f7220616c6c000000602082015250565b7f455243373231456e756d657261626c653a20676c6f62616c20696e646578206f60008201527f7574206f6620626f756e64730000000000000000000000000000000000000000602082015250565b7f455243373231456e756d657261626c653a20636f6e736563757469766520747260008201527f616e7366657273206e6f7420737570706f727465640000000000000000000000602082015250565b61428081613b9b565b811461428b57600080fd5b50565b61429781613bad565b81146142a257600080fd5b50565b6142ae81613bb9565b81146142b957600080fd5b50565b6142c581613c05565b81146142d057600080fd5b5056fea264697066735822122086f867e5364aa9d43130bc716029f2b2752fb31bdff76c19251076dfd9b0297e64736f6c63430008040033",
  "linkReferences": {},
  "deployedLinkReferences": {}
}