{
  "_format": "hh-sol-artifact-1",
  "contractName": "The_Gooses_Geese_Memberships",
  "sourceName": "contracts/Goose_Membership(final).sol",
  "abi": [
    {
      "inputs": [],
      "stateMutability": "nonpayable",
      "type": "constructor"
    },
    {
      "anonymous": false,
      "inputs": [
        {
          "indexed": true,
          "internalType": "address",
          "name": "owner",
          "type": "address"
        },
        {
          "indexed": true,
          "internalType": "address",
          "name": "approved",
          "type": "address"
        },
        {
          "indexed": true,
          "internalType": "uint256",
          "name": "tokenId",
          "type": "uint256"
        }
      ],
      "name": "Approval",
      "type": "event"
    },
    {
      "anonymous": false,
      "inputs": [
        {
          "indexed": true,
          "internalType": "address",
          "name": "owner",
          "type": "address"
        },
        {
          "indexed": true,
          "internalType": "address",
          "name": "operator",
          "type": "address"
        },
        {
          "indexed": false,
          "internalType": "bool",
          "name": "approved",
          "type": "bool"
        }
      ],
      "name": "ApprovalForAll",
      "type": "event"
    },
    {
      "anonymous": false,
      "inputs": [
        {
          "indexed": true,
          "internalType": "address",
          "name": "previousOwner",
          "type": "address"
        },
        {
          "indexed": true,
          "internalType": "address",
          "name": "newOwner",
          "type": "address"
        }
      ],
      "name": "OwnershipTransferred",
      "type": "event"
    },
    {
      "anonymous": false,
      "inputs": [
        {
          "indexed": true,
          "internalType": "address",
          "name": "from",
          "type": "address"
        },
        {
          "indexed": true,
          "internalType": "address",
          "name": "to",
          "type": "address"
        },
        {
          "indexed": true,
          "internalType": "uint256",
          "name": "tokenId",
          "type": "uint256"
        }
      ],
      "name": "Transfer",
      "type": "event"
    },
    {
      "inputs": [],
      "name": "Duringseason",
      "outputs": [
        {
          "internalType": "bool",
          "name": "",
          "type": "bool"
        }
      ],
      "stateMutability": "view",
      "type": "function"
    },
    {
      "inputs": [],
      "name": "FFSupply",
      "outputs": [
        {
          "internalType": "uint256",
          "name": "",
          "type": "uint256"
        }
      ],
      "stateMutability": "view",
      "type": "function"
    },
    {
      "inputs": [
        {
          "internalType": "address",
          "name": "to",
          "type": "address"
        },
        {
          "internalType": "string",
          "name": "uri",
          "type": "string"
        }
      ],
      "name": "PayToMint",
      "outputs": [
        {
          "internalType": "uint256",
          "name": "",
          "type": "uint256"
        }
      ],
      "stateMutability": "payable",
      "type": "function"
    },
    {
      "inputs": [
        {
          "internalType": "uint256",
          "name": "cost",
          "type": "uint256"
        }
      ],
      "name": "SetPrice",
      "outputs": [
        {
          "internalType": "uint256",
          "name": "",
          "type": "uint256"
        }
      ],
      "stateMutability": "nonpayable",
      "type": "function"
    },
    {
      "inputs": [],
      "name": "Setseasons",
      "outputs": [],
      "stateMutability": "nonpayable",
      "type": "function"
    },
    {
      "inputs": [
        {
          "internalType": "address",
          "name": "to",
          "type": "address"
        },
        {
          "internalType": "uint256",
          "name": "tokenId",
          "type": "uint256"
        }
      ],
      "name": "approve",
      "outputs": [],
      "stateMutability": "nonpayable",
      "type": "function"
    },
    {
      "inputs": [
        {
          "internalType": "address",
          "name": "owner",
          "type": "address"
        }
      ],
      "name": "balanceOf",
      "outputs": [
        {
          "internalType": "uint256",
          "name": "",
          "type": "uint256"
        }
      ],
      "stateMutability": "view",
      "type": "function"
    },
    {
      "inputs": [
        {
          "internalType": "uint256",
          "name": "tokenId",
          "type": "uint256"
        }
      ],
      "name": "burnNFT",
      "outputs": [],
      "stateMutability": "nonpayable",
      "type": "function"
    },
    {
      "inputs": [
        {
          "internalType": "uint256",
          "name": "tokenId",
          "type": "uint256"
        }
      ],
      "name": "getApproved",
      "outputs": [
        {
          "internalType": "address",
          "name": "",
          "type": "address"
        }
      ],
      "stateMutability": "view",
      "type": "function"
    },
    {
      "inputs": [],
      "name": "getBalance",
      "outputs": [
        {
          "internalType": "uint256",
          "name": "",
          "type": "uint256"
        }
      ],
      "stateMutability": "view",
      "type": "function"
    },
    {
      "inputs": [
        {
          "internalType": "address",
          "name": "owner",
          "type": "address"
        },
        {
          "internalType": "address",
          "name": "operator",
          "type": "address"
        }
      ],
      "name": "isApprovedForAll",
      "outputs": [
        {
          "internalType": "bool",
          "name": "",
          "type": "bool"
        }
      ],
      "stateMutability": "view",
      "type": "function"
    },
    {
      "inputs": [],
      "name": "name",
      "outputs": [
        {
          "internalType": "string",
          "name": "",
          "type": "string"
        }
      ],
      "stateMutability": "view",
      "type": "function"
    },
    {
      "inputs": [],
      "name": "owner",
      "outputs": [
        {
          "internalType": "address",
          "name": "",
          "type": "address"
        }
      ],
      "stateMutability": "view",
      "type": "function"
    },
    {
      "inputs": [
        {
          "internalType": "uint256",
          "name": "tokenId",
          "type": "uint256"
        }
      ],
      "name": "ownerOf",
      "outputs": [
        {
          "internalType": "address",
          "name": "",
          "type": "address"
        }
      ],
      "stateMutability": "view",
      "type": "function"
    },
    {
      "inputs": [],
      "name": "price",
      "outputs": [
        {
          "internalType": "uint256",
          "name": "",
          "type": "uint256"
        }
      ],
      "stateMutability": "view",
      "type": "function"
    },
    {
      "inputs": [],
      "name": "renounceOwnership",
      "outputs": [],
      "stateMutability": "nonpayable",
      "type": "function"
    },
    {
      "inputs": [
        {
          "internalType": "address",
          "name": "to",
          "type": "address"
        },
        {
          "internalType": "string",
          "name": "uri",
          "type": "string"
        }
      ],
      "name": "safeMint",
      "outputs": [],
      "stateMutability": "nonpayable",
      "type": "function"
    },
    {
      "inputs": [
        {
          "internalType": "address",
          "name": "from",
          "type": "address"
        },
        {
          "internalType": "address",
          "name": "to",
          "type": "address"
        },
        {
          "internalType": "uint256",
          "name": "tokenId",
          "type": "uint256"
        }
      ],
      "name": "safeTransferFrom",
      "outputs": [],
      "stateMutability": "nonpayable",
      "type": "function"
    },
    {
      "inputs": [
        {
          "internalType": "address",
          "name": "from",
          "type": "address"
        },
        {
          "internalType": "address",
          "name": "to",
          "type": "address"
        },
        {
          "internalType": "uint256",
          "name": "tokenId",
          "type": "uint256"
        },
        {
          "internalType": "bytes",
          "name": "data",
          "type": "bytes"
        }
      ],
      "name": "safeTransferFrom",
      "outputs": [],
      "stateMutability": "nonpayable",
      "type": "function"
    },
    {
      "inputs": [],
      "name": "seasonEnd",
      "outputs": [
        {
          "internalType": "bool",
          "name": "",
          "type": "bool"
        }
      ],
      "stateMutability": "nonpayable",
      "type": "function"
    },
    {
      "inputs": [],
      "name": "seasonStart",
      "outputs": [
        {
          "internalType": "bool",
          "name": "",
          "type": "bool"
        }
      ],
      "stateMutability": "nonpayable",
      "type": "function"
    },
    {
      "inputs": [
        {
          "internalType": "address",
          "name": "operator",
          "type": "address"
        },
        {
          "internalType": "bool",
          "name": "approved",
          "type": "bool"
        }
      ],
      "name": "setApprovalForAll",
      "outputs": [],
      "stateMutability": "nonpayable",
      "type": "function"
    },
    {
      "inputs": [
        {
          "internalType": "bytes4",
          "name": "interfaceId",
          "type": "bytes4"
        }
      ],
      "name": "supportsInterface",
      "outputs": [
        {
          "internalType": "bool",
          "name": "",
          "type": "bool"
        }
      ],
      "stateMutability": "view",
      "type": "function"
    },
    {
      "inputs": [],
      "name": "symbol",
      "outputs": [
        {
          "internalType": "string",
          "name": "",
          "type": "string"
        }
      ],
      "stateMutability": "view",
      "type": "function"
    },
    {
      "inputs": [
        {
          "internalType": "uint256",
          "name": "index",
          "type": "uint256"
        }
      ],
      "name": "tokenByIndex",
      "outputs": [
        {
          "internalType": "uint256",
          "name": "",
          "type": "uint256"
        }
      ],
      "stateMutability": "view",
      "type": "function"
    },
    {
      "inputs": [
        {
          "internalType": "address",
          "name": "owner",
          "type": "address"
        },
        {
          "internalType": "uint256",
          "name": "index",
          "type": "uint256"
        }
      ],
      "name": "tokenOfOwnerByIndex",
      "outputs": [
        {
          "internalType": "uint256",
          "name": "",
          "type": "uint256"
        }
      ],
      "stateMutability": "view",
      "type": "function"
    },
    {
      "inputs": [
        {
          "internalType": "uint256",
          "name": "tokenId",
          "type": "uint256"
        }
      ],
      "name": "tokenURI",
      "outputs": [
        {
          "internalType": "string",
          "name": "",
          "type": "string"
        }
      ],
      "stateMutability": "view",
      "type": "function"
    },
    {
      "inputs": [],
      "name": "totalSupply",
      "outputs": [
        {
          "internalType": "uint256",
          "name": "",
          "type": "uint256"
        }
      ],
      "stateMutability": "view",
      "type": "function"
    },
    {
      "inputs": [
        {
          "internalType": "address",
          "name": "from",
          "type": "address"
        },
        {
          "internalType": "address",
          "name": "to",
          "type": "address"
        },
        {
          "internalType": "uint256",
          "name": "tokenId",
          "type": "uint256"
        }
      ],
      "name": "transferFrom",
      "outputs": [],
      "stateMutability": "nonpayable",
      "type": "function"
    },
    {
      "inputs": [
        {
          "internalType": "address",
          "name": "newOwner",
          "type": "address"
        }
      ],
      "name": "transferOwnership",
      "outputs": [],
      "stateMutability": "nonpayable",
      "type": "function"
    },
    {
      "inputs": [],
      "name": "withdrawMoneyTo",
      "outputs": [],
      "stateMutability": "nonpayable",
      "type": "function"
    }
  ],
  "bytecode": "0x60806040526103e8600c556032600d55662386f26fc10000600e556001600f60006101000a81548160ff021916908315150217905550733a9bf37becca852a165a06ca35d5f323572ac5de601260006101000a81548173ffffffffffffffffffffffffffffffffffffffff021916908373ffffffffffffffffffffffffffffffffffffffff1602179055503480156200009757600080fd5b506040518060400160405280601c81526020017f5468655f476f6f7365735f47656573655f4d656d6265727368697073000000008152506040518060400160405280600481526020017f5447474d0000000000000000000000000000000000000000000000000000000081525081600090805190602001906200011c9291906200022c565b508060019080519060200190620001359291906200022c565b505050620001586200014c6200015e60201b60201c565b6200016660201b60201c565b62000341565b600033905090565b6000600b60009054906101000a900473ffffffffffffffffffffffffffffffffffffffff16905081600b60006101000a81548173ffffffffffffffffffffffffffffffffffffffff021916908373ffffffffffffffffffffffffffffffffffffffff1602179055508173ffffffffffffffffffffffffffffffffffffffff168173ffffffffffffffffffffffffffffffffffffffff167f8be0079c531659141344cd1fd0a4f28419497f9722a3daafe3b4186f6b6457e060405160405180910390a35050565b8280546200023a90620002dc565b90600052602060002090601f0160209004810192826200025e5760008555620002aa565b82601f106200027957805160ff1916838001178555620002aa565b82800160010185558215620002aa579182015b82811115620002a95782518255916020019190600101906200028c565b5b509050620002b99190620002bd565b5090565b5b80821115620002d8576000816000905550600101620002be565b5090565b60006002820490506001821680620002f557607f821691505b602082108114156200030c576200030b62000312565b5b50919050565b7f4e487b7100000000000000000000000000000000000000000000000000000000600052602260045260246000fd5b61430780620003516000396000f3fe6080604052600436106101d85760003560e01c8063697be12811610102578063b88d4fde11610095578063db980b5d11610064578063db980b5d146106ac578063e757b20d146106dc578063e985e9c514610707578063f2fde38b14610744576101d8565b8063b88d4fde146105f2578063bafa09461461061b578063c87b56dd14610646578063d204c45e14610683576101d8565b80638da5cb5b116100d15780638da5cb5b1461054857806395d89b4114610573578063a035b1fe1461059e578063a22cb465146105c9576101d8565b8063697be1281461049e57806370a08231146104c9578063715018a6146105065780637f885cd51461051d576101d8565b806323b872dd1161017a57806342842e0e1161014957806342842e0e146103be5780634f5539c0146103e75780634f6ccce7146104245780636352211e14610461576101d8565b806323b872dd146103185780632890e0d7146103415780632f36aae41461036a5780632f745c5914610381576101d8565b8063086f708a116101b6578063086f708a14610282578063095ea7b31461029957806312065fe0146102c257806318160ddd146102ed576101d8565b806301ffc9a7146101dd57806306fdde031461021a578063081812fc14610245575b600080fd5b3480156101e957600080fd5b5061020460048036038101906101ff9190613298565b61076d565b604051610211919061374d565b60405180910390f35b34801561022657600080fd5b5061022f61077f565b60405161023c9190613768565b60405180910390f35b34801561025157600080fd5b5061026c600480360381019061026791906132ea565b610811565b60405161027991906136e6565b60405180910390f35b34801561028e57600080fd5b50610297610857565b005b3480156102a557600080fd5b506102c060048036038101906102bb919061325c565b6108cf565b005b3480156102ce57600080fd5b506102d76109e7565b6040516102e49190613a2a565b60405180910390f35b3480156102f957600080fd5b506103026109ef565b60405161030f9190613a2a565b60405180910390f35b34801561032457600080fd5b5061033f600480360381019061033a9190613102565b6109fc565b005b34801561034d57600080fd5b50610368600480360381019061036391906132ea565b610a5c565b005b34801561037657600080fd5b5061037f610a68565b005b34801561038d57600080fd5b506103a860048036038101906103a3919061325c565b610b25565b6040516103b59190613a2a565b60405180910390f35b3480156103ca57600080fd5b506103e560048036038101906103e09190613102565b610bca565b005b3480156103f357600080fd5b5061040e600480360381019061040991906132ea565b610bea565b60405161041b9190613a2a565b60405180910390f35b34801561043057600080fd5b5061044b600480360381019061044691906132ea565b610c05565b6040516104589190613a2a565b60405180910390f35b34801561046d57600080fd5b50610488600480360381019061048391906132ea565b610c9c565b60405161049591906136e6565b60405180910390f35b3480156104aa57600080fd5b506104b3610d23565b6040516104c09190613a2a565b60405180910390f35b3480156104d557600080fd5b506104f060048036038101906104eb919061309d565b610d3c565b6040516104fd9190613a2a565b60405180910390f35b34801561051257600080fd5b5061051b610df4565b005b34801561052957600080fd5b50610532610e08565b60405161053f919061374d565b60405180910390f35b34801561055457600080fd5b5061055d610e27565b60405161056a91906136e6565b60405180910390f35b34801561057f57600080fd5b50610588610e51565b6040516105959190613768565b60405180910390f35b3480156105aa57600080fd5b506105b3610ee3565b6040516105c09190613a2a565b60405180910390f35b3480156105d557600080fd5b506105f060048036038101906105eb91906131cc565b610ee9565b005b3480156105fe57600080fd5b5061061960048036038101906106149190613151565b610eff565b005b34801561062757600080fd5b50610630610f61565b60405161063d919061374d565b60405180910390f35b34801561065257600080fd5b5061066d600480360381019061066891906132ea565b610fb3565b60405161067a9190613768565b60405180910390f35b34801561068f57600080fd5b506106aa60048036038101906106a59190613208565b610fc5565b005b6106c660048036038101906106c19190613208565b61105c565b6040516106d39190613a2a565b60405180910390f35b3480156106e857600080fd5b506106f1611192565b6040516106fe919061374d565b60405180910390f35b34801561071357600080fd5b5061072e600480360381019061072991906130c6565b6111e4565b60405161073b919061374d565b60405180910390f35b34801561075057600080fd5b5061076b6004803603810190610766919061309d565b611278565b005b6000610778826112fc565b9050919050565b60606000805461078e90613c4f565b80601f01602080910402602001604051908101604052809291908181526020018280546107ba90613c4f565b80156108075780601f106107dc57610100808354040283529160200191610807565b820191906000526020600020905b8154815290600101906020018083116107ea57829003601f168201915b5050505050905090565b600061081c82611376565b6004600083815260200190815260200160002060009054906101000a900473ffffffffffffffffffffffffffffffffffffffff169050919050565b6000601260009054906101000a900473ffffffffffffffffffffffffffffffffffffffff1690508073ffffffffffffffffffffffffffffffffffffffff166108fc6108a06109e7565b9081150290604051600060405180830381858888f193505050501580156108cb573d6000803e3d6000fd5b5050565b60006108da82610c9c565b90508073ffffffffffffffffffffffffffffffffffffffff168373ffffffffffffffffffffffffffffffffffffffff16141561094b576040517f08c379a0000000000000000000000000000000000000000000000000000000008152600401610942906139aa565b60405180910390fd5b8073ffffffffffffffffffffffffffffffffffffffff1661096a6113c1565b73ffffffffffffffffffffffffffffffffffffffff1614806109995750610998816109936113c1565b6111e4565b5b6109d8576040517f08c379a00000000000000000000000000000000000000000000000000000000081526004016109cf906139ca565b60405180910390fd5b6109e283836113c9565b505050565b600047905090565b6000600880549050905090565b610a0d610a076113c1565b82611482565b610a4c576040517f08c379a0000000000000000000000000000000000000000000000000000000008152600401610a43906137aa565b60405180910390fd5b610a57838383611517565b505050565b610a6581611811565b50565b60fa610a74601061181d565b1415610a96576000600f60006101000a81548160ff0219169083151502179055505b6101f4610aa3601061181d565b1415610ac5576000600f60006101000a81548160ff0219169083151502179055505b6102ee610ad2601061181d565b1415610af4576000600f60006101000a81548160ff0219169083151502179055505b6103e8610b01601061181d565b1415610b23576000600f60006101000a81548160ff0219169083151502179055505b565b6000610b3083610d3c565b8210610b71576040517f08c379a0000000000000000000000000000000000000000000000000000000008152600401610b68906137ca565b60405180910390fd5b600660008473ffffffffffffffffffffffffffffffffffffffff1673ffffffffffffffffffffffffffffffffffffffff168152602001908152602001600020600083815260200190815260200160002054905092915050565b610be583838360405180602001604052806000815250610eff565b505050565b6000610bf461182b565b81600e81905550600e549050919050565b6000610c0f6109ef565b8210610c50576040517f08c379a0000000000000000000000000000000000000000000000000000000008152600401610c47906139ea565b60405180910390fd5b60088281548110610c8a577f4e487b7100000000000000000000000000000000000000000000000000000000600052603260045260246000fd5b90600052602060002001549050919050565b600080610ca8836118a9565b9050600073ffffffffffffffffffffffffffffffffffffffff168173ffffffffffffffffffffffffffffffffffffffff161415610d1a576040517f08c379a0000000000000000000000000000000000000000000000000000000008152600401610d119061398a565b60405180910390fd5b80915050919050565b6000610d2d61182b565b610d37601061181d565b905090565b60008073ffffffffffffffffffffffffffffffffffffffff168273ffffffffffffffffffffffffffffffffffffffff161415610dad576040517f08c379a0000000000000000000000000000000000000000000000000000000008152600401610da4906138ea565b60405180910390fd5b600360008373ffffffffffffffffffffffffffffffffffffffff1673ffffffffffffffffffffffffffffffffffffffff168152602001908152602001600020549050919050565b610dfc61182b565b610e0660006118e6565b565b6000610e1261182b565b600f60009054906101000a900460ff16905090565b6000600b60009054906101000a900473ffffffffffffffffffffffffffffffffffffffff16905090565b606060018054610e6090613c4f565b80601f0160208091040260200160405190810160405280929190818152602001828054610e8c90613c4f565b8015610ed95780601f10610eae57610100808354040283529160200191610ed9565b820191906000526020600020905b815481529060010190602001808311610ebc57829003601f168201915b5050505050905090565b600e5481565b610efb610ef46113c1565b83836119ac565b5050565b610f10610f0a6113c1565b83611482565b610f4f576040517f08c379a0000000000000000000000000000000000000000000000000000000008152600401610f46906137aa565b60405180910390fd5b610f5b84848484611b19565b50505050565b6000610f6b61182b565b6001600f60006101000a81548160ff02191690831515021790555060011515600f60009054906101000a900460ff1615151415610fab5760019050610fb0565b600090505b90565b6060610fbe82611b75565b9050919050565b610fcd61182b565b6000610fd9601161181d565b9050600d54811115611020576040517f08c379a00000000000000000000000000000000000000000000000000000000081526004016110179061394a565b60405180910390fd5b61102a6011611c88565b6000611036601061181d565b90506110426010611c88565b61104c8482611c9e565b6110568184611cbc565b50505050565b600080611069601061181d565b9050600e543410156110b0576040517f08c379a00000000000000000000000000000000000000000000000000000000081526004016110a79061388a565b60405180910390fd5b600c548111156110f5576040517f08c379a00000000000000000000000000000000000000000000000000000000081526004016110ec9061380a565b60405180910390fd5b60011515600f60009054906101000a900460ff1615151461114b576040517f08c379a00000000000000000000000000000000000000000000000000000000081526004016111429061378a565b60405180910390fd5b6111556010611c88565b61115f8482611c9e565b6111698184611cbc565b611171610a68565b611179610857565b6000611185601061181d565b9050809250505092915050565b600061119c61182b565b6000600f60006101000a81548160ff02191690831515021790555060001515600f60009054906101000a900460ff16151514156111dc57600090506111e1565b600190505b90565b6000600560008473ffffffffffffffffffffffffffffffffffffffff1673ffffffffffffffffffffffffffffffffffffffff16815260200190815260200160002060008373ffffffffffffffffffffffffffffffffffffffff1673ffffffffffffffffffffffffffffffffffffffff16815260200190815260200160002060009054906101000a900460ff16905092915050565b61128061182b565b600073ffffffffffffffffffffffffffffffffffffffff168173ffffffffffffffffffffffffffffffffffffffff1614156112f0576040517f08c379a00000000000000000000000000000000000000000000000000000000081526004016112e79061382a565b60405180910390fd5b6112f9816118e6565b50565b60007f780e9d63000000000000000000000000000000000000000000000000000000007bffffffffffffffffffffffffffffffffffffffffffffffffffffffff1916827bffffffffffffffffffffffffffffffffffffffffffffffffffffffff1916148061136f575061136e82611d30565b5b9050919050565b61137f81611e12565b6113be576040517f08c379a00000000000000000000000000000000000000000000000000000000081526004016113b59061398a565b60405180910390fd5b50565b600033905090565b816004600083815260200190815260200160002060006101000a81548173ffffffffffffffffffffffffffffffffffffffff021916908373ffffffffffffffffffffffffffffffffffffffff160217905550808273ffffffffffffffffffffffffffffffffffffffff1661143c83610c9c565b73ffffffffffffffffffffffffffffffffffffffff167f8c5be1e5ebec7d5bd14f71427d1e84f3dd0314c0f7b2291e5b200ac8c7c3b92560405160405180910390a45050565b60008061148e83610c9c565b90508073ffffffffffffffffffffffffffffffffffffffff168473ffffffffffffffffffffffffffffffffffffffff1614806114d057506114cf81856111e4565b5b8061150e57508373ffffffffffffffffffffffffffffffffffffffff166114f684610811565b73ffffffffffffffffffffffffffffffffffffffff16145b91505092915050565b8273ffffffffffffffffffffffffffffffffffffffff1661153782610c9c565b73ffffffffffffffffffffffffffffffffffffffff161461158d576040517f08c379a00000000000000000000000000000000000000000000000000000000081526004016115849061384a565b60405180910390fd5b600073ffffffffffffffffffffffffffffffffffffffff168273ffffffffffffffffffffffffffffffffffffffff1614156115fd576040517f08c379a00000000000000000000000000000000000000000000000000000000081526004016115f4906138aa565b60405180910390fd5b61160a8383836001611e53565b8273ffffffffffffffffffffffffffffffffffffffff1661162a82610c9c565b73ffffffffffffffffffffffffffffffffffffffff1614611680576040517f08c379a00000000000000000000000000000000000000000000000000000000081526004016116779061384a565b60405180910390fd5b6004600082815260200190815260200160002060006101000a81549073ffffffffffffffffffffffffffffffffffffffff02191690556001600360008573ffffffffffffffffffffffffffffffffffffffff1673ffffffffffffffffffffffffffffffffffffffff168152602001908152602001600020600082825403925050819055506001600360008473ffffffffffffffffffffffffffffffffffffffff1673ffffffffffffffffffffffffffffffffffffffff16815260200190815260200160002060008282540192505081905550816002600083815260200190815260200160002060006101000a81548173ffffffffffffffffffffffffffffffffffffffff021916908373ffffffffffffffffffffffffffffffffffffffff160217905550808273ffffffffffffffffffffffffffffffffffffffff168473ffffffffffffffffffffffffffffffffffffffff167fddf252ad1be2c89b69c2b068fc378daa952ba7f163c4a11628f55a4df523b3ef60405160405180910390a461180c8383836001611e65565b505050565b61181a81611e6b565b50565b600081600001549050919050565b6118336113c1565b73ffffffffffffffffffffffffffffffffffffffff16611851610e27565b73ffffffffffffffffffffffffffffffffffffffff16146118a7576040517f08c379a000000000000000000000000000000000000000000000000000000000815260040161189e9061396a565b60405180910390fd5b565b60006002600083815260200190815260200160002060009054906101000a900473ffffffffffffffffffffffffffffffffffffffff169050919050565b6000600b60009054906101000a900473ffffffffffffffffffffffffffffffffffffffff16905081600b60006101000a81548173ffffffffffffffffffffffffffffffffffffffff021916908373ffffffffffffffffffffffffffffffffffffffff1602179055508173ffffffffffffffffffffffffffffffffffffffff168173ffffffffffffffffffffffffffffffffffffffff167f8be0079c531659141344cd1fd0a4f28419497f9722a3daafe3b4186f6b6457e060405160405180910390a35050565b8173ffffffffffffffffffffffffffffffffffffffff168373ffffffffffffffffffffffffffffffffffffffff161415611a1b576040517f08c379a0000000000000000000000000000000000000000000000000000000008152600401611a12906138ca565b60405180910390fd5b80600560008573ffffffffffffffffffffffffffffffffffffffff1673ffffffffffffffffffffffffffffffffffffffff16815260200190815260200160002060008473ffffffffffffffffffffffffffffffffffffffff1673ffffffffffffffffffffffffffffffffffffffff16815260200190815260200160002060006101000a81548160ff0219169083151502179055508173ffffffffffffffffffffffffffffffffffffffff168373ffffffffffffffffffffffffffffffffffffffff167f17307eab39ab6107e8899845ad3d59bd9653f200f220920489ca2b5937696c3183604051611b0c919061374d565b60405180910390a3505050565b611b24848484611517565b611b3084848484611ebe565b611b6f576040517f08c379a0000000000000000000000000000000000000000000000000000000008152600401611b66906137ea565b60405180910390fd5b50505050565b6060611b8082611376565b6000600a60008481526020019081526020016000208054611ba090613c4f565b80601f0160208091040260200160405190810160405280929190818152602001828054611bcc90613c4f565b8015611c195780601f10611bee57610100808354040283529160200191611c19565b820191906000526020600020905b815481529060010190602001808311611bfc57829003601f168201915b505050505090506000611c2a612055565b9050600081511415611c40578192505050611c83565b600082511115611c75578082604051602001611c5d9291906136c2565b60405160208183030381529060405292505050611c83565b611c7e8461206c565b925050505b919050565b6001816000016000828254019250508190555050565b611cb88282604051806020016040528060008152506120d4565b5050565b611cc582611e12565b611d04576040517f08c379a0000000000000000000000000000000000000000000000000000000008152600401611cfb9061390a565b60405180910390fd5b80600a60008481526020019081526020016000209080519060200190611d2b929190612e81565b505050565b60007f80ac58cd000000000000000000000000000000000000000000000000000000007bffffffffffffffffffffffffffffffffffffffffffffffffffffffff1916827bffffffffffffffffffffffffffffffffffffffffffffffffffffffff19161480611dfb57507f5b5e139f000000000000000000000000000000000000000000000000000000007bffffffffffffffffffffffffffffffffffffffffffffffffffffffff1916827bffffffffffffffffffffffffffffffffffffffffffffffffffffffff1916145b80611e0b5750611e0a8261212f565b5b9050919050565b60008073ffffffffffffffffffffffffffffffffffffffff16611e34836118a9565b73ffffffffffffffffffffffffffffffffffffffff1614159050919050565b611e5f84848484612199565b50505050565b50505050565b611e74816122f9565b6000600a60008381526020019081526020016000208054611e9490613c4f565b905014611ebb57600a60008281526020019081526020016000206000611eba9190612f07565b5b50565b6000611edf8473ffffffffffffffffffffffffffffffffffffffff16612447565b15612048578373ffffffffffffffffffffffffffffffffffffffff1663150b7a02611f086113c1565b8786866040518563ffffffff1660e01b8152600401611f2a9493929190613701565b602060405180830381600087803b158015611f4457600080fd5b505af1925050508015611f7557506040513d601f19601f82011682018060405250810190611f7291906132c1565b60015b611ff8573d8060008114611fa5576040519150601f19603f3d011682016040523d82523d6000602084013e611faa565b606091505b50600081511415611ff0576040517f08c379a0000000000000000000000000000000000000000000000000000000008152600401611fe7906137ea565b60405180910390fd5b805181602001fd5b63150b7a0260e01b7bffffffffffffffffffffffffffffffffffffffffffffffffffffffff1916817bffffffffffffffffffffffffffffffffffffffffffffffffffffffff19161491505061204d565b600190505b949350505050565b606060405180602001604052806000815250905090565b606061207782611376565b6000612081612055565b905060008151116120a157604051806020016040528060008152506120cc565b806120ab8461246a565b6040516020016120bc9291906136c2565b6040516020818303038152906040525b915050919050565b6120de838361258e565b6120eb6000848484611ebe565b61212a576040517f08c379a0000000000000000000000000000000000000000000000000000000008152600401612121906137ea565b60405180910390fd5b505050565b60007f01ffc9a7000000000000000000000000000000000000000000000000000000007bffffffffffffffffffffffffffffffffffffffffffffffffffffffff1916827bffffffffffffffffffffffffffffffffffffffffffffffffffffffff1916149050919050565b6121a5848484846127ac565b60018111156121e9576040517f08c379a00000000000000000000000000000000000000000000000000000000081526004016121e090613a0a565b60405180910390fd5b6000829050600073ffffffffffffffffffffffffffffffffffffffff168573ffffffffffffffffffffffffffffffffffffffff1614156122315761222c816128d2565b612270565b8373ffffffffffffffffffffffffffffffffffffffff168573ffffffffffffffffffffffffffffffffffffffff161461226f5761226e858261291b565b5b5b600073ffffffffffffffffffffffffffffffffffffffff168473ffffffffffffffffffffffffffffffffffffffff1614156122b3576122ae81612a88565b6122f2565b8473ffffffffffffffffffffffffffffffffffffffff168473ffffffffffffffffffffffffffffffffffffffff16146122f1576122f08482612bcb565b5b5b5050505050565b600061230482610c9c565b9050612314816000846001611e53565b61231d82610c9c565b90506004600083815260200190815260200160002060006101000a81549073ffffffffffffffffffffffffffffffffffffffff02191690556001600360008373ffffffffffffffffffffffffffffffffffffffff1673ffffffffffffffffffffffffffffffffffffffff168152602001908152602001600020600082825403925050819055506002600083815260200190815260200160002060006101000a81549073ffffffffffffffffffffffffffffffffffffffff021916905581600073ffffffffffffffffffffffffffffffffffffffff168273ffffffffffffffffffffffffffffffffffffffff167fddf252ad1be2c89b69c2b068fc378daa952ba7f163c4a11628f55a4df523b3ef60405160405180910390a4612443816000846001611e65565b5050565b6000808273ffffffffffffffffffffffffffffffffffffffff163b119050919050565b60606000600161247984612c4a565b01905060008167ffffffffffffffff8111156124be577f4e487b7100000000000000000000000000000000000000000000000000000000600052604160045260246000fd5b6040519080825280601f01601f1916602001820160405280156124f05781602001600182028036833780820191505090505b509050600082602001820190505b600115612583578080600190039150507f3031323334353637383961626364656600000000000000000000000000000000600a86061a8153600a858161256d577f4e487b7100000000000000000000000000000000000000000000000000000000600052601260045260246000fd5b049450600085141561257e57612583565b6124fe565b819350505050919050565b600073ffffffffffffffffffffffffffffffffffffffff168273ffffffffffffffffffffffffffffffffffffffff1614156125fe576040517f08c379a00000000000000000000000000000000000000000000000000000000081526004016125f59061392a565b60405180910390fd5b61260781611e12565b15612647576040517f08c379a000000000000000000000000000000000000000000000000000000000815260040161263e9061386a565b60405180910390fd5b612655600083836001611e53565b61265e81611e12565b1561269e576040517f08c379a00000000000000000000000000000000000000000000000000000000081526004016126959061386a565b60405180910390fd5b6001600360008473ffffffffffffffffffffffffffffffffffffffff1673ffffffffffffffffffffffffffffffffffffffff16815260200190815260200160002060008282540192505081905550816002600083815260200190815260200160002060006101000a81548173ffffffffffffffffffffffffffffffffffffffff021916908373ffffffffffffffffffffffffffffffffffffffff160217905550808273ffffffffffffffffffffffffffffffffffffffff16600073ffffffffffffffffffffffffffffffffffffffff167fddf252ad1be2c89b69c2b068fc378daa952ba7f163c4a11628f55a4df523b3ef60405160405180910390a46127a8600083836001611e65565b5050565b60018111156128cc57600073ffffffffffffffffffffffffffffffffffffffff168473ffffffffffffffffffffffffffffffffffffffff16146128405780600360008673ffffffffffffffffffffffffffffffffffffffff1673ffffffffffffffffffffffffffffffffffffffff16815260200190815260200160002060008282546128389190613b65565b925050819055505b600073ffffffffffffffffffffffffffffffffffffffff168373ffffffffffffffffffffffffffffffffffffffff16146128cb5780600360008573ffffffffffffffffffffffffffffffffffffffff1673ffffffffffffffffffffffffffffffffffffffff16815260200190815260200160002060008282546128c39190613b0f565b925050819055505b5b50505050565b6008805490506009600083815260200190815260200160002081905550600881908060018154018082558091505060019003906000526020600020016000909190919091505550565b6000600161292884610d3c565b6129329190613b65565b9050600060076000848152602001908152602001600020549050818114612a17576000600660008673ffffffffffffffffffffffffffffffffffffffff1673ffffffffffffffffffffffffffffffffffffffff168152602001908152602001600020600084815260200190815260200160002054905080600660008773ffffffffffffffffffffffffffffffffffffffff1673ffffffffffffffffffffffffffffffffffffffff168152602001908152602001600020600084815260200190815260200160002081905550816007600083815260200190815260200160002081905550505b6007600084815260200190815260200160002060009055600660008573ffffffffffffffffffffffffffffffffffffffff1673ffffffffffffffffffffffffffffffffffffffff16815260200190815260200160002060008381526020019081526020016000206000905550505050565b60006001600880549050612a9c9190613b65565b9050600060096000848152602001908152602001600020549050600060088381548110612af2577f4e487b7100000000000000000000000000000000000000000000000000000000600052603260045260246000fd5b906000526020600020015490508060088381548110612b3a577f4e487b7100000000000000000000000000000000000000000000000000000000600052603260045260246000fd5b906000526020600020018190555081600960008381526020019081526020016000208190555060096000858152602001908152602001600020600090556008805480612baf577f4e487b7100000000000000000000000000000000000000000000000000000000600052603160045260246000fd5b6001900381819060005260206000200160009055905550505050565b6000612bd683610d3c565b905081600660008573ffffffffffffffffffffffffffffffffffffffff1673ffffffffffffffffffffffffffffffffffffffff168152602001908152602001600020600083815260200190815260200160002081905550806007600084815260200190815260200160002081905550505050565b600080600090507a184f03e93ff9f4daa797ed6e38ed64bf6a1f0100000000000000008310612cce577a184f03e93ff9f4daa797ed6e38ed64bf6a1f0100000000000000008381612cc4577f4e487b7100000000000000000000000000000000000000000000000000000000600052601260045260246000fd5b0492506040810190505b6d04ee2d6d415b85acef81000000008310612d31576d04ee2d6d415b85acef81000000008381612d27577f4e487b7100000000000000000000000000000000000000000000000000000000600052601260045260246000fd5b0492506020810190505b662386f26fc100008310612d8657662386f26fc100008381612d7c577f4e487b7100000000000000000000000000000000000000000000000000000000600052601260045260246000fd5b0492506010810190505b6305f5e1008310612dd5576305f5e1008381612dcb577f4e487b7100000000000000000000000000000000000000000000000000000000600052601260045260246000fd5b0492506008810190505b6127108310612e20576127108381612e16577f4e487b7100000000000000000000000000000000000000000000000000000000600052601260045260246000fd5b0492506004810190505b60648310612e695760648381612e5f577f4e487b7100000000000000000000000000000000000000000000000000000000600052601260045260246000fd5b0492506002810190505b600a8310612e78576001810190505b80915050919050565b828054612e8d90613c4f565b90600052602060002090601f016020900481019282612eaf5760008555612ef6565b82601f10612ec857805160ff1916838001178555612ef6565b82800160010185558215612ef6579182015b82811115612ef5578251825591602001919060010190612eda565b5b509050612f039190612f47565b5090565b508054612f1390613c4f565b6000825580601f10612f255750612f44565b601f016020900490600052602060002090810190612f439190612f47565b5b50565b5b80821115612f60576000816000905550600101612f48565b5090565b6000612f77612f7284613a6a565b613a45565b905082815260208101848484011115612f8f57600080fd5b612f9a848285613c0d565b509392505050565b6000612fb5612fb084613a9b565b613a45565b905082815260208101848484011115612fcd57600080fd5b612fd8848285613c0d565b509392505050565b600081359050612fef81614275565b92915050565b6000813590506130048161428c565b92915050565b600081359050613019816142a3565b92915050565b60008151905061302e816142a3565b92915050565b600082601f83011261304557600080fd5b8135613055848260208601612f64565b91505092915050565b600082601f83011261306f57600080fd5b813561307f848260208601612fa2565b91505092915050565b600081359050613097816142ba565b92915050565b6000602082840312156130af57600080fd5b60006130bd84828501612fe0565b91505092915050565b600080604083850312156130d957600080fd5b60006130e785828601612fe0565b92505060206130f885828601612fe0565b9150509250929050565b60008060006060848603121561311757600080fd5b600061312586828701612fe0565b935050602061313686828701612fe0565b925050604061314786828701613088565b9150509250925092565b6000806000806080858703121561316757600080fd5b600061317587828801612fe0565b945050602061318687828801612fe0565b935050604061319787828801613088565b925050606085013567ffffffffffffffff8111156131b457600080fd5b6131c087828801613034565b91505092959194509250565b600080604083850312156131df57600080fd5b60006131ed85828601612fe0565b92505060206131fe85828601612ff5565b9150509250929050565b6000806040838503121561321b57600080fd5b600061322985828601612fe0565b925050602083013567ffffffffffffffff81111561324657600080fd5b6132528582860161305e565b9150509250929050565b6000806040838503121561326f57600080fd5b600061327d85828601612fe0565b925050602061328e85828601613088565b9150509250929050565b6000602082840312156132aa57600080fd5b60006132b88482850161300a565b91505092915050565b6000602082840312156132d357600080fd5b60006132e18482850161301f565b91505092915050565b6000602082840312156132fc57600080fd5b600061330a84828501613088565b91505092915050565b61331c81613b99565b82525050565b61332b81613bab565b82525050565b600061333c82613acc565b6133468185613ae2565b9350613356818560208601613c1c565b61335f81613d3f565b840191505092915050565b600061337582613ad7565b61337f8185613af3565b935061338f818560208601613c1c565b61339881613d3f565b840191505092915050565b60006133ae82613ad7565b6133b88185613b04565b93506133c8818560208601613c1c565b80840191505092915050565b60006133e1600d83613af3565b91506133ec82613d50565b602082019050919050565b6000613404602d83613af3565b915061340f82613d79565b604082019050919050565b6000613427602b83613af3565b915061343282613dc8565b604082019050919050565b600061344a603283613af3565b915061345582613e17565b604082019050919050565b600061346d600883613af3565b915061347882613e66565b602082019050919050565b6000613490602683613af3565b915061349b82613e8f565b604082019050919050565b60006134b3602583613af3565b91506134be82613ede565b604082019050919050565b60006134d6601c83613af3565b91506134e182613f2d565b602082019050919050565b60006134f9601283613af3565b915061350482613f56565b602082019050919050565b600061351c602483613af3565b915061352782613f7f565b604082019050919050565b600061353f601983613af3565b915061354a82613fce565b602082019050919050565b6000613562602983613af3565b915061356d82613ff7565b604082019050919050565b6000613585602e83613af3565b915061359082614046565b604082019050919050565b60006135a8602083613af3565b91506135b382614095565b602082019050919050565b60006135cb600b83613af3565b91506135d6826140be565b602082019050919050565b60006135ee602083613af3565b91506135f9826140e7565b602082019050919050565b6000613611601883613af3565b915061361c82614110565b602082019050919050565b6000613634602183613af3565b915061363f82614139565b604082019050919050565b6000613657603d83613af3565b915061366282614188565b604082019050919050565b600061367a602c83613af3565b9150613685826141d7565b604082019050919050565b600061369d603583613af3565b91506136a882614226565b604082019050919050565b6136bc81613c03565b82525050565b60006136ce82856133a3565b91506136da82846133a3565b91508190509392505050565b60006020820190506136fb6000830184613313565b92915050565b60006080820190506137166000830187613313565b6137236020830186613313565b61373060408301856136b3565b81810360608301526137428184613331565b905095945050505050565b60006020820190506137626000830184613322565b92915050565b60006020820190508181036000830152613782818461336a565b905092915050565b600060208201905081810360008301526137a3816133d4565b9050919050565b600060208201905081810360008301526137c3816133f7565b9050919050565b600060208201905081810360008301526137e38161341a565b9050919050565b600060208201905081810360008301526138038161343d565b9050919050565b6000602082019050818103600083015261382381613460565b9050919050565b6000602082019050818103600083015261384381613483565b9050919050565b60006020820190508181036000830152613863816134a6565b9050919050565b60006020820190508181036000830152613883816134c9565b9050919050565b600060208201905081810360008301526138a3816134ec565b9050919050565b600060208201905081810360008301526138c38161350f565b9050919050565b600060208201905081810360008301526138e381613532565b9050919050565b6000602082019050818103600083015261390381613555565b9050919050565b6000602082019050818103600083015261392381613578565b9050919050565b600060208201905081810360008301526139438161359b565b9050919050565b60006020820190508181036000830152613963816135be565b9050919050565b60006020820190508181036000830152613983816135e1565b9050919050565b600060208201905081810360008301526139a381613604565b9050919050565b600060208201905081810360008301526139c381613627565b9050919050565b600060208201905081810360008301526139e38161364a565b9050919050565b60006020820190508181036000830152613a038161366d565b9050919050565b60006020820190508181036000830152613a2381613690565b9050919050565b6000602082019050613a3f60008301846136b3565b92915050565b6000613a4f613a60565b9050613a5b8282613c81565b919050565b6000604051905090565b600067ffffffffffffffff821115613a8557613a84613d10565b5b613a8e82613d3f565b9050602081019050919050565b600067ffffffffffffffff821115613ab657613ab5613d10565b5b613abf82613d3f565b9050602081019050919050565b600081519050919050565b600081519050919050565b600082825260208201905092915050565b600082825260208201905092915050565b600081905092915050565b6000613b1a82613c03565b9150613b2583613c03565b9250827fffffffffffffffffffffffffffffffffffffffffffffffffffffffffffffffff03821115613b5a57613b59613cb2565b5b828201905092915050565b6000613b7082613c03565b9150613b7b83613c03565b925082821015613b8e57613b8d613cb2565b5b828203905092915050565b6000613ba482613be3565b9050919050565b60008115159050919050565b60007fffffffff0000000000000000000000000000000000000000000000000000000082169050919050565b600073ffffffffffffffffffffffffffffffffffffffff82169050919050565b6000819050919050565b82818337600083830152505050565b60005b83811015613c3a578082015181840152602081019050613c1f565b83811115613c49576000848401525b50505050565b60006002820490506001821680613c6757607f821691505b60208210811415613c7b57613c7a613ce1565b5b50919050565b613c8a82613d3f565b810181811067ffffffffffffffff82111715613ca957613ca8613d10565b5b80604052505050565b7f4e487b7100000000000000000000000000000000000000000000000000000000600052601160045260246000fd5b7f4e487b7100000000000000000000000000000000000000000000000000000000600052602260045260246000fd5b7f4e487b7100000000000000000000000000000000000000000000000000000000600052604160045260246000fd5b6000601f19601f8301169050919050565b7f6f7574206f6620736561736f6e00000000000000000000000000000000000000600082015250565b7f4552433732313a2063616c6c6572206973206e6f7420746f6b656e206f776e6560008201527f72206f7220617070726f76656400000000000000000000000000000000000000602082015250565b7f455243373231456e756d657261626c653a206f776e657220696e646578206f7560008201527f74206f6620626f756e6473000000000000000000000000000000000000000000602082015250565b7f4552433732313a207472616e7366657220746f206e6f6e20455243373231526560008201527f63656976657220696d706c656d656e7465720000000000000000000000000000602082015250565b7f536f6c64204f7574000000000000000000000000000000000000000000000000600082015250565b7f4f776e61626c653a206e6577206f776e657220697320746865207a65726f206160008201527f6464726573730000000000000000000000000000000000000000000000000000602082015250565b7f4552433732313a207472616e736665722066726f6d20696e636f72726563742060008201527f6f776e6572000000000000000000000000000000000000000000000000000000602082015250565b7f4552433732313a20746f6b656e20616c7265616479206d696e74656400000000600082015250565b7f496e73756666696369656e742046756e64730000000000000000000000000000600082015250565b7f4552433732313a207472616e7366657220746f20746865207a65726f2061646460008201527f7265737300000000000000000000000000000000000000000000000000000000602082015250565b7f4552433732313a20617070726f766520746f2063616c6c657200000000000000600082015250565b7f4552433732313a2061646472657373207a65726f206973206e6f74206120766160008201527f6c6964206f776e65720000000000000000000000000000000000000000000000602082015250565b7f45524337323155524953746f726167653a2055524920736574206f66206e6f6e60008201527f6578697374656e7420746f6b656e000000000000000000000000000000000000602082015250565b7f4552433732313a206d696e7420746f20746865207a65726f2061646472657373600082015250565b7f416c6c2055736564205570000000000000000000000000000000000000000000600082015250565b7f4f776e61626c653a2063616c6c6572206973206e6f7420746865206f776e6572600082015250565b7f4552433732313a20696e76616c696420746f6b656e2049440000000000000000600082015250565b7f4552433732313a20617070726f76616c20746f2063757272656e74206f776e6560008201527f7200000000000000000000000000000000000000000000000000000000000000602082015250565b7f4552433732313a20617070726f76652063616c6c6572206973206e6f7420746f60008201527f6b656e206f776e6572206f7220617070726f76656420666f7220616c6c000000602082015250565b7f455243373231456e756d657261626c653a20676c6f62616c20696e646578206f60008201527f7574206f6620626f756e64730000000000000000000000000000000000000000602082015250565b7f455243373231456e756d657261626c653a20636f6e736563757469766520747260008201527f616e7366657273206e6f7420737570706f727465640000000000000000000000602082015250565b61427e81613b99565b811461428957600080fd5b50565b61429581613bab565b81146142a057600080fd5b50565b6142ac81613bb7565b81146142b757600080fd5b50565b6142c381613c03565b81146142ce57600080fd5b5056fea264697066735822122015ca282394082f0d9dae6e71ee2b7f1f61ae14f674e6ef76a4ab4510f3d02cee64736f6c63430008040033",
  "linkReferences": {},
  "deployedLinkReferences": {}
}